:020000040800F2
:20000000D08D00200D03000879C900087BC900087DC900087FC9000881C9000800000000C5
:200020000000000000000000000000004D02000883C9000800000000A9020008C5990008FC
:200040002703000885C90008270300082703000827030008270300082703000827030008EC
:200060002703000827030008270300082703000827030008270300082703000827030008F0
:200080002703000827030008270300082703000827030008270300082703000827030008D0
:2000A000270300082703000889C90008270300082703000827030008270300082703000888
:2000C00027030008270300082703000827030008270300088DC90008270300082703000864
:2000E000270300082703000827030008270300082703000891C90008270300082703000840
:200100002703000827030008270300082703000827030008270300082703000897C9000819
:2001200027030008270300082703000827030008270300082703000827030008270300082F
:2001400027030008270300082703000827030008270300082703000827030008270300080F
:20016000270300082703000827030008270300082703000827030008270300080000000021
:20018000270300082703000800F002F800F04FF80AA090E8000C82448344AAF10107DA455D
:2001A00001D100F044F8AFF2090EBAE80F0013F0010F18BFFB1A43F00103184770F70000DC
:2001C00090F70000103A24BF78C878C1FAD8520724BF30C830C144BF04680C607047000069
:2001E0000023002400250026103A28BF78C1FBD8520728BF30C148BF0B60704766290EF049
:200200004B8264290CF0308678290CF06986002070471FB50EF03BFA0DF008FB0400002044
:2002200000210EF05FF8E0601FBD10B510BD0DF0FDFB1146FFF7EDFF0CF03BF80DF01BFC29
:2002400003B4FFF7F2FF03BC0DF05EFC2C4B19680868B0E8F04F80F30988BFF36F8F4FF0B8
:20026000000080F3118870470000000008480068006880F308884FF0000080F3148862B632
:2002800061B6BFF34F8FBFF36F8F00DF00BF00BF08ED00E0DFF80C00016841F47001016082
:2002A000704700BF88ED00E0EFF30980BFF36F8F134B1A681EF0100F08BF20ED108A20E9D4
:2002C000F04F106009B44FF0500080F31188BFF34F8FBFF36F8F08F035FA4FF0000080F3FE
:2002E000118809BC19680868B0E8F04F1EF0100F08BFB0EC108A80F30988BFF36F8F704743
:200300000C000020EFF30580704700000948804709480047FEE7FEE7FEE7FEE7FEE7FEE785
:20032000FEE7FEE7FEE7FEE704480549054A064B704700007DCA000889010008D0690020FE
:20034000D08D0020D0890020D089002070B576490024884204D1012000F0DBF801203FE063
:200360007249884204D1022000F0D3F8022037E06F49884204D1042000F0CBF804202FE0AC
:200380006C49884204D1082000F0C3F8082027E06949884204D1102000F0BBF810201FE0B4
:2003A0006649884204D1202000F0B3F8202017E06349884204D1402000F0ABF840200FE050
:2003C0006049884204D1802000F0A3F8802007E05D49884207D18515284600F09AF82846E3
:2003E00000F09CF800E00124204670BD2DE9F0430A684FF00F0992FAA2F2B2FA82F34FF04F
:20040000030C74E001249C4022406FD04C68012C01D0022C17D18C68856892FAA2F6B6FA5A
:2004200086F676000CFA06F6B54392FAA2F6B6FA86F67600B44025438560CC684568544351
:200440009543254345600C69C56892FAA2F6B6FA86F676000CFA06F6B54392FAA2F6B6FA81
:2004600086F67600B4402543C5604C68022C2BD192FAA2F4B4FA84F4082C4C6911D2056AA8
:2004800092FAA2F6B6FA86F6B70009FA07F6B54392FAA2F6B6FA86F6B600B4402543056294
:2004A00012E0466A150A95FAA5F7B7FA87F74FEA870809FA08F795FAA5F5B5FA85F5AD0058
:2004C000BE43AC40264346624C68056892FAA2F6B6FA86F677000CFA07F692FAA2F2B2FA67
:2004E00082F25200B5439440254305605B1C0A6832FA03F486D10020BDE8F0834FF6FF714D
:2005000001600321416000218160C1600161416170470E490A6802430A6070470B490A68E2
:2005200082430A6070470000000002400004024000080240000C024000100240001402400D
:2005400000180240001C024000200240103802408C4808B5016841F0010101600168C1F34C
:2005600040010029FAD0874A0021083211600168854A114021F0806100910160016821F0C3
:20058000F80141F08001016000F0F7F80028FBD17C497E48091D08607A497D4884310860BE
:2005A00078480C30016821F4F8510160016821F400510160016841F41F010160016841F42A
:2005C000001101606F487430016821F001010160016841F080710160002008BD69490831B5
:2005E00009686C4A01F4604102EB51310978C8407047644908310968664A01F4E05102EB75
:2006000091210978C84070475E4908310968624A01F0F0010909515CC840704710B504467C
:20062000584B00201B1D196811F480025B4903D0B2F5800F00D14910082C11D1186800F05A
:200640003F00B1FBF0F01968C1F3881148431968012201F4403102EB11414900B0FBF1F058
:2006600010BD48480830006810F00C014B4806D0042903D0082902D10820CFE748487047DE
:2006800010B50446FFF7EDFF2060FFF7BDFF6060FFF7AFFFA0606068FFF7A0FFE06010BD69
:2006A0003849091D086800F48000B0F5800F12D03A48096801F03F01B0FBF1F131488430BB
:2006C00002680068C2F388125143072202EA1070B1FBF0F070473248EBE701460020B1F534
:2006E000000F06D127490831096811F4000F01D02C48704723490968C1F3C0610029F8D047
:20070000CEE7204A121D106810F48001234803D0B1F5800F00D14010116801F03F01B0FBA5
:20072000F1F11068C0F38810414310680F2202EA1060B1FBF0F0704710B50024B0F1706FDF
:2007400005D100F01AF810B1FFF7DBFF0446204610BD10B5002400F010F810B1FFF7D1FF4B
:200760000446204610BD10B5002400F006F810B1FFF7C7FF0446204610BD02480068C0F3C6
:200780004060704700380240FFFFF2FE1030002400300020C4F70008B4F700080024F40058
:2007A00000127A000080BB004FF47A71B0FBF1F14FF0E020491E41610021816105210161E4
:2007C000704708B54FF0E0210A690092421C00D0401C0A69D20300D5401E0028F9D108BDA4
:2007E0008F490860704770B5002150B18D4D2A688E4C02F480428C4B6610B2F5804F02D028
:2008000018E0012070BD8A4A904200D90521894A904201D901B90421984201D901B90321FD
:20082000A04200D919B1B04204D911B102E0022100E001212A6812F4804F12D17E4A9042B7
:2008400001D901B90421984201D901B90321A04200D919B1B04204D911B102E0022100E052
:200860000121764B186820F007000843186002201A68401E02F007028A4201D00028F7D1B1
:200880008A42BED1002070BD70B50D4609786C4AC1F30311624E515C0446CC4031680020CD
:2008A000A14203D22046FFF79EFF40BB65490A6842F080720A600A68C2F34062002AFAD021
:2008C00060492A6808310B6823F0F00313430B600A6822F0030242F002020A600A6802F0DD
:2008E0000C02082AFAD16A680B6823F4E05313430B60AA680B6823F4604313430B60316804
:20090000A14202D92046FFF76EFF002800D1346070BD70B50E46044600F074F808B101209D
:2009200070BD2146484800F05DF8464A05461068C0F3400040B9106840F00100106010687E
:20094000C0F340000028FAD094E80E00002000F038F831462846BDE8704095E72DE9F041EB
:200960001F4614460E46054600F04CF810B10120BDE8F0812146284600F034F80546314838
:200980000168C1F3404171B90168012E16D021F480210160016841F4803101600168C1F32D
:2009A00040410029FAD094E80E004FF4800000F008F839462846BDE8F04165E741F48021A1
:2009C000E7E7084340EA82111E4810B5001D02681E4C224011430160016821F440311943C3
:2009E000016010BD0A7802F03F02B0FBF2F288888968C0F30800090C50434900891CB0FB88
:200A0000F1F070470F4900200A68C2F3406202B101200968C1F3C061002900D00120704712
:200A20002401002000700040804A5D050087930380D1F008000E2707001BB700003C0240A3
:200A4000B4F70008003802400024F4000080BFFF002070472DE9F84F040075D02078DFF827
:200A6000A4A4C007AAF1040548D00AF104000168C1F38101012908D00068C0F38100022845
:200A80000AD1DAF80000400206D52868800335D560680028E1D031E06068B0F5803F10D0B1
:200AA000B0F5A02F286810D020F480302860286820F4802028606068A0B101F07AFD06466D
:200AC0000CE0286840F48030F4E740F480202860F7E701F06EFD801B642871D828688003C2
:200AE000F7D50BE001F065FD064604E001F061FD801B6428F1D828688003F7D42078DFF830
:200B0000089480074FF0000B3DD5FE48001D016811F00C0F08D00068C0F3810002280AD1F5
:200B2000DAF80000400206D42868800715D5E068012809D111E0E068B8B10120C9F80000F7
:200B400001F037FD064605E022E101F032FD801B0228C2D828688007F7D52868216920F0B0
:200B6000F80040EAC10028600DE0C9F800B001F020FD064604E001F01CFD801B02281FD8A8
:200B800028688007F7D42078000722D5DD4FDF486169703771B10121016001F00AFD064630
:200BA00004E001F006FD801B022809D838688007F7D50EE0C0F800B001F0FBFC064605E055
:200BC00082E001F0F6FC801B02287DD838688007F7D42078400765D5CA484FF000083C30E6
:200BE0000068C0000BD4C7483C30016841F08051016000684FF0010800F080500090C44F94
:200C00003868C0050FD4386840F48070386001F0D0FC064604E001F0CCFC801B022853D89A
:200C20003868C005F7D5B74FA0686C3701280FD00528386810D020F001003860386820F0C4
:200C400004003860A068B0B101F0B3FC06460EE0386840F00100F4E740F004003860F7E75F
:200C600001F0A7FC811B41F28830814263D838688007F5D50DE001F09CFC064606E001F0D1
:200C800098FC811B41F28830814254D838688007F5D4B8F1000F05D09A483C30016821F005
:200CA00080510160A069B8B39649091D0968C1F38101022946D00228584606D0C9F86000E2
:200CC00001F077FC044639E035E04F46C9F8600001F06FFC064604E001F06BFC801B0228D9
:200CE00029D828688001F7D4D4E907010843A16A884A490802EB0141626A41EA82110843D5
:200D000094F82C1040EA0161CAF800100120386601F04FFC044605E03CE001F04AFC001B15
:200D2000022808D828688001F7D533E001F041FC001B022802D90320BDE8F88F286880010B
:200D4000F4D427E00128F7D0DAF80000E26900F4800191421CD1226A00F03F01914217D10B
:200D600047F6C071626A0140B1EB821F10D1A26A4FF0FF3300F4403103EB5202B1EB024FC9
:200D800006D194F82C1000F07060B0EB016F01D00120D1E70020CFE75A4810B5001D00687D
:200DA00010F00C015C4812D0431004290ED008290DD1544C216801F03F022168490207D528
:200DC0002068C0F38810A0FB030106E0184610BD2168C1F38811A1FB000100230BF08EFF72
:200DE0002168C1F30141491C4900B0FBF1F010BD2DE9F0470D46040065D0DFF82091D9F83B
:200E00000000EFB200F00700A84207D289F80070D9F8000000F00700A84254D12068404E99
:200E2000810712D5400703D5306840F4E05030602078000703D5306840F46040306030688D
:200E4000A16820F0F000084330602078C0072DD02C496068091F012812D0022813D00328AA
:200E600011D00968890700292DDA316821F003010143316001F09DFB804641F2883A0EE0AB
:200E800009688903EFE709688901ECE701F091FBA0EB0801514502D90320BDE8F087306858
:200EA000616800F00C00B0EB810FEFD1D9F80010484601F00701A94207D90770006800F080
:200EC0000700A84201D00120E7E72078400705D53068E16820F4E050084330602078000709
:200EE00006D53068216920F4604040EAC1003060FFF752FF31680B4AC1F30311515CC84014
:200F0000094913E00438024000004742800E4742007000400000FFFF0024F400003C02402A
:200F200008380240B4F70008240100200860744800680BF059FD0020AFE7F0B5714E1546E5
:200F40000C46704B002102220327283E0028186887B019D040F004001860186800F00400C7
:200F6000059010020090CDE90121CDE903716946654800F0DFFB306844EAC50120F07840BE
:200F80000843306007B0F0BD40F001001860186800F0010005904FF480700090CDE90121C8
:200FA000CDE903716946594800F0C4FB30682C4320F0EC602043E4E755490120C8647047D5
:200FC00053490020C86470475248006870474D4950482839006809684F4AC1F38221515CB4
:200FE000C840704747494B482839006809684A4AC1F34231515CC840704730B5414B0F210D
:20100000303B016019684A034FF0000102D54FF4A02204E01A68D20303D54FF48032426070
:2010200000E041601A68D4074FF0010201D0C26000E0C1601C68C4F3C4040461314C403443
:2010400025686D0702D50524846005E02468E40701D0826000E081602A4C44342468E40776
:2010600001D0426100E041611968C90102D50221816100E0826123492C390A6802F48002D5
:20108000C2610A6802F03F0202620A68C2F3881242620A6802F4403202F58032D20B82627B
:2010A0000968C1F30361C16230BD0F220260154A283A136803F003034360136803F0F003CB
:2010C0008360136803F4E053C36012684FF4E05303EAD20202611148006800F00700086031
:2010E00070477047074810B524380068000605D5FFF7F7FF034980202239087010BD000052
:20110000040000203038024000080240000002400000474224010020C4F70008003C024066
:20112000D0490868C206D04805D5C26942F01002C26110220A600A68920605D5C26942F0FD
:201140000802C26120220A600A68520605D5C26942F00402C26140220A600A68120605D55C
:20116000C26942F00202C26180220A600A68920705D5C26942F02002C26102200860704717
:2011800070B5B94904460020C86101F012FA0546B44E09E0601C07D024B101F00AFA401BEA
:2011A000A04201D9032070BD3068C003F2D43068C00701D001203060306810F0F200F2D0D5
:2011C000FFF7AEFF012070BDA64910B5091D0C6824F440740C600C6844F440740C600C6858
:2011E00044F001040C600260BFF36F8F436010BD2DE9F0479C4E05461446307E1F4689460A
:20120000012808D0012030764CF250384046FFF7B7FF18B115E00220BDE8F087A5B1012D8E
:2012200017D0022D1AD022463B464846FFF7CCFF4046FFF7A5FF8B49091D0A6822F00102D5
:201240000A6000213176E7E7E1B2484600F0FBF8EEE7A1B2484600F0E6F8E9E72146484641
:2012600000F0D1F8E4E72DE9F0417F4D0E460024297E012919D0012129767A49091D0F6884
:2012800047F080770F600F6847F000770F60032129706E6158B101280ED0022811D0304600
:2012A000FFF792FF2046BDE8F0810220FBE7D1B2304600F0C8F8F5E791B2304600F0B3F84E
:2012C000F0E71146304600F09EF8EBE7704770472DE9F041634F3868634D10F0F20F4FF01B
:2012E000FF384FF000060CD0287801282BD0287802282CD06C69FFF713FF2046FFF7E7FFED
:201300002E703868C0070BD001203860287801281FD02878022836D06869FFF7D7FF2E7071
:2013200028780028BFD14F48001D016821F0FF010160016821F080710160016821F000710F
:2013400001602E76AFE7EC68C5F80C80D3E72C69D1E76868401E6860686850B1E868FFF741
:20136000B5FFE868401CE860E868297A00F0AEF8D6E74446C5F80C802E7000F07FF8204641
:20138000FFF7A4FFCCE700F079F82869C5E735490020091D0A68002A09DA324A334B083AE4
:2013A0001360334B13600968002900DA012070472C48001D016841F00041016000207047D9
:2013C000284808300068C00707D026482949001F0160294901600020704701207047214814
:2013E0000830016841F001010160002070471D480830017841F0020101704CF25030BFE6C3
:201400001948C0697047174A121D136823F440731360136843F400731360136843F00103F9
:201420001360016070470F4A121D136823F440731360136843F480731360136843F0010317
:20144000136001807047074A121D136823F44073136013681360136843F001031360017025
:20146000704700000C3C02402801002023016745AB89EFCD3B2A19087F6E5D4CAA480168AB
:2014800089050FD5016821F400710160016841F400610160016821F400610160016841F44C
:2014A00000710160016849050FD5016821F480610160016841F480510160016821F48051E0
:2014C0000160016841F4806101607047002229B101291BD002291CD04FF4407292491031DB
:2014E0000B6823F440730B600B6813430B600A6822F0F8020A600A68022303EBC00002439E
:201500000A60086840F48030086070474FF48072E4E74FF40072E1E72DE9F047044683480F
:201520000E46017E01290AD00121804601764CF250394846FFF724FE020003D030E0022001
:20154000BDE8F0874FF0FF303060774F20681037012801D0A5681CE0207C616800F0D2F8BA
:201560004846FFF70DFE0246386820F00400386014E0217C2846FFF7A9FF4846FFF700FE29
:201580000200386820F0FA00386001D0356005E06D1CD4E902100844A842EAD8FFF76EFF09
:2015A000002188F818101046CAE770B55F4900240A7E012A1FD05C4A012310320B761568BE
:2015C00045F080751560156845F000751560564DF3220C352A600268012A0ED00B70C26835
:2015E0004A608268CA60027C0A72017C8068FFF76DFF204670BD022070BD02220A70426842
:201600000A614168007C00F07DF8F2E72DE9F0474649044601200A7E012A12D0012288462F
:201620000A7621784CF2503AC90715D03E4D606816350128A668504605D0FFF7A1FD40B14F
:201640000AE002207CE7FFF79BFD28B92988B14301E02988314329802178890707D5257CB2
:201660005046FFF78DFD10B92F4915310D702178DFF8BC90490713D5207E00F0200700F0B7
:20168000400500F080065046FFF77AFD40B999F8001001F01F010D4335433D4389F80050C8
:2016A00021784FF0000309070CD5217D99F8002022F00C0289F8002099F800200A4389F8CF
:2016C0000020184688F818303AE70F2101601849891C09888160164AAA21521C1378CC2B7F
:2016E0000ED01278AA2A00D05521016110490A6802F0E0020276097801F00C014161704717
:20170000CC21F2E70A49091F0A6822F440720A600A6842F004020A600A684FF4803343EA3B
:20172000002002430A607047003C024028010020143C02402DE9F84FDFF8EC92002209F1FC
:20174000040A0AF1040B03274FF00F0C0BF1040E01250B6895402B40AB426ED10C7904F061
:201760000304012C01D0022C15D18668540007FA04F826EA0806D1F80C8008FA04F848EA6E
:201780000608C0F808804468AC430D79C5F300159540254345600C79E443A40708D0C568CF
:2017A000540007FA04F6B5438E68A6402E43C6600C7904F00304022C11D1D40800EB84068E
:2017C000356A5407E40E0CFA04F825EA0805D1F8108008FA04F848EA0508C6F8208005689E
:2017E000540007FA04F6B5430E7906F00306A6402E4306604C6814F4403F66D08B4C25688A
:2018000045F480452560246822F0030504F480440094874C05EB0408D8F808589407260F80
:201820000CFA06F4A543834CA04201D1002424E0814CA04202D101241FE046E07F4CA0429C
:2018400001D1022419E07E4CA04201D1032414E07C4CA04201D104240FE07B4CA04201D1F0
:2018600005240AE0794CA04201D1062405E0784CA04201D1072400E00824B4402C43C8F8FB
:201880000848D9F800404D464E689C43F60300D51C432C60DAF8004055464E689C43B6030B
:2018A00000D51C432C60DBF800405D464E689C43F60200D51C432C60DEF8004075464E68DE
:2018C0009C43B60200D51C432C60521C102AFFF43FAFBDE8F88F2DE9F04FDFF854A189460C
:2018E00000224FF0010B4FF00F0C0BFA02F609EA0603B34264D122F003045444D4F8081861
:2019000095072F0F0CFA07F505EA01084949884201D1002123E04849884201D101211EE054
:201920004649884201D1022119E04549884201D1032114E04349884201D104210FE0424957
:20194000884201D105210AE04049884201D1062105E03F49884201D1072100E00821B9405C
:20196000414514D1304F3968994339603F1D3968994339603F1D3968994339603F1D396886
:2019800099433960D4F80818A943C4F80818036854000321A1408B430360D30800EB8303DD
:2019A0001D6A5407E70E0CFA07F4A5431D62C3688B43C3604368B343436083688B438360EC
:2019C000521C102A91D3BDE8F08F0069084000D0012070470AB1816170470904FBE7426990
:2019E00021EA02030A4043EA02418161704708B541F480320092C261C1610099C161C16924
:201A00000091C069C00301D5002008BD012008BD7047054910B514310A68024202D00860A9
:201A2000FFF7F6FF10BD0000003C0140443802400030014000000240000402400008024070
:201A4000000C0240001002400014024000180240001C024001681823CAB2103AB2FBF3F2DC
:201A6000F84B6FF30901032A9B5CC36500D9091D8165084670472DE9F041044600F099FD6A
:201A800005465CB1022084F83500002684F834602068016821F0010101600DE00120BDE8CD
:201AA000F08100F086FD401B052805D920206065032084F83500F2E720680068C007F0D1B2
:201AC00021680A68E0480240D4E901031843D4E903352B43184363691843A3691843E369ED
:201AE0001843236A18431043626A042A03D1D4E90B231A431043086020684069656A20F06F
:201B0000070128460D43012704280CD1A06A0543E06A40B1204600F0C4FA20B14020606537
:201B200084F83570BAE7206845612046FFF792FF94F85C203F2191408160666584F83570C2
:201B40000020ACE770B504002BD094F83500022826D02068016821F00101016020680025BB
:201B6000056020684560206885602068C560206805612168212048612046FFF76BFFE5634A
:201B800025646564A564E564256594F85C203F2191408160656584F8355084F83450002012
:201BA00070BD012070BD30B50468256825F480252560046863608368402B036803D09960CD
:201BC0000068C26030BD9A600068C16030BD70B5044690F83400002501280CD0012084F82C
:201BE000340094F835600020012E06D084F834000225284670BD022070BD022684F8356071
:201C000060652046FFF7CFFF2068016841F001010160EEE72DE9F0410446866D90F834003B
:201C2000002501280CD0012084F8340094F835700020012F06D084F83400022528462EE7F8
:201C400002202CE7022784F8357060652046FFF7AAFF94F85C103F208840B060206801681B
:201C600041F016010160206C20B12068016841F0080101602068016841F001010160DDE789
:201C80002DE9F0410446876D00F093FC054694F835000026022805D08020606584F834609A
:201CA0000120FCE62068016821F0160101602068416921F080014161206C08B9A06C20B117
:201CC0002068016821F0080101602068016821F0010101600CE000F06CFC401B052807D987
:201CE00020206065032084F8350084F83460D6E620680068C007EED194F85C103F208840AA
:201D0000B860012084F8350084F834600020C6E690F83510022903D0802141650120704713
:201D2000052180F835100068016821F001010160002070472DE9F84F0446002016468B46B0
:201D4000009000F036FC814694F835004FF0000A022802D0802060655DE020680068C005AD
:201D600003D54FF48070606557E094F85C00BBF1000F06D01027A56D874028684FF00108FB
:201D800035E02027F7E7701C0FD02EB100F011FCA0EB0900B04208D92020606584F8358025
:201DA00084F834A00320BDE8F88F286894F85C2008219140014204D0626D42F00102626510
:201DC000A96094F85C2008FA02F1014204D0626D42F002026265A96094F85C200421914013
:201DE000014204D0626D42F004026265A960384202D1606DC007C6D0606D302678B1606D65
:201E0000C0070CD02046FFF73BFF94F85C008640AE6084F8358084F834A00120C3E7BBF1D5
:201E2000000F06D094F85C1010208840A8600098B9E794F85C008640AE6084F8358084F824
:201E400034A0F4E79CE600083F8010F02DE9F84304464FF00009CDF80090A7484FF41651B9
:201E6000A56D0068B0FBF1F72E6894F85C20082101FA02F030420FD02068026852070BD525
:201E8000026822F00402026094F85C008140A960606D40F00100606594F85C104FF00108A9
:201EA00008FA01F0304208D021684969090604D5A860606D40F00200606594F85C100420DA
:201EC0008840304208D021680968890704D5A860606D40F00400606594F85C1010208840CF
:201EE000304218D021680968090714D5A86020680168490304D50068000308D5A16C07E03B
:201F00000168C90503D4016821F008010160216C09B12046884794F85C10202088403042E1
:201F200031D021680968C9062DD5A86094F8350005282068016806D0490347D50068000345
:201F40001DD4616C1CE021F0160101602068416921F080014161206C08B9A06C20B1206826
:201F6000016821F00801016094F85C103F208840A86084F8358084F83490216D1FE0E16B0C
:201F800009B120468847606D00282BD0606DC00714D0052084F835002068016821F0010110
:201FA00001600098401C0090B84203D820680068C007F6D184F8358084F83490E16C002902
:201FC00010D001B02046BDE8F04308470168C905D5D4016821F01001016084F8358084F86A
:201FE0003490CCE7BDE8F88310B590F834400023012C0CD0012480F8344090F83540012C22
:2020000007D00123002180F83410184610BD022010BD0629F6D2DFE801F0030507090B0DEF
:20202000C263EFE70264EDE74264EBE78264E9E7C264E7E70265E5E710B590F83420002352
:20204000012A08D0012280F8342090F835400022012C02D01BE0022010BD072917D2DFE8A6
:2020600001F00406080A0C0E1000C26310E002640EE042640CE082640AE0C26408E00265E9
:2020800006E0C263026442648264C264F7E7012380F83420184610BD90F835007047406D03
:2020A000704710B5014600208B698A6A4FF0C07453B1B3F5005F15D072B1012A0CD0022A9C
:2020C0000AD0032A09D104E01AB1012A06D0022A03D1C96AC90100D5012010BDC96AA14299
:2020E000FAD010BD002AF7D0012AF2D0022AF3D0032AF3D010BD0000240100205C4801686D
:2021000041F080510160016821F0805101607047584908B50120086257480068009008BDB4
:20212000544908B50020086253480068009008BD30B551490A68036822F0E0021A430A604C
:202140004E4C216821F480312160211F0A6822F480320A60231D1A6822F480321A601A1DF6
:20216000156825F4803515604568ED0303D50D6845F480350D604168890303D5216841F48F
:20218000803121600179C90703D0196841F4803119600079800703D5106840F4803010606C
:2021A00030BD3449012008617047324900200861704731494A6802434A6070472E494A68BE
:2021C00082434A6070472E48026822F004020260012903D040BF20BF20BF704730BF704768
:2021E000254A136823F00303034313602448026842F004020260012907D040BF20BF20BFF5
:20220000016821F004010160704730BFF8E71A48016841F0020101601948016841F00401F9
:20222000016030BF7047704710B5144C10342068C00304D5FFF7F7FF4FF48030206010BD27
:202240000F48016841F00201016070470C48016821F00201016070470948016841F010018D
:20226000016070470648016821F01001016070472038024000000E4200700040043C01403A
:2022800010ED00E09F4A00F0070110684FF6FF03184040EA01209C49084310607047F0B423
:2022A000984B1B68C3F30223C3F10704042C00D904241D1D072D01D2002300E0DB1E012689
:2022C00006FA04F56D1E0D409D409E40761E164045EA0601F0BC00F004B9002809DB00F0FD
:2022E0001F02012191404009800000F1E020C0F80011704700280DDB00F01F02012191407C
:202300004009800000F1E020C0F88011BFF34F8FBFF36F8F7047BFF34F8F7A4801687A4A44
:2023200001F4E061121D11430160BFF34F8F00BFFDE710B5401EB0F1807F01D3012010BDCB
:202340004FF0E02460610F21601700F0CAF80020A06107202061002010BDBFF35F8F694819
:202360001830016821F48031016066490020883108607047634940F0010088310860614837
:202380001830016841F480310160BFF34F8FBFF36F8F70475B4A41788C3211600378111D18
:2023A0000A1DE3B143680B60017BC37A090741EA0361837A41EAC341437B41EA8341837B1D
:2023C00041EA4341C37B41EA0341437A41EA0321037A007841EA43010143116070470020A5
:2023E00008601060704747480068C0F302207047F0B5002804DB00F1E02090F8000405E0BD
:2024000000F00F0000F1E02090F8140D040901F00700C0F10701042900D90421051D072DE4
:2024200001D2002000E0C01E012724FA00F607FA01F56D1E2E4007FA00F56D1E2540166063
:202440001D60F0BD002809DB00F01F02012191404009800000F1E020C0F8001270470028DF
:202460000DDB4109890001F1E021D1F8001200F01F0201209040014201D0012070470020C5
:202480007047002809DB00F01F02012191404009800000F1E020C0F88012704700280DDBAA
:2024A0004109890001F1E021D1F8001300F01F0201209040014201D00120704700207047B5
:2024C0004FF0E0210428086903D020F004000861704740F00400FAE7704710B5FFF7FCFF96
:2024E00010BD0907090E002804DB00F1E02080F80014704700F00F0000F1E02080F8141D14
:20250000704700000CED00E00000FA05704770B5644D04464FF47A712878B1FBF0F0624950
:202520000968B1FBF0F0FFF704FF48B9102C07D200222146501EFFF7B2FE00206C6070BDD9
:20254000012070BD594810B5016841F400710160016841F480610160016841F48071016087
:202560000320FFF78FFE0F200AF03EFA0AF016FA002010BD70474E4A10B54FF0FF3010606B
:2025800000211160121D10601160494A103A10601160121D10601160121D10601160FFF7C5
:2025A000E9FF002010BD3F48816802781144816070473C48806870473A484068704770B546
:2025C000384D014600202C788C4206D0297068680AF00AFA002800D02C7070BD31480078AE
:2025E000704770B50446FFF7E4FF0546601C02D02C4800780444FFF7DCFF401BA042FAD334
:2026000070BD4FF0E020016921F00201016170474FF0E020016941F0020101617047254854
:20262000704725480068000C704723480068C0F30B0070472048416841F001014160704767
:202640001D48416821F00101416070471A48416841F00201416070471748416821F002014E
:20266000416070471448416841F00401416070471148416821F00401416070470F49012086
:20268000086070470D490020086070470C48006870470B48001D0068704709480830006893
:2026A000704700000000002024010020003C024020380240000D0701002004E00004274260
:2026C000107AFF1FF0B50268FD4DFE4EFE4FDFF8FCC3FF4B4FF0804EA84209D0704507D024
:2026E000B04205D0B84203D0604501D0984203D122F070044A682243A8421BD0704519D012
:20270000B04217D0B84215D0604513D0984211D0F04CA0420ED0F04CA0420BD0EF4CA042AC
:2027200008D0EF4CA04205D0EE4CA04202D0EE4CA04203D122F44074CA6822434C6922F0C9
:202740008002224302608A68C2620A688262A84201D0984201D10969016301214161F0BD16
:20276000704710B5040003D094F83D0010B107E0012010BD002084F83C002046FFF7F0FF84
:20278000022084F83D00211D2068FFF79BFF012084F8460084F83E0084F83F0084F84000F4
:2027A00084F8410084F8420084F8430084F8440084F8450084F83D00002010BD704710B53C
:2027C0000446022084F83D002068016A41F21112114207D1016A9210114203D1016821F0B2
:2027E000010101602046FFF7E9FF002084F8460084F83E0084F83F0084F8400084F8410062
:2028000084F8420084F8430084F8440084F8450084F83D0084F83C0010BD90F83D1001297D
:2028200001D001207047022180F83D100068A449884214D0B0F1804F11D0A24988420ED020
:20284000A14988420BD0A149884208D0A049884205D0A049884202D0A149884204D18168DE
:2028600001F00701062903D0016841F0010101600020704701680A6A41F211131A4207D121
:202880000A6A9B101A4203D10A6822F001020A60012180F83D100020704790F83D1001293B
:2028A00001D001207047022180F83D100168CA6842F00102CA6000688149884214D0B0F10C
:2028C000804F11D07F4988420ED07F4988420BD07E49884208D07E49884205D07D4988420C
:2028E00002D07F49884204D1816801F00701062903D0016841F0010101600020704701687E
:20290000CA6822F00102CA6001680A6A41F211131A4207D10A6A9B101A4203D10A6822F00B
:2029200001020A60012180F83D1000207047704710B5846B0121626A824203D1217784F867
:202940003E1019E0A26A824204D10220207784F83F1011E0E26A824204D10420207784F8FA
:20296000401009E0226B824204D10820207784F8411001E084F83D102046FFF7D8FF00206F
:20298000207710BD704710B5806BFFF7FBFF10BD704710B5806B016AC96911B9012180F847
:2029A0003D1009F0A8FC10BD70B5044690F83D0002281CD094F83D00012817D101B9AAB91F
:2029C000022084F83D00236A4848D863236A48481864AFF2A300236AD86420681346256AAE
:2029E00000F12C022846FFF715F908B1012070BD2068C16841F48071C1603149206888427B
:202A000014D0B0F1804F11D02E4988420ED02E4988420BD02D49884208D02D49884205D019
:202A20002C49884202D02E49884204D1816801F00701062903D0016841F00101016000206E
:202A400070BD10B504460068C16821F48071C160206AFFF75DF92068016A41F21112114210
:202A600007D1016A9210114203D1016821F001010160012084F83D00002010BD704710B52A
:202A8000040003D094F83D0010B107E0012010BD002084F83C002046FFF7F0FF022084F83F
:202AA0003D00211D2068FFF70DFE012084F8460084F83E0084F83F0084F840001AE0000004
:202AC000000001400004004000080040000C00400004014000400140004401400048014009
:202AE00000180040001C004000200040932900088729000884F8410084F8420084F843000C
:202B000084F8440084F8450084F83D00002010BD704710B50446022084F83D002068016AFA
:202B200041F21112114207D1016A9210114203D1016821F0010101602046FFF7E9FF00209F
:202B400084F8460084F83E0084F83F0084F8400084F8410084F8420084F8430084F8440088
:202B600084F8450084F83D0084F83C0010BD10B501F01F010123046A8B409C430462036A71
:202B80008A401343036210BD10B5044649B104290AD008290BD094F8410001280AD00120D6
:202BA00010BD94F83E00F8E794F83F00F5E794F84000F2E70220B1B3042938D0082939D05E
:202BC00084F8410001222068FFF7D1FFF6492068F64A884201D0904203D1436C43F4004356
:202BE00043642068884213D0B0F1804F10D0F04988420DD0EF4988420AD0EF49884207D014
:202C0000904205D0ED49884202D0ED49884204D1816801F00701062903D0016841F00101E6
:202C20000160002010BDFFE784F83E00CAE784F83F00C7E784F84000C4E730B504460D46A3
:202C400000680022FFF793FFD74941F2111220689310884202D0D549884209D1016A1142A5
:202C600006D1016A194203D1416C21F4004141642068016A114206D1016A194203D101681B
:202C800021F00101016001203DB1042D08D0082D09D084F84100002030BD84F83E00FAE735
:202CA00084F83F00F7E784F84000F4E730B50446002549B104290AD008290BD094F84100B6
:202CC00001280AD0012030BD94F83E00F8E794F83F00F5E794F84000F2E7022071B104297D
:202CE0000FD0082910D084F8410081B1042913D0082947D00C294AD0012541E084F83E004D
:202D0000F3E784F83F00F0E784F84000EDE72068C26842F0020203E02068C26842F0040202
:202D2000C26001222068FFF722FF9F4920689F4A884201D0904203D1436C43F40043436445
:202D40002068884213D0B0F1804F10D0984988420DD0984988420AD09749884207D090428E
:202D600005D09649884202D09549884204D1816801F00701062903D0016841F001010160A5
:202D8000284630BD2068C26842F00802C8E72068C26842F01002C3E770B50D0004464FF0E0
:202DA000000607D0042D0AD0082D3BD00C2D3ED0012635E02068C16821F0020103E0206838
:202DC000C16821F00401C160002229462068FFF7CEFE754941F2111220689310884202D0DD
:202DE0007249884209D1016A114206D1016A194203D1416C21F4004141642068016A114257
:202E000006D1016A194203D1016821F00101016001208DB1042D12D0082D13D084F841001D
:202E2000304670BD2068C16821F00801CBE72068C16821F01001C6E784F83E00F0E784F8E5
:202E40003F00EDE784F84000EAE7704710B5846B616A814201D101200DE0A16A814201D159
:202E6000022008E0E16A814201D1042003E0216B814201D1082020772046FFF7E6FF002020
:202E80002077CFE6704710B5846B0121626A824205D12177C069F8B984F83E101CE0A26AAF
:202EA000824206D102222277C069A8B984F83F1012E0E26A824206D104222277C06958B993
:202EC00084F8401008E0226B824205D108222277C06908B984F841102046FFF7D3FF00204F
:202EE00020779FE62DE9F04117460D0004464FF0000611D0042D12D0082D13D094F841009D
:202F000002287DD08DB1042D12D0082D13D094F84100012812D0C6E094F83E00F0E794F826
:202F20003F00EDE794F84000EAE794F83E00F0E794F83F00EDE794F84000EAE70FB9002B11
:202F40005FD102209DB1042D14D0082D15D084F841001C48AFF20B11AFF22B6285B1042D2F
:202F600032D0082D7CD00C2D79D0012673E084F83E00EEE784F83F00EBE784F84000E8E72B
:202F8000D4F824C0CCF83C00606A0164606A3946C2642268606A3432FEF73CFE88BB20682F
:202FA000C16841F4007122E000000140000401400004004000080040000C00400040014061
:202FC00000180040872E0008D4F828C0CCF83C00A06A0164A06A3946C2642268A06A38320C
:202FE000FEF718FE68B92068C16841F48061C160012229462068FFF7BAFDFE49FE4A01E086
:203000002AE050E02068884201D0904203D1436C43F4004343642068884213D0B0F1804F38
:2030200010D0F64988420DD0F54988420AD0F549884207D0904205D0F349884202D0F3494E
:20304000884204D1816801F00701062903D0016841F0010101603046BDE8F08100E013E091
:20306000D4F82CC0CCF83C00E06A0164E06A3946C2642268E06A3C32FEF7CCFD98B9206821
:20308000C16841F40061B2E7D4F830C0CCF83C00206B0164206B3946C2642268206B403275
:2030A000FEF7B8FD08B10120D6E72068C16841F480519CE770B50D0004464FF0000607D0FD
:2030C000042D0CD0082D40D00C2D45D001263AE02068C16821F40071C160606A05E0206880
:2030E000C16821F48061C160A06AFEF711FE002229462068FFF73BFDBE4941F21112206856
:203100009310884202D0BC49884209D1016A114206D1016A194203D1416C21F400414164F0
:203120002068016A114206D1016A194203D1016821F0010101600120ADB1042D16D0082D30
:2031400017D084F84100304670BD2068C16821F40061C160E06AC8E72068C16821F4805150
:20316000C160206BC1E784F83E00ECE784F83F00E9E784F84000E6E7704710B5040003D007
:2031800094F83D0010B107E001204BE5002084F83C002046FFF7F0FF022084F83D00211D31
:2031A0002068FFF78FFA012084F8460084F83E0084F83F0084F8400084F8410084F8420079
:2031C00084F8430084F8440084F8450084F83D00002027E5704710B50446022084F83D0029
:2031E0002068016A41F21112114207D1016A9210114203D1016821F0010101602046FFF7EE
:20320000E9FF002084F8460084F83E0084F83F0084F8400084F8410084F8420084F8430079
:2032200084F8440084F8450084F83D0084F83C00F8E410B5044649B104290AD008290BD0A4
:2032400094F8410001280AD00120EBE494F83E00F8E794F83F00F5E794F84000F2E7022097
:20326000B1B3042938D0082939D084F8410001222068FFF77CFC5F4920685F4A884201D031
:20328000904203D1436C43F4004343642068884213D0B0F1804F10D0584988420DD058494A
:2032A00088420AD05749884207D0904205D05649884202D05549884204D1816801F0070128
:2032C000062903D0016841F0010101600020A9E4FFE784F83E00CAE784F83F00C7E784F80C
:2032E0004000C4E730B504460D4600680022FFF73EFC404941F2111220689310884202D001
:203300003D49884209D1016A114206D1016A194203D1416C21F4004141642068016A114266
:2033200006D1016A194203D1016821F00101016001203DB1042D08D0082D09D084F841005C
:20334000002030BD84F83E00FAE784F83F00F7E784F84000F4E730B50446002549B104291A
:203360000AD008290BD094F8410001280AD0012030BD94F83E00F8E794F83F00F5E794F8AD
:203380004000F2E7022071B104290FD0082910D084F8410081B1042913D0082957D00C2927
:2033A0005AD0012551E084F83E00F3E784F83F00F0E784F84000EDE72068C26842F00202EE
:2033C00003E02068C26842F00402C26001222068FFF7CDFB07492068074A884201D09042FF
:2033E00003D1436C43F4004343642068884223D00EE000000000014000040140000400402C
:2034000000080040000C00400040014000180040B0F1804F10D0FE4988420DD0FD498842F1
:203420000AD0FD49884207D0904205D0FB49884202D0FB49884204D1816801F00701062950
:2034400003D0016841F001010160284630BD2068C26842F00802B8E72068C26842F01002BE
:20346000B3E770B50D0004464FF0000607D0042D0AD0082D3BD00C2D3ED0012635E02068C4
:20348000C16821F0020103E02068C16821F00401C160002229462068FFF769FBE14941F254
:2034A000111220689310884202D0DF49884209D1016A114206D1016A194203D1416C21F465
:2034C000004141642068016A114206D1016A194203D1016821F00101016001208DB1042DE2
:2034E00012D0082D13D084F84100304670BD2068C16821F00801CBE72068C16821F0100122
:20350000C6E784F83E00F0E784F83F00EDE784F84000EAE72DE9F04117460D0004464FF017
:20352000000611D0042D12D0082D13D094F8410002287DD08DB1042D12D0082D13D094F840
:203540004100012812D0B4E094F83E00F0E794F83F00EDE794F84000EAE794F83E00F0E70D
:2035600094F83F00EDE794F84000EAE70FB9002B5FD102209DB1042D14D0082D15D084F8D1
:203580004100AA48AFF23B71AFF65B4285B1042D22D0082D69D00C2D7CD0012663E084F837
:2035A0003E00EEE784F83F00EBE784F84000E8E7D4F824C0CCF83C00606A0164606A3946B8
:2035C000C2642268606A3432FEF724FB88BB2068C16841F4007112E0D4F828C0CCF83C00B7
:2035E000A06A0164A06A3946C2642268A06A3832FEF710FBE8B92068C16841F48061C16026
:20360000012229462068FFF7B2FA86492068864A884201D0904203D1436C43F400434364B6
:203620002068884216D0B0F1804F13D0784901E01AE03EE088420DD0764988420AD076497C
:20364000884207D0904205D07449884202D07449884204D1816801F00701062903D0016820
:2036600041F0010101603046F6E4D4F82CC0CCF83C00E06A0164E06A3946C2642268E06A3C
:203680003C32FEF7C7FAA0B92068C16841F40061B5E7FFE7D4F830C0CCF83C00206B016438
:2036A000206B3946C2642268206B4032FEF7B2FA08B10120D0E42068C16841F480519EE7E8
:2036C00070B50D0004464FF0000607D0042D0CD0082D40D00C2D45D001263AE02068C168C0
:2036E00021F40071C160606A05E02068C16821F48061C160A06AFEF70BFB0022294620688E
:20370000FFF735FA474941F2111220689310884202D04549884209D1016A114206D1016AA5
:20372000194203D1416C21F4004141642068016A114206D1016A194203D1016821F001017F
:2037400001600120ADB1042D16D0082D17D084F84100304670BD2068C16821F40061C160AE
:20376000E06AC8E72068C16821F48051C160206BC1E784F83E00ECE784F83F00E9E784F8D1
:203780004000E6E7704710B5040003D094F83D0010B107E00120F8E4002084F83C0020461D
:2037A000FFF7F0FF022084F83D00211D2068FEF789FF012084F8460084F83E0084F83F00AE
:2037C00084F8400084F8410084F8420084F8430084F8440084F8450084F83D000020D4E4E1
:2037E000704710B50446022084F83D002068016A41F21112114207D1016A9210114203D180
:20380000016821F0010101602046FFF7E9FF0FE00004004000080040000C0040004001403F
:20382000001800400000014000040140872E0008002084F8460084F83E0084F83F0084F81A
:20384000400084F8410084F8420084F8430084F8440084F8450084F83D0084F83C0094E484
:2038600010B5044679B1042910D0082911D094F8410089B1042912D0082913D094F84520D5
:20388000012814D111E094F83E00F2E794F83F00EFE794F84000ECE794F84220F0E794F8F5
:2038A0004320EDE794F84420EAE7012A01D001206BE4022079B3042933D0082936D084F873
:2038C000410084F8450001222068FFF750F9FE492068884214D0B0F1804F11D0FB49884220
:2038E0000ED0FB4988420BD0FA49884208D0FA49884205D0F949884202D0F949884204D17B
:20390000816801F00701062903D0016841F001010160002039E4FFE784F83E0084F842002B
:20392000D1E784F83F0084F84300CCE784F8400084F84400C7E730B504460D46006800226C
:20394000FFF715F92068016A41F21112114207D1016A9210114203D1016821F001010160DE
:20396000012045B1042D09D0082D0AD004F8410F2071002030BD04F83E0FF9E704F83F0FBA
:20398000F6E704F8400FF3E730B50446002579B1042910D0082911D094F8410089B1042954
:2039A00012D0082913D094F84520012814D111E094F83E00F2E794F83F00EFE794F8400011
:2039C000ECE794F84220F0E794F84320EDE794F84420EAE7012A01D0012030BD022081B16D
:2039E000042913D0082916D084F8410084F84500B1B1042919D0082944D00C2947D00125F3
:203A00003EE084F83E0084F84200F1E784F83F0084F84300ECE784F8400084F84400E7E7A1
:203A20002068C26842F0020203E02068C26842F00402C26001222068FFF799F8A24920680A
:203A4000884214D0B0F1804F11D0A04988420ED09F4988420BD09F49884208D09E4988420E
:203A600005D09E49884202D09D49884204D1816801F00701062903D0016841F00101016088
:203A8000284630BD2068C26842F00802D1E72068C26842F01002CCE770B50D0004464FF0C1
:203AA000000607D0042D0AD0082D2BD00C2D2ED0012625E02068C16821F0020103E020685B
:203AC000C16821F00401C160002229462068FFF74EF82068016A41F21112114207D1016A52
:203AE0009210114203D1016821F001010160012095B1042D13D0082D14D004F8410F2071AF
:203B0000304670BD2068C16821F00801DBE72068C16821F01001D6E704F83E0FEFE704F8CA
:203B20003F0FECE704F8400FE9E7704710B5846B616A814201D101200DE0A16A814201D1D0
:203B4000022008E0E16A814201D1042003E0216B814201D1082020772046FFF7E6FF002033
:203B6000207718E6704710B5846B0121626A824207D12177C06938BB84F83E1084F842106F
:203B800022E0A26A824208D102222277C069D8B984F83F1084F8431016E0E26A824208D18A
:203BA00004222277C06978B984F8401084F844100AE0226B824207D108222277C06918B980
:203BC00084F8411084F845102046FFF7CBFF00202077E0E52DE9F0411F4694460D000446C8
:203BE0004FF0000613D0042D14D0082D15D094F84100ADB1042D16D0082D17D094F845102F
:203C0000022816D0022914D0012814D0C6E094F83E00EEE794F83F00EBE794F84000E8E7FB
:203C200094F84210ECE794F84310E9E794F84410E6E7022018E5012978D1BCF1000F01D157
:203C4000002F73D10220EDB3042D52D0082D55D084F8410084F84500012229462068FEF7F5
:203C600086FFAFF2FD00AFF23B111E4A5DB3042D5DD0082D71D00C2D6ED001261249206867
:203C8000884214D0B0F1804F11D0104988420ED00F4988420BD00F49884208D00E4988420C
:203CA00005D00E49884202D00D49884204D1816801F00701062903D0016841F00101016066
:203CC0003046D1E410E01EE0000001400004004000080040000C00400004014000400140EC
:203CE000001800403129000884F83E0084F84200B2E784F83F0084F84300ADE784F840002F
:203D000084F84400A8E7636AD863606A3B460164606AC264216862463431606AFDF77AFFDF
:203D200020B92068C16841F4007112E036E0A36AD863A06A3B460164A06AC26421686246B2
:203D40003831A06AFDF766FF40BB2068C16841F48061C16092E700E012E0E36AD863E06A97
:203D60003B460164E06AC264216862463C31E06AFDF750FF90B92068C16841F40061E8E763
:203D8000236BD863206B3B460164206BC264216862464031206BFDF73DFF08B1012063E4BA
:203DA0002068C16841F48051D3E770B5044600260D4600683246FEF7DAFE3DB1042D0CD002
:203DC000082D2BD00C2D30D0012625E02068C16821F40071C160606A05E02068C16821F481
:203DE0008061C160A06AFDF793FF2068016A41F21112114207D1016A9210114203D1016820
:203E000021F0010101600120B5B1042D17D0082D18D004F8410F2071304670BD2068C16841
:203E200021F40061C160E06ADDE72068C16821F48051C160206BD6E704F83E0FEBE704F8C6
:203E40003F0FE8E704F8400FE5E7704770B50D46040003D094F83D0010B107E0012070BD69
:203E6000002084F83C002046FFF7EFFF022084F83D00211D2068FEF725FC2068016821F067
:203E80000801016054F8460B016829430160012004F81F09E0752076E0762077A075002093
:203EA00070BD704710B50446022084F83D002068016A41F21112114207D1016A9210114260
:203EC00003D1016821F0010101602046FFF7E9FF002084F8460084F83E0084F83F0084F81A
:203EE000420084F8430084F83D0084F83C0052E410B590F83E30044690F83F2090F8421054
:203F000090F84300012B05D1012A03D1012901D1012801D001203EE4022084F83E0084F844
:203F20003F0084F8420084F84300012200212068FEF71DFE012204212068FEF718FEFA49CB
:203F40002068884202D0F949884203D1416C41F40041416400201EE410B5044600220068DA
:203F60001146FEF704FE002204212068FEF7FFFDED4A41F2111120688B10904202D0EB4AAB
:203F8000904209D1026A0A4206D1026A1A4203D1426C22F4004242642068026A0A4206D187
:203FA000016A194203D1016821F001010160012004F83E0F60702071607100200FE410B516
:203FC00090F83E30044690F83F2090F8421090F84300012B05D1012A03D1012901D10128EF
:203FE00001D001203BE4022084F83E0084F83F0084F8420084F843002068C16841F00201B7
:20400000C1602068C16841F00401C160012200212068FEF7ACFD012204212068FEF7A7FDA4
:20402000C1492068884202D0C049884203D1416C41F400414164002011E410B50446006857
:20404000C16821F00201C1602068C16821F00401C160002211462068FEF789FD0022042157
:204060002068FEF784FDB04941F2111220689310884202D0AD49884209D1016A114206D1FD
:20408000016A194203D1416C21F4004141642068016A114206D1016A194203D1016821F0AD
:2040A00001010160012004F83E0F60702071607100202FE470472DE9F0410D46040003D0A6
:2040C00094F83D0010B107E00120B3E5002084F83C002046FFF7EEFF022084F83D00206832
:2040E000816844F2070291438160211D2068FEF7E9FA206881688269066A2B68AF690B4380
:2041000040F203318A4342EA0722A968EF6911434FF6FC429143EA6841EA07210A4329697F
:204120002F6A090141EA073111436A686D6926F0AA0646EA05152A4383602068816154F867
:20414000460B0262012004F81F09E0752076E0762077A07500206DE5704710B5044602201E
:2041600084F83D002068016A41F21112114207D1016A9210114203D1016821F00101016001
:204180002046FFF7E9FF002084F8460084F83E0084F83F0084F8420084F8430084F83D004E
:2041A00084F83C00DDE470B590F83E50044690F83F3090F8422090F84300022621B104292E
:2041C0000BD0012D16D10FE0012D13D1012A11D184F83E6084F8426016E0012B0AD1012883
:2041E00008D184F83F600DE0012B03D1012A01D1012801D0012070BD84F83E6084F83F6064
:2042000084F8426084F8436091B1042904D0012200212068FEF7ABFC012204212068FEF7F1
:20422000A6FC2068016841F001010160002070BD012200212068F2E730B5044600680D00C1
:2042400023D0042D04D000221146FEF790FC206800220421FEF78BFC2068016A41F21112D8
:20426000114207D1016A9210114203D1016821F00101016001205DB1042D0CD004F83E0F7D
:20428000607020716071002030BD00221146E1E704F83E0F01E004F83F0F2071F3E770B59A
:2042A00090F83E50044690F83F3090F8422090F84300022621B104290BD0012D16D10FE0EC
:2042C000012D13D1012A11D184F83E6084F8426016E0012B0AD1012808D184F83F600DE080
:2042E000012B03D1012A01D1012801D0012070BD84F83E6084F83F6084F8426084F8436007
:20430000B1B1206804294FF001021BD00021FEF72EFC012204212068FEF729FC2068C1687E
:2043200041F00201C16010E00000014000040140012200212068FEF71AFC2068C16841F0F9
:20434000020106E00421FEF712FC2068C16841F00401C1602068016841F00101016000209F
:2043600070BD30B5044600680D002ED0042D4FF0000233D00021FEF7FAFB0022042120681F
:20438000FEF7F5FB2068C16821F00201C1602068C16821F00401C1602068016A41F2111221
:2043A000114207D1016A9210114203D1016821F0010101600120ADB1042D16D004F83E0FE2
:2043C000607020716071002030BD00221146FEF7CEFB2068C16821F00201DCE70421FEF7C5
:2043E000C6FBD4E704F83E0F01E004F83F0F2071E9E72DE9F04790F83E70089D1E46944606
:20440000044690F83F3090F8422090F843004FF0020861B104291CD0022F28D0022B26D0E6
:20442000022A24D0022822D0012F23D094E0022F1DD0022A1BD0012F60D1012A5ED1BCF10C
:20444000000F01D1002D59D184F83E8084F8428023E0022B0BD0022809D0012B7CD10128FC
:204460007AD10EB9002D77D184F83F8013E00220BDE8F087012B6FD1012A6DD101286BD10F
:20448000BCF1000F00D006B9C5BB84F83E8084F83F8084F8428084F84380AFF63512AFF6CE
:2044A0007317FE4899B1042929D09146626A80462B46C2F83C90616A62460F64616AC8647F
:2044C0002168606A3431FDF7A5FBB8B934E0616A2B46CA63616A62460F64616AC86421683C
:2044E000606A3431FDF796FB40B92068C16841F40071C16001220021206814E02CE0A16AC0
:204500002B46CA63A16A32460F64A16AC8642168A06A3831FDF77EFBF0B92068C16841F4D8
:204520008061C16029E0FEF722FB2068016841F00101016000209BE7A16A2B463246C1F88A
:204540003C90A06A0764A16AC1F84C802168A06A3831FDF75FFB08B1012089E72068C16845
:2045600041F40071C1602068C16841F48061C160012200212068FEF7FAFA01220421206807
:20458000D1E770B5044600680D0034D0042D4FF000023BD00021FEF7EAFA00220421206835
:2045A000FEF7E5FA2068C16821F40071C1602068C16821F48061C160606AFDF7A9FBA06A9B
:2045C000FDF7A6FB2068016A41F21112114207D1016A9210114203D1016821F001010160C1
:2045E0000120E5B1042D1DD004F83E0F607020716071002070BD00221146FEF7B8FA206876
:20460000C16821F40071C160606AD9E70421FEF7AEFA2068C16821F48061C160CFE704F804
:204620003E0F01E004F83F0F2071E2E77047704770B50446006801694FF00005C943890719
:2046400015D4C168C943890711D4E91E016101202077206880698007204602D0FFF782FA04
:2046600004E0FFF7E4FF2046FEF70CFC257720680169C943490717D4C168C943490713D4D9
:204680006FF004010161022020772068806910F4407F204602D0FFF765FA04E0FFF7C7FF3A
:2046A0002046FEF7EFFB257720680169C943090716D4C168C943090712D46FF0080101612C
:2046C000042020772068C0698007204602D0FFF749FA04E0FFF7ABFF2046FEF7D3FB25772D
:2046E00020680169C943C90617D4C168C943C90613D46FF010010161082020772068C069D5
:2047000010F4407F204602D0FFF72CFA04E0FFF78EFF2046FEF7B6FB257720680169C94375
:20472000C90708D1C168C943C90704D1891E0161204607F0E0FD20680169C943090609D4C9
:20474000C168C943090605D46FF080010161204601F0BEFF20680169C943490609D4C16893
:20476000C943490605D46FF0400101612046FFF75DFF20680169C94389060BD4C168C943AA
:20478000890607D46FF0200101612046BDE8704001F0E0BE70BD30B5026A22F480520262B9
:2047A000036A4268C4690D6824F4E64444EA05248D6823F4005343EA0533394DA84202D0A1
:2047C000384DA84204D14D6922F4804242EA85124260C46149680164036230BDF0B5026A04
:2047E00022F480720262026A4368C46922F4007224F073050C682B4E2C438D6842EA052251
:20480000274DA84201D0B04206D1CF6822F4006242EA072222F48062A84201D0B04207D11F
:204820004D6923F4405343EA05138D6943EA05134360C4614968C1630262F0BDF0B5026AD9
:2048400022F010020262026A436884690D6824F4E64444EA05248D6822F0200242EA051252
:204860000F4D104EA84201D0B04206D1CF6822F0800242EA071222F04002A84201D0B042E9
:2048800007D14D6923F4406343EA85038D6943EA8503436084614968816305E0312900080C
:2048A00000000140000401400262F0BDF0B5026A22F001020262026A43688469FB4E24F076
:2048C00073050C68FA4F2C4322F002058A682A43B04201D0B84205D122F00805CA682A436B
:2048E00022F00402B04201D0B84205D14D6923F440731D438B692B434360846149684163EE
:204900000262F0BD70B5044690F83C00002501280FD0012084F83C006AB1042A0FD0082AF3
:2049200011D00C2A13D00125002084F83C00284670BD022070BD2068FFF7B8FFF4E72068FD
:20494000FFF77CFFF0E72068FFF748FFECE72068FFF721FFE8E770B5046A24F001040462F8
:204960008469056AD14EB04214D0B0F1804F11D0D04EB0420ED0D04EB0420BD0CF4EB042AD
:2049800008D0CB4EB04205D0CD4EB04202D0CD4EB04203D124F00304144301E044F0010413
:2049A0001A0724F0F00444EA126225F00A0301F00A0119438261016270BD2DE9F0410546AD
:2049C00090F83C0000260C46012810D0012085F83C0072B1042A1CD0082A2CD00C2A50D0F7
:2049E0000126002085F83C003046BDE8F0810220FBE7D4E90012E3682868FFF7ACFF28684C
:204A0000816921F00C01816128688169A26811430FE0D4E90012E368286800F0DFFC2868E0
:204A2000816921F44061816128688169A26841EA02218161D5E72868D4E9002C277B016AFE
:204A400021F480710162C169036A21F0030141EA0C0121F0F00C39074FF420674CEA11614A
:204A600023F4206307EA02221A43C16102622868C16921F00C01C1612868C169A268114392
:204A800029E02868D4E90021E768036A23F480530362D0F81CC0036A2CF4407C4CEA01214F
:204AA00021F4704C4FF6FF7101EA07314FF4204741EA0C0123F4204307EA02321A43C1614D
:204AC00002622868C16921F44061C1612868C169A26841EA0221C16183E770B5044690F84B
:204AE0003C0000260D4601280FD0012084F83C006AB1042A1DD0082A2FD00C2A3FD001264D
:204B0000002084F83C00304670BD022070BD2068FFF7CCFE2068816941F00801816120686D
:204B2000816921F004018161206881692A69114311E02068FFF782FE2068816941F4006143
:204B400081612068816921F480618161206881692A6941EA02218161D2E72068FFF73EFE81
:204B60002068C16941F00801C1612068C16921F00401C1612068C1692A69114311E020682B
:204B8000FFF709FE2068C16941F40061C1612068C16921F48061C1612068C1692A6941EA74
:204BA0000221C161ACE72DE9F0411F46002688B00D460446BA4266D094F83C00012816D06D
:204BC0004FF0010884F83C80022084F83D002868009068680190A8680290E86803902869E3
:204BE0000590686906902AB1042A0FD107E0022008B0FAE669462068FFF758FE03E069461A
:204C00002068FFF71BFE1FB1042F16D0012633E01835206895E80E00FFF79DFE2068816977
:204C200021F00C0181612068816821F0700181602068816841F0500113E01835206895E868
:204C40000E0000F0CBFB2068816921F4406181612068816821F0700181602068816841F010
:204C6000600181602068816821F0070181602068816841F00601816084F83D80002084F828
:204C80003C003046B4E70120B2E7704710B5806BFFF7FBFF10BD10B5806B816BC96911B951
:204CA000012180F83D10FFF7C1FC10BD00000140000401400004004000080040000C00402F
:204CC00000400140001800402DE9F0479C460446DDE9087390F846001546894600260228F9
:204CE00041D094F84600012806D1BCF1000F00D1C7BB022084F84600F848F949F94AB5F56F
:204D0000006F3DD009DCB5F5807F11D0B5F5007F19D0B5F5806F09D127E0B5F5805F3AD089
:204D2000B5F5005F42D0B5F5804F4BD001265CE0226AED49D163226AEC491164216AC8647E
:204D40002268206A09E0D4F82480C8F83C10616A0A64616AC8642268606A61464C32FCF73E
:204D600059FF70B30120BDE8F087D4F82880C8F83C10A16A0A64A16AC8642268A06AECE7E4
:204D8000D4F82C80C8F83C10E16A0A64E16AC8642268E06AE1E7D4F83080C8F83C10216BAF
:204DA0000A64216BC8642268206BD6E7626BD049D163626BCF491164616BC8642268606B3A
:204DC000CBE70AE0A26BCC49D163A26BCB491164A16BC8642268A06BBFE7216849EA070015
:204DE00088642068C1682943C1603046BBE77CB5069C250A6D1CCDE90045FFF765FF7CBD58
:204E000070B500260D460446B1F5006F25D009DCB5F5807F12D0B5F5007F11D0B5F5806F8D
:204E200009D118E0B5F5805F19D0B5F5005F18D0B5F5804F17D00126304670BD206A00E0A9
:204E4000606AFCF765FF2068C168A943C160012084F84600F0E7A06AF3E7E06AF1E7206B28
:204E6000EFE7606BEDE7A06BEBE72DE9F0479C460446DDE9087390F8460015468946002608
:204E8000022841D094F84600012806D1BCF1000F00D1C7BB022084F8460090489849994A76
:204EA000B5F5006F3CD009DCB5F5807F11D0B5F5007F19D0B5F5806F09D126E0B5F5805F4A
:204EC00039D0B5F5005F41D0B5F5804F49D001265BE0226A8449D163226A84491164216AD5
:204EE000C8642168206A09E0D4F82480C8F83C10616A0A64616AC8642168606A62464C3166
:204F0000FCF788FEC0B301202DE7D4F82880C8F83C10A16A0A64A16AC8642168A06AEDE7D9
:204F2000D4F82C80C8F83C10E16A0A64E16AC8642168E06AE2E7D4F83080C8F83C10216B0D
:204F40000A64216BC8642168206BD7E7626B6849D163626B67491164616BC8642168606B69
:204F6000CCE7A26B6449D163A26B64491164A16BC8642168A06BC1E7FFE7216849EA070044
:204F800088642068C1682943C1603046EBE67CB5069C250A6D1CCDE90045FFF766FF7CBD86
:204FA00070B500260D460446B1F5006F25D009DCB5F5807F12D0B5F5007F11D0B5F5806FEC
:204FC00009D118E0B5F5805F19D0B5F5005F18D0B5F5804F17D00126304670BD206A00E008
:204FE000606AFCF795FE2068C168A943C160012084F84600F0E7A06AF3E7E06AF1E7206B58
:20500000EFE7606BEDE7A06BEBE790F83C20012A0CD0012200F83C2F0223437050F83C3C35
:205020005961427000210170084670470220704710B5846842EA032224F47F440A43224305
:20504000826032E62DE9F041044690F83C00002790460D4601280DD0012684F83C6002204A
:2050600084F83D0068684FF0000C28B1012809D0012757E00220B8E42068816821F47F411E
:2050800081600CE0E96829B184F83D6084F83CC00120AAE42B69AA682068FFF7C9FF5FEAA3
:2050A000080007D0042811D0082830D0B8F10C0F38D13DE0286800282068816902D041F0BD
:2050C000800101E021F0800181612BE0286800282068816918D041F40041F5E73129000829
:2050E000872E00084D2E000893290008872900085765000845650008974C00088D4C0008B2
:20510000673B00082D3B000821F40041DCE7286800282068C16902D041F0800101E021F07C
:205120008001C16184F83D6084F83CC038465CE4286800282068C16902D041F40041F0E7F4
:2051400021F40041EDE770B5044690F83C000025012817D0012684F83C60022084F83D00A3
:205160002068826822F0770222F47F4282600868502838D00DDC20284FD005DC90B31028DD
:2051800011D14AE0022070BD302846D040280AD13BE060282FD070280DD0B0F5805F03D095
:2051A000B0F5005F12D0012584F83D60002084F83C00284670BDCB68D1E901212068FFF7CA
:2051C00037FF2068816841F0770109E0CB68D1E901212068FFF72CFF2068816841F4804177
:2051E0008160E1E719E0CA684968206800F019F95021206806E0CA684968206800F022F94B
:205200006021206800F005F9CEE7CA684968206800F007F940212068F4E72268014610469C
:20522000F0E70068426822F080020A4342600020704770B50268002493684D6823F0700342
:205240001D430B6825F007052B4393604A6812F00F0F31D11211082A2ED2DFE802F02E2EBB
:205260002E2E0B2127040B69D1E902210068FFF7DFFE22E00A68052A10D00268156A136A06
:2052800023F00103136202689369096923F0F00343EA01119161006805620EE0012070BD68
:2052A0000A698968006800F0BCF806E00A698968006800F0C7F800E00124204670BD70B560
:2052C000044690F83C00012810D0012584F83C50022084F83D002046FFF7ABFF002138B19E
:2052E00084F83D5084F83C10012070BD022070BD2068C26822F04002C2602068C26822F450
:205300008042C26084F83D5084F83C10002070BD70B5044690F83C00012810D0012584F8AD
:205320003C50022084F83D002046FFF782FF002138B184F83D5084F83C10012070BD0220DE
:2053400070BD2068C26842F04002C2602068C26822F48042C26084F83D5084F83C1000203B
:2053600070BD0246002041B1042909D008290AD00C2901D11068006C70471068406B704719
:205380001068806B70471068C06B704790F83D00704790F83D00704790F83D00704790F89D
:2053A0003D00704790F83D00704790F83D007047007F704731B1042907D0082908D090F854
:2053C0004100704790F83E00704790F83F00704790F84000704790F84600704730B5046A83
:2053E00024F0100404628569046A25F4407545EA022222F470454FF6FF7202EA033224F0EC
:20540000A0032A43A02404EA011119438261016230BD826822F070020A4342F00701816053
:20542000704710B5046A036A23F001030362836923F0F00343EA021324F00A020A43836114
:20544000026232E410B5036A23F0100303628469036A24F4704444EA023223F0A00343EAAA
:2054600001118261016220E4704770B588B00D46040004D094F83D00002618B107E00120D1
:2054800008B070BD84F83C602046FFF7EDFF022084F83D00211D2068FDF714F9AB68296881
:2054A00003222068FFF757FA2068816921F00C018161206881696A681143816120684168DB
:2054C00041F0800141602068816821F0700181602068816841F0400181602068816821F05F
:2054E000070181602068816841F0040181607020059604960696039602960090E868019038
:2055000069462068FFF79AF92068416821F0700141602068416841F050014160012084F886
:20552000460084F83E0084F83F0084F8420084F8430084F83D000020A2E7704710B504460B
:20554000022084F83D002068016A41F21112114207D1016A9210114203D1016821F001014C
:2055600001602046FFF7E9FF002084F8460084F83E0084F83F0084F8420084F8430084F836
:205580003D0084F83C0010BD10B590F83E30044690F83F2090F8421090F84300012B05D1B6
:2055A000012A03D1012901D1012801D0012010BD022084F83E0084F83F0084F8420084F837
:2055C0004300012200212068FDF7D1FAFE492068884214D0B0F1804F11D0FC4988420ED042
:2055E000FB4988420BD0FB49884208D0FA49884205D0FA49884202D0F949884204D1816851
:2056000001F00701062903D0016841F001010160002010BD10B50446002200681146FDF7C1
:20562000A6FA2068016A41F21112114207D1016A9210114203D1016821F001010160012024
:2056400004F83E0F607020716071002010BD10B590F83E30044690F83F2090F8421090F894
:205660004300012B05D1012A03D1012901D1012801D0012010BD022084F83E0084F83F006B
:2056800084F8420084F843002068C16841F00201C160012200212068FDF769FACA492068C9
:2056A000884214D0B0F1804F11D0C84988420ED0C74988420BD0C749884208D0C6498842F2
:2056C00005D0C649884202D0C549884204D1816801F00701062903D0016841F001010160BC
:2056E000002010BD10B50446002200681146FDF73EFA2068C16821F00201C1602068016AC8
:2057000041F21112114207D1016A9210114203D1016821F001010160012004F83E0F6070BD
:2057200020716071002010BD70B50E4690F83E101546044690F84200022904D0022802D061
:20574000012902D020E0022070BD01281CD106B9D5B9022084F83E0084F8420001220021BD
:205760002068FDF704FA616A9E482B46C863616A9D4832460864616A9C48C8642168606AA0
:205780003431FCF747FA08B1012070BD2068C16841F40071C1608C492068884214D0B0F145
:2057A000804F11D0894988420ED0894988420BD08849884208D08849884205D087498842CB
:2057C00002D08749884204D1816801F00701062903D0016841F001010160002070BD10B595
:2057E0000446002200681146FDF7C1F92068C16821F40071C160606AFCF78AFA2068016A44
:2058000041F21112114207D1016A9210114203D1016821F001010160012004F83E0F2071FB
:20582000002010BD10B5044649B104290AD008290BD094F8450001280AD0012010BD94F811
:205840004200F8E794F84300F5E794F84400F2E7022091B3042934D0082935D084F8450045
:205860000422206800F049FF2068416C41F40041416455492068884214D0B0F1804F11D0CD
:20588000524988420ED0524988420BD05149884208D05149884205D05049884202D0504942
:2058A000884204D1816801F00701062903D0016841F001010160002010BDFFE784F84200D7
:2058C000CEE784F84300CBE784F84400C8E770B504460D460068002200F00FFF2068026AF5
:2058E00041F211131A4240F2444106D1026A0A4203D1426C22F4004242642068026A1A42DF
:2059000006D1026A0A4203D1016821F00101016001203DB1042D08D0082D09D084F8450060
:20592000002070BD84F84200FAE784F84300F7E784F84400F4E770B50446002549B1042988
:205940000AD008290BD094F8450001280AD0012070BD94F84200F8E794F84300F5E794F85B
:205960004400F2E7022061B104290DD008290ED084F8450071B1042911D008295BD001254A
:2059800057E084F84200F5E784F84300F2E784F84400EFE72068C26842F0020203E02068B5
:2059A000C26842F00402C2602068C26842F08002C2600422206800F0A0FE2068416C41F435
:2059C00000414164004913E0000001400004004000080040000C00400004014000400140C6
:2059E00000180040673B00082D3B0008312900082068884214D0B0F1804F11D0FE4988423B
:205A00000ED0FE4988420BD0FD49884208D0FD49884205D0FC49884202D0FC49884204D12A
:205A2000816801F00701062903D0016841F001010160284670BD2068C26842F00802B2E763
:205A400070B50D0004464FF0000605D0042D08D0082D3CD0012638E02068C16821F0020162
:205A600003E02068C16821F00401C16000222946206800F042FE2068026A40F244410A421B
:205A800003D1C26822F08002C2602068036A41F21112134206D1036A0B4203D1436C23F487
:205AA000004343642068036A134206D1026A0A4203D1016821F001010160012065B1042D0A
:205AC0000DD0082D0ED084F84500304670BD2068C16821F00801C8E784F84200F5E784F8E2
:205AE0004300F2E784F84400EFE710B5846B0121626A824203D1217784F842100EE0A26A5A
:205B0000824204D10220207784F8431006E0E26A824203D10420207784F844102046FCF7B6
:205B200006FF00202077C7E610B5846B0121626A824205D12177C069F8B984F842101CE084
:205B4000A26A824206D102222277C069A8B984F8431012E0E26A824206D104222277C069C7
:205B600058B984F8441008E0226B824205D108222277C06908B984F845102046FDF782F9E2
:205B80000020207798E62DE9F04117460D0004464FF0000611D0042D12D0082D13D094F8F8
:205BA000450002287ED08DB1042D12D0082D13D094F84500012812D098E094F84200F0E7C6
:205BC00094F84300EDE794F84400EAE794F84200F0E794F84300EDE794F84400EAE70FB9D0
:205BE000002B60D102207DB1042D10D0082D11D084F8450086488749874A75B1042D20D05B
:205C0000082D64D001265FE084F84200F2E784F84300EFE784F84400ECE7D4F824C0CCF882
:205C20003C00606A0164606A3946C2642268606A3432FBF7EFFFB0BB2068C16841F400712E
:205C400012E0D4F828C0CCF83C00A06A0164A06A3946C2642268A06A3832FBF7DBFF10BBEB
:205C60002068C16841F48061C16004222946206800F043FD2068416C41F4004141646749EF
:205C80002068884217D0B0F1804F14D05A49884211D05A4988420ED0594988420BD05949F5
:205CA000884201E011E021E005D05749884202D05649884204D1816801F00701062903D014
:205CC000016841F0010101603046BDE8F081D4F82CC0CCF83C00E06A0164E06A3946C264E5
:205CE0002268E06A3C32FBF795FF08B10120ECE72068C16841F40061B6E770B50D000446CF
:205D00004FF0000605D0042D0AD0082D39D0012635E02068C16821F40071C160606A05E0DD
:205D20002068C16821F48061C160A06AFBF7F0FF00222946206800F0E0FC2068016A41F2A5
:205D40001112114240F2444306D1016A194203D1416C21F4004141642068016A114206D1DE
:205D6000016A194203D1016821F001010160012075B1042D0FD0082D10D084F84500304609
:205D800070BD2068C16821F40061C160E06ACDE784F84200F3E784F84300F0E784F84400A2
:205DA000EDE710B5044649B104290AD008290BD094F8450001280AD001207DE594F84200CE
:205DC000F8E794F84300F5E794F84400F2E7022031B3042949D008294AD084F84500042212
:205DE000206800F08AFC2068416C41F4004141640A492068884214E0000400400008004030
:205E0000000C0040000401400040014000180040295B00084D2E0008EB5A0008000001407B
:205E200020E014D0B0F1804F11D0FE4988420ED0FD4988420BD0FD49884208D0FC4988425C
:205E400005D0FC49884202D0FB49884204D1816801F00701062903D0016841F001010160C8
:205E6000002029E584F84200B9E784F84300B6E784F84400B3E770B504460D460068002294
:205E800000F03BFC2068026A41F211131A4240F2444106D1026A0A4203D1426C22F4004214
:205EA00042642068026A1A4206D1026A0A4203D1016821F00101016001203DB1042D08D094
:205EC000082D09D084F84500002070BD84F84200FAE784F84300F7E784F84400F4E770B5AA
:205EE0000446002549B104290AD008290BD094F8450001280AD0012070BD94F84200F8E757
:205F000094F84300F5E794F84400F2E7022061B104290DD008290ED084F8450071B10429D0
:205F200011D0082946D0012542E084F84200F5E784F84300F2E784F84400EFE72068C26877
:205F400042F0020203E02068C26842F00402C2602068C26842F08002C2600422206800F0F6
:205F6000CCFB2068416C41F400414164B3492068884214D0B0F1804F11D0AA4988420ED0EC
:205F8000A94988420BD0A949884208D0A849884205D0A849884202D0A749884204D1816841
:205FA00001F00701062903D0016841F001010160284670BD2068C26842F00802C7E770B58D
:205FC0000D0004464FF0000605D0042D08D0082D3CD0012638E02068C16821F0020103E01F
:205FE0002068C16821F00401C16000222946206800F083FB2068026A40F244410A4203D167
:20600000C26822F08002C2602068036A41F21112134206D1036A0B4203D1436C23F4004392
:2060200043642068036A134206D1026A0A4203D1016821F001010160012065B1042D0DD0EA
:20604000082D0ED084F84500304670BD2068C16821F00801C8E784F84200F5E784F84300F6
:20606000F2E784F84400EFE72DE9F04117460D0004464FF0000611D0042D12D0082D13D065
:2060800094F8450002287DD08DB1042D12D0082D13D094F84500012812D097E094F842002E
:2060A000F0E794F84300EDE794F84400EAE794F84200F0E794F84300EDE794F84400EAE7DC
:2060C0000FB9002B5FD102207DB1042D10D0082D11D084F845005A485A495B4A75B1042D24
:2060E00020D0082D63D001265FE084F84200F2E784F84300EFE784F84400ECE7D4F824C073
:20610000CCF83C00606A0164606A3946C2642268606A3432FBF77EFDA8BB2068C16841F471
:20612000007112E0D4F828C0CCF83C00A06A0164A06A3946C2642268A06A3832FBF76AFDD3
:2061400008BB2068C16841F48061C16004222946206800F0D2FA2068416C41F4004141646B
:2061600036492068884217D0B0F1804F14D02D49884211D02C4988420ED02C4988420BD0BB
:206180002B4901E012E021E0884205D02949884202D02949884204D1816801F007010629E8
:2061A00003D0016841F00101016030468DE5D4F82CC0CCF83C00E06A0164E06A3946C264D1
:2061C0002268E06A3C32FBF725FD08B101207CE52068C16841F40061B7E770B50D000446CD
:2061E0004FF0000605D0042D0AD0082D4ED001264AE02068C16821F40071C160606A05E0CF
:206200002068C16821F48061C160A06AFBF780FD00222946206800F070FA2068016A41F2A4
:20622000111213E00004004000080040000C00400004014000400140001800400000014011
:20624000295B00084D2E0008EB5A0008114240F2444306D1016A194203D1416C21F4004162
:2062600041642068016A114206D1016A194203D1016821F001010160012075B1042D0FD08E
:20628000082D10D084F84500304670BD2068C16821F40061C160E06AB8E784F84200F3E7BC
:2062A00084F84300F0E784F84400EDE770B5044659B1002594F83E6094F83F3094F8422003
:2062C00094F84300012E08D101E00425F2E7012B03D1012A01D1012801D0012070BD02209D
:2062E00084F83E0084F83F0084F8420084F843000422206800F001FA012229462068FCF706
:2063000036FC2068416C41F400414164002070BD70B5044659B300250022206800F0EDF98E
:20632000002229462068FCF722FC2068026A41F211131A4240F2444106D1026A0A4203D172
:20634000426C22F4004242642068026A1A4206D1026A0A4203D1016821F0010101600120E0
:2063600004F83E0F607020716071002070BD0425D2E770B5044659B1002594F83E6094F81F
:206380003F3094F8422094F84300012E08D101E00425F2E7012B03D1012A01D1012801D0EF
:2063A000012070BD022084F83E0084F83F0084F8420084F843002068C26842F00202C26071
:2063C0002068C26842F00402C2600422206800F094F9012229462068FCF7C9FB2068416C80
:2063E00041F400414164002070BD70B50446A9B300252068C26822F00202C2602068C268A9
:2064000022F00402C2600022206800F076F9002229462068FCF7ABFB2068016A41F211133D
:20642000194240F2444206D1016A114203D1416C21F4004141642068016A194206D1016AA8
:20644000114203D1016821F001010160012004F83E0F607020716071002070BDFFE7042540
:20646000C7E710B590F83C30012B0AD0012380F83C3041B1102906D0202904D0302902D05E
:206480000AE0022099E403689C6824F070049C6003689C680C439C6001684B6843F0010373
:2064A0004B6001684B6823F004034B6001684B6813434B600168CA6822F02002CA600168D1
:2064C000CA6822F40052CA60002180F83C10084673E410B590F83C30012B0AD0012380F813
:2064E0003C3041B1102906D0202904D0302902D00AE0022061E403689C6824F070049C60A3
:2065000003689C680C439C6001684B6843F001034B6001684B6823F004034B6001684B68C6
:2065200013434B600168CA6822F40052CA600168CA6842F02002CA60002180F83C100846E1
:206540003BE4704710B5806B012180F83D10FFF7F8FF32E4704710B5806B012180F83D107D
:20656000FFF7F8FF29E410B590F83C30012B0AD0012380F83C3041B1102906D0202904D03C
:20658000302902D00AE0022017E403689C6824F070049C6003689C680C439C6001684B6800
:2065A00043F001034B6001684B6823F004034B6001684B6813434B60AFF26501426BD16313
:2065C000AFF27F01426B1164426B5249D1640168CA6822F02002CA600168CA6842F40052DF
:2065E000CA60002180F83C1008463AE470B590F83C20012A32D0012580F83C50022280F824
:206600003D2002685368946823F070060B6833435360414B02689A4214D0B2F1804F11D0CE
:206620003E4B9A420ED03E4B9A420BD03D4B9A4208D03D4B9A4205D03C4B9A4202D03C4BA6
:206640009A4204D1496824F080031943916080F83D50002180F83C100846FEE60220FCE6D4
:2066600010B590F83C20012A22D0012280F83C20CA688C6822F4407222434C6822F480625E
:2066800022430C6822F4006222430C6922F4805222434C6922F400522243C969002322F495
:2066A00080420A4301684A6480F83C300020E9E60220E7E690F83C20012A07D0012202687F
:2066C0001165002180F83C100846704702207047704790F83D00704731B1042907D0082937
:2066E00008D090F84500704790F84200704790F84300704790F84400704710B501F01F01E2
:206700000423046A8B409C430462036A8A4013430362B7E63129000800000140000400405E
:2067200000080040000C004000040140004001400018004070B5FE490024884204D1012057
:2067400000F0DFFA01204CE0B0F1804F07D0F949884209D1022000F0CAFA02205CE00120A1
:2067600000F0C5FA012057E0F349884204D1042000F0BDFA04204FE0F049884204D1082019
:2067800000F0B5FA082047E0ED49884204D1102000F0ADFA10203FE0EA49884204D120200E
:2067A00000F0A5FA202037E0E749884204D1022000F0A7FA022014E0E449884202D14FF44E
:2067C00080350AE0E249884202D14FF4003504E0E049884208D14FF48025284600F091FA59
:2067E000284600F094FA1BE0DB49884204D1402000F07DFA40200FE0D849884204D1802079
:2068000000F075FA802007E0D549884207D18515284600F06CFA284600F06EFA00E00124A9
:20682000204670BD002101804A1EC0E90112C16001617047F0B50268BD4CBE4DBE4EBF4F88
:20684000C14B4FF0804CA04209D0604507D0A84205D0B04203D0B84201D0984205D1D1F822
:2068600004E022F0700242EA0E02A0421BD0604519D0A84217D0B04215D0B84213D09842BA
:2068800011D0B24DA8420ED0B14DA8420BD0B14DA84208D0B04DA84205D0B04DA84202D058
:2068A000AF4DA84203D1CD6822F440722A4302608A68C2620A888262A04201D0984201D167
:2068C00009690163416941F0010141610020F0BD0021016041608160C1600161416181618B
:2068E000C1617047F0B501230024914D964E012908D010293BD0B1F5807F72D0B1F5805F5E
:206900006CD1A4E0016A21F001010162016A43688769D2F800C027F0730747EA0C07D2F8A6
