:020000040804EE
:10000000D0A10020310304088F870408A1550408FB
:100010006D8704089F0B0408293A050800000000BA
:100020000000000000000000000000007102040851
:100030000525040800000000CD020408192D05085C
:100040004B030408918F04084B0304084B03040876
:100050004B0304084B0304084B0304084B03040838
:100060004B0304084B0304084B0304084B03040828
:100070008D2004084B030408FD2004084B030408EA
:100080004B0304084B0304084B0304084B03040808
:100090004B0304084B0304084B0304084B030408F8
:1000A0004B0304084B0304085D2E05084B030408AA
:1000B0004B0304084B0304084B0304084B030408D8
:1000C0004B0304084B0304084B0304084B030408C8
:1000D0004B030408653705084B030408A5370508DA
:1000E0004B0304084B0304084B0304084B030408A8
:1000F0004B030408652E05084B0304084B03040852
:100100004B0304084B0304084B0304084B03040887
:100110004B0304084B0304084B030408612E050835
:1001200099210408D92204084B0304084B0304084E
:100130004B0304084B0304084B0304084B03040857
:100140004B0304084B0304084B0304084B03040847
:100150004B030408492304084B0304080538050829
:100160004B0304084B0304084B0304084B03040827
:100170004B0304084B0304084B0304080000000071
:100180004B0304084B03040800F002F800F061F888
:100190000AA090E8000C82448344AAF10107DA45E2
:1001A00001D100F056F8AFF2090EBAE80F0013F0D3
:1001B000010F18BFFB1A43F00103184738B00100C4
:1001C00058B001000A444FF0000C10F8013B13F046
:1001D000070408BF10F8014B1D1108BF10F8015BA0
:1001E000641E05D010F8016B641E01F8016BF9D193
:1001F00013F0080F1EBF10F8014BAD1C0C1B09D1EA
:100200006D1E58BF01F801CBFAD505E014F8016B5B
:1002100001F8016B6D1EF9D59142D6D370470000ED
:100220000023002400250026103A28BF78C1FBD8FF
:10023000520728BF30C148BF0B607047642900F0E7
:100240005981002070471FB519F08FFE1FBD10B5F2
:1002500010BD00F0E1FA1146FFF7F5FF15F034FD8F
:1002600000F0FFFA03B4FFF7F2FF03BC14F084FDC3
:100270002C4B19680868B0E8F04F80F30988BFF389
:100280006F8F4FF0000080F311887047000000006E
:1002900008480068006880F308884FF0000080F389
:1002A000148862B661B6BFF34F8FBFF36F8F00DF64
:1002B00000BF00BF08ED00E0DFF80C00016841F46A
:1002C00070010160704700BF88ED00E0EFF3098026
:1002D000BFF36F8F134B1A681EF0100F08BF20ED8D
:1002E000108A20E9F04F106009B44FF0500080F3FD
:1002F0001188BFF34F8FBFF36F8F17F0A1FA4FF044
:10030000000080F3118809BC19680868B0E8F04F54
:100310001EF0100F08BFB0EC108A80F30988BFF3FD
:100320006F8F704700000020EFF3058070470000DA
:100330000948804709480047FEE7FEE7FEE7FEE779
:10034000FEE7FEE7FEE7FEE7FEE7FEE704480549B5
:10035000054A064B704700003D2E05088901040838
:10036000D0790020D0A10020D0990020D099002081
:1003700053EA020C00F069802DE9F04B4FF00006C3
:10038000002B1FBFB3FA83F503FA05F424FA05F630
:100390005E4012BF1643B2FA82F502FA05F4C5F1C7
:1003A00020051EBF22FA05FC44EA0C04203556EA5B
:1003B000044C4FEA144418BF641C4FF000084FF07F
:1003C0000009904271EB030C39D3002919BFB1FA2F
:1003D00081F701FA07F6B0FA80F700FA07F6C7F1DD
:1003E00020071EBF20FA07FC46EA0C062037B6FBA2
:1003F000F4FCA7EB0507103F07F01F0BCBF120061D
:100400000CFA0BFB2CFA06F644BFB3460026202F4D
:10041000A4BF5E464FF0000B5BEA060C08BF4FF02E
:10042000010B19EB0B09ABFB027C48EB0608C01B68
:1004300006FB02CC0BFB03CC71EB0C01C1E70B46B6
:10044000024641464846BDE8F08B13B54FF0000028
:100450004FF00001AFF30080BDE81C407047000082
:100460000FB41CB5084B06AA7B446946009005985A
:1004700000F0B1F904460020694600F0BFF92046BB
:100480001CBC5DF814FB0000910300002DE9F04155
:100490000E460446002020622046E168884730B3BB
:1004A000252805D0D4E901219047206A401CF2E7B5
:1004B000E168204600278847050018D0A5F14100D3
:1004C000192802D820354FF40067324629462046C5
:1004D0002760FFF7B3FE40B1012804D0F61D26F0D7
:1004E00007060836D8E7361DD6E72846DAE7206A39
:1004F000BDE8F0812DE9F041064600241068752919
:10050000314616A510D0AFF30080002802DA404231
:1005100013A507E031688A0701D512A502E0490753
:1005200004D511A5012401E0AFF3008000210A22C7
:1005300006F1240709E0B0FBF2FCB0FBF2F302FB8A
:100540001C00303078541846491C0028F3D123464B
:100550002A463046BDE8F04100F0DEB80000000059
:100560002D0000002B00000020000000032A40F2B4
:10057000308010F0030C00F0158011F8013BBCF145
:10058000020F624498BF11F801CB00F8013B38BF5D
:1005900011F8013BA2F1040298BF00F801CB38BF6B
:1005A00000F8013B11F0030300F02580083AC0F089
:1005B000088051F8043B083A51F804CBA0E8081031
:1005C000F5E7121D5CBF51F8043B40F8043BAFF364
:1005D0000080D20724BF11F8013B11F801CB48BFBE
:1005E00011F8012B24BF00F8013B00F801CB48BFF4
:1005F00000F8012B704710B5203AC0F00B80B1E82D
:100600001850203AA0E81850B1E81850A0E8185047
:10061000BFF4F5AF5FEA027C24BFB1E81850A0E850
:10062000185044BF18C918C0BDE810405FEA827C6A
:1006300024BF51F8043B40F8043B08BF7047D20781
:1006400028BF31F8023B48BF11F8012B28BF20F822
:10065000023B48BF00F8012B704702F0FF0343EA5A
:10066000032242EA024200F002B84FF000020429DD
:10067000C0F0128010F0030C00F01B80CCF1040CD1
:10068000BCF1020F18BF00F8012BA8BF20F8022B05
:10069000A1EB0C0100F00DB85FEAC17C24BF00F8AB
:1006A000012B00F8012B48BF00F8012B70474FF0D9
:1006B000000200B5134694469646203922BFA0E8B2
:1006C0000C50A0E80C50B1F12001BFF4F7AF0907BE
:1006D00028BFA0E80C5048BF0CC05DF804EB8900AF
:1006E00028BF40F8042B08BF704748BF20F8022BF2
:1006F00011F0804F18BF00F8012B7047704770470A
:10070000704710B500F080F8006810BD10B50446C1
:1007100000F07AF8046010BD2DE9F0470D469946C7
:100720009246044600F124080168880604D5E06971
:1007300021F01001216000E00120A84201DD471BEB
:1007400000E00027A1697A1902EB0900081AA061EC
:100750002078C00602D42046AFF30080002608E0CF
:10076000D4E901211AF806009047206A401C761C43
:1007700020624E45F4DB2078C0060AD52046AFF350
:10078000008006E0D4E9012130209047206A401C17
:100790002062381EA7F10107F4DC07E0D4E901214B
:1007A00018F805009047206A401C2062281EA5F119
:1007B0000105F3DC2046AFF300802078000602D567
:1007C0000220BDE8F0870120FBE7000001694A1C18
:1007D00002610878704700B58FB0CDE90131002182
:1007E000059105497944CDE9031011466846FFF7A4
:1007F0004DFE0FB000BD0000E5FFFFFF0A6802F8E4
:10080000010B0A60704700000048704770790020B3
:1008100000487047707900207546FFF7F9FFAE4633
:1008200005006946534620F00700854618B020B5FC
:10083000FFF78CFDBDE820404FF000064FF00007A9
:100840004FF000084FF0000B21F00701AC46ACE878
:10085000C009ACE8C009ACE8C009ACE8C0098D46E5
:10086000704710B50446AFF300802046BDE8104045
:10087000FFF7F8BC30B14FF480510A04054B9A6180
:1008800000BF05E04FF48051024A916100BF00BFF4
:10089000704700000004024008B500200090B1201D
:1008A00000906A460121002000F00DF90020009020
:1008B0006A46012100F042F800200090C420009018
:1008C0006A460121084600F0FEF8002000906A46C2
:1008D0000121084600F032F800200090202000900E
:1008E0006A460121022000F0EEF8002000906A46DE
:1008F0000121022000F022F800F0D0F808BD10B568
:100900000120FFF7B7FF102000F082F8FF2000F071
:1009100037F80446FF2000F033F840EA0424FF20B3
:1009200000F02EF840EA042404F4000008B144F07A
:100930007F440020FFF79EFF204610BD2DE9F041C7
:1009400006460C4615460120FFF794FF0C2101EAEC
:100950008601621E02F00302114341F0200000F004
:100960000FF8002704E0FF2000F00AF801C57F1C03
:10097000A742F8DB0020FFF77DFFBDE8F081000013
:1009800010B5044600201E4908800CE01C48008871
:10099000401C1B4908800846008844F620618842B4
:1009A00001DD002010BD174806F093F90028EDD0B6
:1009B00013480088144908802146124806F08EF931
:1009C00000200F4908800CE00D480088401C0C49AD
:1009D00008800846008844F62061884201DD002036
:1009E000E0E7084806F070F90028EDD004480088D8
:1009F0000649088000BF0348007B00BFD2E7000023
:100A0000800200200038004086020020880200207A
:100A100010B5044600201D4908800BE01B480088E3
:100A2000401C1A4908800846008844F62061884224
:100A300000DD10BD164806F04CF90028EED0134832
:100A40000088144908802146114806F047F9002023
:100A50000E4908800BE00D480088401C0B490880B7
:100A60000846008844F62061884200DDE1E7084836
:100A700006F02AF90028EED00448008806490880CC
:100A800000BF0348007B00BFD3E7000080020020C6
:100A900000380040820200208402002010B50120AE
:100AA000FFF7E8FE0820FFF7B3FF0020FFF7E2FEA4
:100AB00010BD38B5044600946A460121002000F0BC
:100AC00002F8002038BD2DE9F04106460C461546D7
:100AD0000120FFF7CFFE0C2101EA8601621E02F021
:100AE0000302114341F04000FFF792FF002704E0AA
:100AF00015F8040BFFF78CFF7F1CA742F8DB0020E2
:100B0000FFF7B8FEBDE8F0812DE9FC4707460C462B
:100B100015461E464FF00009094830F814A0534608
:100B20001A2221463846CDE9005612F07CFD814656
:100B30002146484602F0CEF880464046BDE8FC8794
:100B40002CA205082DE9FC5F81460E461746984603
:100B50004FF0000A104830F81650B5F57A7F01DCE6
:100B6000C82D00DAC8253146484602F069FD044622
:100B700044B12B46022231464846CDE90078A047D1
:100B8000824601E04FF0090A3146504602F0A2F8D1
:100B900083465846BDE8FC9F2CA205087047FEE737
:100BA00010B50446002C00DC642401221102064822
:100BB00002F024FF204615F0CBF800224FF480719C
:100BC000014802F01BFF10BD000802402DE9F05F54
:100BD00082460D4616461C46DDE90AB74FF000086E
:100BE000C14601F0D9F8CDE000F0FCF810B10120C9
:100BF000BDE8F09F504608F0C9F84FF4C870754939
:100C00000968A1F8720028B272490968A1F85C006D
:100C100070480068A0F862406E4B1B68B3F8622011
:100C20006C4B1B68B3F95C106A4B1B68B3F872001D
:100C300014F01CFF6849096888806748006880884C
:100C400088B301F0A9F808F101001FFA80F8B8F1A3
:100C5000030FC8DB60480068408D0938062823D29E
:100C6000DFE800F003090F15221B04205949096829
:100C7000A1F8EC001EE0082056490968A1F8EC0034
:100C800018E00C2053490968A1F8EC0012E00E208E
:100C900050490968A1F8EC000CE010204D490968A2
:100CA000A1F8EC0006E008E004204A490968A1F830
:100CB000EC0000BF00BF01209AE71FB139B26420E9
:100CC0000AF0F0F9C82043490968A1F8720030B26F
:100CD00040490968A1F85C003E480068A0F86240FD
:100CE0003C4B1B68B3F862203A4B1B68B3F95C10AD
:100CF000384B1B68B3F8720001F006FC36490968EE
:100D0000888001F049F834480068808878B309F198
:100D100001001FFA80F9B9F1030F33DB2E48006898
:100D2000408D0938062823D2DFE800F003090F15AB
:100D3000221B052027490968A1F8EC001EE00920C4
:100D400024490968A1F8EC0018E00D202149096840
:100D5000A1F8EC0012E00F201E490968A1F8EC0090
:100D60000CE011201B490968A1F8EC0006E008E03E
:100D7000052018490968A1F8EC0000BF00BF012058
:100D800036E700E030E700BF01F006F84FF44270AC
:100D900007F0FCFF4FF4967110480AF083F900F059
:100DA000FBFF64210E480AF07DF9012007F0EEFFF9
:100DB00008480068B0F8D60018B14FF4805007F02A
:100DC000E5FF642106480AF06DF900F0E5FF002018
:100DD0000EE70000F4010020F801002050FBFFFFA7
:100DE00024FAFFFF10B52DED048B0024EDE0C4487C
:100DF0000068B0F8E2003230C2490968898B884245
:100E000001DC012100E00021BD480068B0F8DE00EF
:100E1000323881427DDCBA480068B0F8E4003230F4
:100E2000B8490968C98B884201DC012100E0002132
:100E3000B3480068B0F8E0003238814269DCB0485D
:100E40000068B0F8EA00012804D10020AC49096824
:100E5000A1F8EA00AA480068B0F8DC00B0F5FA6F23
:100E600071DDA7480068B0F8DA00B0F5FA6F6ADD06
:100E7000A4480068808BA2490968A1F8DA00A1485B
:100E80000068C08B9E490968A1F8DC009D4909688B
:100E9000888B18F07FFD41EC190B9FED9B0B53ECF9
:100EA000102B18F0C7FD41EC180B18F02FFD9449DA
:100EB0000968A1F8DE0093490968C88B18F06AFD3B
:100EC00041EC190B9FED900B53EC102B18F0B2FD79
:100ED00041EC180B18F01AFD89490968A1F8E000E7
:100EE00088490968888B18F055FD41EC190B9FED76
:100EF000880B53EC102B18F09DFD41EC180B18F0EB
:100F000005FD7F490968A1F8E2007E490968C88BA0
:100F100000E01CE018F03EFD41EC190B9FED7C0B4E
:100F200053EC102B18F086FD41EC180B18F0EEFC7A
:100F300073490968A1F8E400012071490968A1F822
:100F4000E60010F041FF0020BDEC048B10BD012035
:100F50006B490968A1F8EA00000307F017FFFA21BE
:100F60006D480AF09FF84FF4805001F075F810209A
:100F700007F00CFFC82140F214500AF093F810203B
:100F800001F06AF8012007F001FF5D480068B0F841
:100F9000D60018B14FF4805007F0F8FE4FF4967168
:100FA0005D480AF07FF8012001F056F854480068C7
:100FB000B0F8D60018B14FF4805001F04DF820463B
:100FC000611C8CB2052800DB00E010E700BF0024A4
:100FD00029E000F091FC4FF47A7014F0B9FE494812
:100FE0000068808BB0F5966F12DB46480068808BF6
:100FF000B0F5AF6F0CDC43480068C08BB0F5966F5E
:1010000006DB40480068C08BB0F5AF6F00DC0BE03A
:101010002046611C8CB2032805DB01203849096891
:10102000A1F8EC0090E7D4E700BF36480068808B59
:1010300033490968A1F8DA0032480068C08B3049AA
:101040000968A1F8DC002F490968888B18F0A2FC18
:1010500041EC190B9FED2C0B53EC102B18F0EAFC14
:1010600041EC180B18F052FC25490968A1F8DE0084
:1010700024490968C88B18F08DFC41EC190B9FEDD1
:10108000220B53EC102B18F0D5FC41EC180B18F088
:101090003DFC1B490968A1F8E0001A490968888BE2
:1010A00018F078FC41EC190B9FED190B53EC102B49
:1010B00018F0C0FC41EC180B18F028FC1049096826
:1010C000A1F8E2000F490968C88B18F063FC41ECF5
:1010D000190B9FED0F0B53EC102B18F0ABFC41ECF0
:1010E000180B18F013FC06490968A1F8E400012068
:1010F00003490968A1F8E60010F066FE002023E726
:10110000F4010020F8010020333333333333F33F4D
:10111000000000000000E03F24FAFFFF2DE9F0414D
:1011200005460E4600240027A0460820CC49096841
:1011300048854FF4FA7014F00BFE5FE1FFF752FEA2
:1011400010B10120BDE8F08100F026FEC54800681E
:10115000B0F8D840092C15D0142C13D0162C11D06F
:10116000192C0FD01A2C0DD01B2C0BD01C2C09D0F5
:101170001E2C07D0202C05D0232C03D0262C01D0E8
:101180002B2C0CD1802007F001FEB6480068B0F887
:10119000D400002873D0022007F0F8FD6FE0022C85
:1011A0000DD0042C0BD0222C09D0252C07D0272CB5
:1011B00005D0282C03D02C2C01D02D2C04D14FF499
:1011C000005007F0E3FD5AE0012C07D0052C05D0B4
:1011D000062C03D0072C01D0292C03D1022007F0C4
:1011E000D5FD4CE0032C0FD0082C0DD0132C0BD0C8
:1011F000152C09D0182C07D01F2C05D0212C03D07A
:10120000242C01D02A2C03D1102007F0BFFD36E09A
:10121000172C31D193480068B0F87A0030B101281A
:1012200010D0022813D0032819D114E0802007F031
:10123000ADFD8C480068B0F8D40010B1022007F072
:10124000A5FD18E04FF4005007F0A0FD13E00220C8
:1012500007F09CFD0FE0102007F098FD0BE08020C8
:1012600007F094FD7F480068B0F8D40010B1022068
:1012700007F08CFD00BF02E0022007F087FD012E81
:1012800016D178480068B0F8F00028B175480068B9
:10129000B0F8F000012805D1022072490968A1F8D0
:1012A000620015E001206F490968A1F862000FE0B3
:1012B0006C480068B0F8F00028B902206949096854
:1012C000A1F8620004E0012066490968A1F8620003
:1012D0004FF4C87063490968A1F872004FF41670A2
:1012E00060490968A1F85C005E4B1B68B3F8622096
:1012F0005C4B1B68B3F95C105A4B1B68B3F8720067
:1013000014F0B4FB56490968888055480068808805
:1013100060B100F041FD781C87B2032F6EDB032023
:1013200050490968A1F8EC0001200BE71421642062
:1013300009F0B8FE4FF4C8704A490968A1F8720074
:101340006FF0270047490968A1F85C00454B1B680E
:10135000B3F86220434B1B68B3F95C10414B1B6828
:10136000B3F8720001F0D0F83D4909688880FDB1FA
:101370000A216FF0630009F095FEC8203949096819
:10138000A1F872001E2037490968A1F85C00354BAE
:101390001B68B3F86220334B1B68B3F95C10314B08
:1013A0001B68B3F8720001F0A1F92D490968888023
:1013B00000F0F2FC2A4800688088F0B1012007F0B4
:1013C000E5FC28480068B0F8D60018B14FF480500A
:1013D00007F0DCFC4FF49671234809F063FE08F136
:1013E00001001FFA80F8B8F1030F07DB16201D4932
:1013F0000968A1F8EC000120A4E600E09EE600BF29
:1014000000F0CAFC4FF4427007F0C0FC4FF4967134
:10141000164809F047FE4FF4427000F01DFE6421AB
:10142000124809F03FFE012007F0B0FC0D480068AB
:10143000B0F8D60018B14FF4805007F0A7FC642133
:101440000A4809F02FFE00F0A7FC054800688088D4
:10145000032803D10020024909688880002071E632
:10146000F8010020F4010020E0FCFFFF50FBFFFF2B
:101470002DE9F041064600240027A046002508205B
:10148000FB49096848854FF4FA7014F061FCF9488B
:101490000068B0F8FE00052804DD0520F54909685C
:1014A000A1F8FE00F3480068B0F8F00001280AD166
:1014B000F0480068B0F8FE00012804DA0120ED4988
:1014C0000968A1F8FE000025DCE1D7E1FFF78AFCFE
:1014D00010B10120BDE8F08100F05EFCE548006835
:1014E000B0F8D840092C15D0142C13D0162C11D0DC
:1014F000192C0FD01A2C0DD01B2C0BD01C2C09D062
:101500001E2C07D0202C05D0232C03D0262C01D054
:101510002B2C28D1D7480068B0F8F00060B98020A3
:1015200007F034FCD3480068B0F8D400002802D09B
:10153000022007F02BFCF0E0CE480068B0F8FE0077
:10154000A8420CDD802007F021FCCA480068B0F8F2
:10155000D4000028EFD0022007F018FCDDE01020B6
:1015600007F014FCD9E0022C0DD0042C0BD0222C57
:1015700009D0252C07D0272C05D0282C03D02C2CC3
:1015800001D02D2C18D1BB480068B0F8F00020B96C
:101590004FF4005007F0FAFBBFE0B6480068B0F81F
:1015A000FE00A84204DD4FF4005007F0EFFBB4E06A
:1015B000102007F0EBFBB0E0012C07D0052C05D084
:1015C000062C03D0072C01D0292C16D1A94800687D
:1015D000B0F8F00018B9022007F0D8FB9DE0A5484C
:1015E0000068B0F8FE00A84203DD022007F0CEFB41
:1015F00093E0102007F0CAFB8FE0032C0FD0082CDB
:101600000DD0132C0BD0152C09D0182C07D01F2C63
:1016100005D0212C03D0242C01D02A2C03D110205A
:1016200007F0B4FB79E0172C74D192480068B0F849
:10163000F00088BB8F480068B0F87A0030B101280C
:1016400010D0022813D0032819D114E0802007F00D
:101650009DFB88480068B0F8D40010B1022007F064
:1016600095FB18E04FF4005007F090FB13E00220C8
:1016700007F08CFB0FE0102007F088FB0BE08020C8
:1016800007F084FB7B480068B0F8D40010B102205A
:1016900007F07CFB00BF40E0FFE776480068B0F849
:1016A000FE00A84232DD73480068B0F87A0030B11D
:1016B000012810D0022813D0032819D114E080206B
:1016C00007F064FB6B480068B0F8D40010B102204A
:1016D00007F05CFB18E04FF4005007F057FB13E0F5
:1016E000022007F053FB0FE0102007F04FFB0BE048
:1016F000802007F04BFB5F480068B0F8D40010B1C1
:10170000022007F043FB00BF07E003E0102007F0D2
:101710003DFB02E0022007F039FB02205549096831
:10172000A1F862004FF4C87052490968A1F872002C
:101730004FF496604F490968A1F85C004D4B1B6857
:10174000B3F862204B4B1B68B3F95C10494B1B6824
:10175000B3F8720014F08AF9454909688880444852
:101760000068808860B100F017FB781C87B2032FF7
:101770007DDB03203F490968A1F8EC000120A9E6C0
:101780000A21642009F08EFC4FF4C87039490968B9
:10179000A1F872006FF0270036490968A1F85C00D3
:1017A000344B1B68B3F86220324B1B68B3F95C10F2
:1017B000304B1B68B3F8720000F0A6FE2C49096894
:1017C0008880FEB10A216FF0630009F06BFCC8202D
:1017D00028490968A1F872001E2026490968A1F865
:1017E0005C00244B1B68B3F86220224B1B68B3F9E2
:1017F0005C10204B1B68B3F8720000F077FF1C49A7
:101800000968888000F0C8FA194800688088F0B13B
:10181000012007F0BBFA17480068B0F8D60018B1ED
:101820004FF4805007F0B2FA4FF49671124809F065
:1018300039FC08F101001FFA80F8B8F1030F1DDB35
:1018400016200C490968A1F8EC00012042E600F0DE
:10185000A3FA4FF4427007F099FA4FF496710648D4
:1018600009F020FC4FF4427000F0F6FB07E005E0C1
:10187000F8010020F401002024FAFFFF26E600BF53
:10188000681C85B2052DFFF620AE6421104809F0D2
:1018900009FC012007F07AFA0E480068B0F8D6007B
:1018A00018B14FF4805007F071FA6421084809F02C
:1018B000F9FB00F071FA00F06FFA074800688088C1
:1018C000032803D10020044909688880002001E62C
:1018D00024FAFFFFF4010020F801002010B50246B1
:1018E000002003E012F8014B231898B20B1EA1F15F
:1018F0000104E1B2F6D110BD10B500240020A249C8
:101900000880A2490880A24890ED000A10F016FB5A
:101910006FE04FF4FA7014F01BFA9E480068808B59
:101920009949088008460088B0F5966F2EDA9848E5
:1019300090ED000ADFED980AB4EEE00AF1EE10FA3D
:1019400001DD042010BD022C00D153E0904890ED41
:10195000000ADFED920A30EE200A80ED000AD0ED99
:10196000000AB2EE041AB6EE000A00EE810ABCEEDE
:10197000C00A10EE100A8A490968A1F8520084488A
:1019800090ED000A10F0DAFA012432E07E48008877
:10199000B0F5AF6F2CDD7E4890ED000AB5EEC00AC1
:1019A000F1EE10FA01D20420CCE7012C00D121E0A5
:1019B000774890ED000ADFED790A30EE600A80ED9D
:1019C000000AD0ED000AB2EE041AB6EE000A00EEEC
:1019D000810ABCEEC00A10EE100A71490968A1F82C
:1019E00052006B4890ED000A10F0A8FA022400E0C3
:1019F00000E08EE700BF4FF4FA7014F0A9F96548D3
:101A00000068808B60490880084600886549088026
:101A1000084600885F49096808845D48D0ED000ADF
:101A2000B2EE041AB6EE000A00EE810ABCEEC00A5D
:101A300010EE100A5A490968A1F852005A4890ED70
:101A4000000A10F0C7FA00246FE04FF4FA7014F0A7
:101A50007FF950480068C08B4C49088008460088D0
:101A6000B0F5966F2EDA504890ED000ADFED4A0A85
:101A7000B4EEE00AF1EE10FA01DD052062E7022C77
:101A800000D153E0484890ED000ADFED440A30EE03
:101A9000200A80ED000AD0ED000AB2EE041AB6EE7C
:101AA000000A00EE810ABCEEC00A10EE100A3C49A2
:101AB0000968A1F854003C4890ED000A10F08AFA39
:101AC000012432E031480088B0F5AF6F2CDD364894
:101AD00090ED000AB5EEC00AF1EE10FA01D2052031
:101AE00030E7012C00D121E02F4890ED000ADFED16
:101AF0002B0A30EE600A80ED000AD0ED000AB2EE4B
:101B0000041AB6EE000A00EE810ABCEEC00A10EE1E
:101B1000100A23490968A1F85400234890ED000AEF
:101B200010F058FA022400E000E08EE700BF4FF406
:101B3000FA7014F00DF917480068C08B134908803B
:101B4000084600881949088010480088114909682A
:101B500048841548D0ED000AB2EE041AB6EE000A29
:101B600000EE810ABCEEC00A10EE100A0C490968AA
:101B7000A1F85400064890ED000A10F0DFF910F0CB
:101B800023F90020DEE600002A0300202C030020B9
:101B900034030020F801002000000442CDCCCC3DED
:101BA000F40100202E030020380300203003002021
:101BB00010B5002400F0F0F850E0FFF713F908B179
:101BC000012010BD102007F0E1F84FF4FA7014F076
:101BD000BFF84FF4C87023490968A1F8720040F2B9
:101BE000145020490968A1F85C0002201D490968C9
:101BF000A1F862001B4B1B68B3F86220194B1B68ED
:101C0000B3F95C10174B1B68B3F8720013F02EFF8A
:101C10001549096888804FF4FA7014F099F8124851
:101C20000068808860B100F0B7F8601C84B2032CB3
:101C300014DB12200B490968A1F8EC000120C0E771
:101C400000F0AAF84FF4427007F0A0F84FF4967134
:101C5000064809F027FA00F09FF800E0ADE700BF62
:101C60000020AEE7F4010020F801002024FAFFFF75
:101C70002DE9F04180460C4615461E46002750E0EF
:101C8000FFF7B0F810B10120BDE8F081404607F041
:101C90007DF84FF4C87039490968A1F8720020B284
:101CA00036490968A1F85C0034480068A0F8625021
:101CB000324B1B68B3F86220304B1B68B3F95C10E1
:101CC0002E4B1B68B3F8720013F0D0FE2C49096844
:101CD000888000F061F82A480068808800B3781C8A
:101CE00087B2032F1DDB26480068408D092802D0EB
:101CF0000A280CD105E0062020490968A1F8EC006B
:101D00000BE00A201D490968A1F8EC0005E0062057
:101D10001A490968A1F8EC0000BF00BF0120B3E731
:101D200000E0ADE700BF012007F030F8134800687D
:101D3000B0F8D60018B14FF4805007F027F831B250
:101D4000104809F0AFF900F027F864210D4809F0B8
:101D5000A9F9012007F01AF808480068B0F8D60081
:101D600018B14FF4805007F011F86421054809F0CC
:101D700099F900F011F8002086E70000F401002036
:101D8000F801002050FBFFFF9FED020A80ED0A0AD8
:101D9000704700000000000010B5002024490968C9
:101DA00008602021234804F078FD1021214804F028
:101DB00074FD08211F4804F070FD04211D4804F043
:101DC0006CFD02211B4804F068FD0121194804F054
:101DD00064FD4FF40071184804F05FFD4FF480710A
:101DE000154804F05AFD8021134804F056FD4021A7
:101DF000114804F052FD20210F4804F04EFD10213F
:101E00000D4804F04AFD08210B4804F046FD8021EE
:101E10000A4804F042FD4021084804F03EFD20211C
:101E2000064804F03AFD1021044804F036FD10BDC8
:101E3000E80100200010024000040240000C0240B3
:101E400010B50C480068B0F84000132805DC0948BC
:101E50000068B0F84000012804DA1020054909683C
:101E6000A1F840000349096891F8400000F046F8E5
:101E700010BD0000F401002070B506460C46214656
:101E8000304601F0F7FB0546002009490968A1F832
:101E90007000642C03D1FFF77FFF012070BD0DB9E6
:101EA0000020FBE7284600F0D7F80120F6E7000005
:101EB000F401002010B500220B21012000F028FFC2
:101EC00010BD000010B50C480068B0F8420013289F
:101ED00005DC09480068B0F84200012804DA122045
:101EE00005490968A1F842000349096891F84200D0
:101EF00000F004F810BD0000F401002010B5044605
:101F00002E2C6FD2DFE804F092171C21262B3035DF
:101F10003B41464B50555A5F64696F74929292925E
:101F200092797D8185898D929292929292929292EB
:101F300092929292929120213E4804F0AEFC76E07B
:101F400010213C4804F0A9FC71E00821394804F054
:101F5000A4FC6CE00421374804F09FFC67E00221F8
:101F6000344804F09AFC62E00121324804F095FC08
:101F70005DE04FF40071304804F08FFC57E04FF4FF
:101F800080712D4804F089FC51E080212A4804F03A
:101F900084FC4CE04021284804F07FFC47E02021ED
:101FA000254804F07AFC42E01021234804F075FC37
:101FB0003DE00821204804F070FC38E080211F48F3
:101FC00004F06BFC33E040211C4804F066FC2EE07A
:101FD00020211A4804F061FC29E01021174804F080
:101FE0005CFC24E022E00821144804F056FC1EE0CA
:101FF0000421124804F051FC19E000201049087037
:1020000015E000200F49087011E000200E4908700B
:102010000DE000200D49087009E000200C4908700F
:1020200005E000200B49087001E000E000BF00BFA0
:1020300010BD00000010024000040240000C0240ED
:102040004C0200204D0200204E0200204F020020D2
:10205000500200205102002070B5044601250A48B4
:1020600000680068A04308490968086008E004F0B7
:10207000010010B1E8B2FFF741FF6408681C85B2A7
:10208000202DF4DD70BD0000E801002070B5184C73
:102090002068C0F3C020174D002807D0E014A060CE
:1020A00068782058697840F0010060502068C0F3DB
:1020B000402000281BD0104E00224FF480513046A3
:1020C00001F09CFC7015A06068782058697820F0B9
:1020D0000400605068782058697820F00100605052
:1020E0003046BDE870400122110301F087BC70BD8D
:1020F00000600240C0B00508000C024070B5224CE0
:102100002068C0F3C060214D002819D04FF0006056
:10211000A060E8782058E97820F010006050E87856
:102120002058E97820F001006050194800680C3010
:1021300050E8001F41F0400140E80012002AF7D1AA
:102140002068C0F3406000281CD0124E00224FF4DB
:102150008051304601F052FC4FF00070A060E878EA
:102160002058E97820F004006050E8782058E97899
:1021700020F0010060503046BDE87040012211039C
:1021800001F03CBC70BD000000600240C0B005081A
:102190006C020020000C024070B487B04649086809
:1021A000C0F3401000287DD020208860434800788C
:1021B000085800F40020424B00287AD041481860AB
:1021C0003E48D0F810C085694469C2688168C0691A
:1021D000009105903C49CDF808C004950394019204
:1021E000059E0098C1F808C04E610D61CC604A6040
:1021F000086000221B6802EB4200D1F800C033F8EF
:102200002040A444C1F800C003EB8000D1F804C012
:102210004488A444C1F804C08488D1F808C0A44408
:10222000C1F808C0C488D1F80CC0A444C1F80CC0DF
:102230000489D1F810C0A444C1F810C04089D1F875
:1022400014C060444861501CC2B2202AD3D308682D
:1022500000F110020A60486800F110054D608868BE
:1022600000F110048C60C86800F11003CB600869AD
:1022700010300861D1F814C00CF1100CC1F814C072
:10228000124E52093280690971806109B1805B097F
:10229000F380400930814FEA5C1070810C4800687F
:1022A000C28201E002E004E08183C38307B070BC16
:1022B00070470848186083E700640240C0B0050812
:1022C0007803002050710020F07800202C7100204D
:1022D000F8010020D072002070B5184C2068C0F3BF
:1022E000C020174D002807D0E014A060687820585F
:1022F000697840F0010060502068C0F34020002859
:102300001BD0104E00224FF48051304601F076FB76
:102310007015A06068782058697820F0040060503B
:1023200068782058697820F0010060503046BDE898
:1023300070400122110301F061BB70BD00640240D6
:10234000C0B00508000C024070B5224C6068C0F3B4
:102350004050214D002819D04FF40010E060A879BA
:102360002058A97920F010006050A8792058A97948
:1023700020F001006050194800680C3050E8001F40
:1023800041F0400140E80012002AF7D16068C0F334
:10239000C04000281CD0124E00224FF4805130461D
:1023A00001F02CFB4FF40020E060A8792058A979B7
:1023B00020F004006050A8792058A97920F001008D
:1023C00060503046BDE870400122110301F016BB99
:1023D00070BD000000640240C0B005088C020020FF
:1023E000000C024010B52DED068B84B00446206829
:1023F000019060680290A0680390208900EE100AA6
:10240000B8EE400AB0EE408A18EE100A17F03CFD14
:1024100041EC1A0B9FED330B53EC102B17F00AFB1A
:1024200041EC190B16F0F8FF08EE100A9FED2F0A89
:10243000C8EE000AB0EE608A18EE100A17F024FD0C
:1024400041EC1A0B9FED2A0B53EC102B17F032FCCA
:1024500041EC190B16F0E0FF08EE100A18EE100A16
:1024600017F012FD41EC1A0B9FED230B53EC102BD0
:1024700017F0B8F841EC190B16F0CEFF08EE100A71
:10248000B3EE090A38EE000AB0EE408A1C48006834
:1024900080ED1B8A6089400000EE100AB8EEC00A89
:1024A000B0EE408A18EE100A17F0EEFC41EC1A0B61
:1024B0009FED0C0B53EC102B17F0BCFA41EC190BF1
:1024C00016F0AAFF08EE100A9FED080AC8EE000AEF
:1024D000B0EE608A0A48006880ED1A8A04B0BDEC4C
:1024E000068B10BD6666666666660A4000F07F452C
:1024F00052B81E85EB51E83F7B14AE47E17A643F4A
:10250000F8010020704700002DE9F0412DED028B0D
:1025100005460E46144662490E8000206149087047
:102520006149088061490880614908606149087013
:10253000614908601E27601E84B224B95F48008884
:102540005F49088004E001245E4800885C490880F7
:102550005D480068B0F856005949098848434FF46F
:102560007A7190FBF1F05949088057480068B0F83B
:1025700058005349098848434FF47A7190FBF1F0B1
:102580005349088050480068B0F85A004C490988FF
:1025900048434FF47A7190FBF1F04E4908804FF4B4
:1025A0007A7013F0D5FB00BF0A2013F0D1FB4A4824
:1025B00000681C3030F81400484908803C48006826
:1025C000401C3B4908603B48007807283ED2DFE8C2
:1025D00000F0041C38393A3B3C00002033490880A5
:1025E00000EE105AB8EE400AF2EE040A80EE201A0D
:1025F000B0EE418AB0EE480A2948008800B210F0D7
:102600001FF801202B49087021E034480088314927
:102610000988884205DC01202249087010F066FA1A
:102620000EE02E48008829490988884205DB2B489E
:10263000008827490988884202DD00201B4908805C
:1026400005E004E003E002E001E000E000BF00BFBD
:1026500022480088224908802248007818B9114889
:1026600000780028A0D01F48007870B110F050FA10
:102670001D48006813F0F4FE4FF4FA7013F068FB85
:102680000220BDEC028BBDE8F0810648007828B13D
:102690004FF4FA7013F05CFB0020F2E70020F0E743
:1026A0002002002019020020FE010020000200206C
:1026B00014020020100200201C0200202E03002023
:1026C0000402002030030020F40100200C0200204E
:1026D0000A0200200E020020F8010020060200205D
:1026E00008020020FC010020540300202DE9F041E5
:1026F0002DED028B05460E46144665490E800020DE
:102700006449087064490880644908806449086025
:1027100064490870644908601E27601E84B224B9A9
:10272000624800886249088004E00124614800880A
:102730005F49088060480068B0F856005C49098825
:1027400048434FF47A7190FBF1F05C4908805A4895
:102750000068B0F858005649098848434FF47A7128
:1027600090FBF1F05649088053480068B0F85A00D1
:102770004F49098848434FF47A7190FBF1F0514971
:1027800008804FF47A7013F0E3FA00BF0A2013F0C8
:10279000DFFA4D4800681C3030F814004B490880BF
:1027A0003F480068401C3E4908603E4800780728C2
:1027B00044D2DFE800F0041C3E3F404142000020CC
:1027C0003649088000EE105AB8EE400AF2EE040ACC
:1027D00080EE201AB0EE418AB0EE480A2C480088FC
:1027E00000B20FF02DFF01202E49087027E0374876
:1027F000008834490988884205DD3448008830491A
:102800000988884205DB01202249087010F06EF922
:102810000EE02E48008829490988884205DB2B48AC
:10282000008827490988884202DD00201B4908806A
:1028300005E004E003E002E001E000E000BF00BFCB
:1028400022480088224908802248007818B9114897
:10285000007800289AD01F48007870B110F058F91D
:102860001D48006813F0FCFD4FF4FA7013F070FA85
:102870000320BDEC028BBDE8F0810648007828B14A
:102880004FF4FA7013F064FA0020F2E70020F0E74A
:102890002002002019020020FE010020000200207A
:1028A00014020020100200201C0200202E03002031
:1028B0000402002030030020F40100200C0200205C
:1028C0000A0200200E020020F8010020060200206B
:1028D00008020020FC010020540300202DE9F05FD5
:1028E00082468B4614461E460A9F4FF01209E34863
:1028F00004800020E2490870E2490880E24908802B
:10290000E2490860E2490870E24908608FB100EED0
:10291000104AF8EE400A9FEDE01A81EE200AF2EE2E
:10292000040A80EE201ABCEEC10A10EE100A85B22D
:1029300000E01E25012E06D14FF00008D748008880
:10294000D749088005E04FF00108D6480088D449EF
:102950000880D5480068B0F85600D1490988484336
:102960004FF47A7190FBF1F0D0490880CE480068AE
:10297000B0F85800CA49098848434FF47A7190FB6F
:10298000F1F0CB490880C8480068B0F85A00C44943
:10299000098848434FF47A7190FBF1F0C5490880EB
:1029A0005946504606F0ACF84FF47A7013F0D0F95F
:1029B00000BF0A2013F0CCF9BF4800681C3030F883
:1029C0001800BE490880B1480068401CAF49086043
:1029D000AF480078072871D2DFE800F00416799933
:1029E000CBEBF80009F0FF02A448018801200FF0AA
:1029F00081FE0120A64908700020A3490880B04943
:102A00000880A4490860FBE0AC480088A849098810
:102A1000884226DBAA480088002804DD0020A84957
:102A200008809C49086098480088401C96490880A6
:102A300098480068A1490988084496490860924866
:102A40000088A84242DB322013F082F910F04EF8E1
:102A50001FB106208E49087038E0012088490870AF
:102A600034E09648008891490988884227DC9448D8
:102A70000088401C9249088083480088002804DDB3
:102A800000208149088083490860824800688B499A
:102A9000098808447F49086089480088A84215DBF6
:102AA000322013F055F910F021F81FB106207849B3
:102AB00008700BE001207249087007E09FE00020D9
:102AC000714908807E4908807249086098E040F2A8
:102AD000DC5013F03DF969480088642803DA0A20C5
:102AE0006649088006E0654800880A2190FBF1F0FD
:102AF0006249088000206449088005225F480188F7
:102B000000200FF0F7FD03206149087078E06B4862
:102B1000008868490988884205DC01205849087006
:102B20000FF0E4FF24E06548008860490988884286
:102B30001BDB624800885E490988884215DC5248E0
:102B40000088401C5049088008460088A8420FDBD6
:102B50000FF0CCFF4FEA690900204A490880474836
:102B6000048000204A49087002E00020464908809D
:102B700046E040F2DC5013F0EBF84048008864284F
:102B800003DA0A203D49088006E03C4800880A2113
:102B900090FBF1F03949088000203B49088005226C
:102BA0003648018800200FF0A5FD0520384908703F
:102BB00026E0424800883F490988884204DD012018
:102BC0002F4908700FF092FF1AE0FFE72E480088A7
:102BD0003B49098808442F49096891FBF0F03749BF
:102BE00008800846008833490988884203DD0220AE
:102BF0002749087002E004202549087000E000BF62
:102C000000BF2E4800882F4908802F48007820B93F
:102C10001B48007800283FF4CCAE2B480078E8B180
:102C20000FF076FF2948006813F01AFC4FF47A7011
:102C300013F08EF859465046FFF71EF94FF4FA701C
:102C400013F086F812480078032805D1032E01D12D
:102C5000BDE8F09F0220FBE70120F9E70848007873
:102C600048B159465046FFF707F94FF4FA7013F090
:102C70006FF80020ECE70720EAE7000020020020C0
:102C800019020020FE010020000200201402002092
:102C9000100200201C02002000606A482E03002061
:102CA0000402002030030020F40100200C02002068
:102CB0000A0200200E020020F80100200602002077
:102CC0000202002008020020FC0100205403002022
:102CD00072B6704702460C2A15D2DFE802F00608E9
:102CE0000A0C0E1414141414101200207047084615
:102CF000FCE70320FAE70420F8E70846F6E7262079
:102D0000F4E72720F2E70020F0E772B6FEE70000C4
:102D10002DE9F04105460E46174600242046641C66
:102D200020490D5406222046641C0A54320A2046CB
:102D3000641C0A542046641C0E543A0A2046641C43
:102D40000A542046641C0F542146164814F008FA11
:102D500080462046641C134901F800804FEA18227F
:102D60002046641C0A5461010F48FDF77EFC0121D6
:102D70000E48006813F0F4F821460A4800F01EF9E6
:102D80004FF4FA710948006813F0EAF840B90648B0
:102D90000078A84202D10120BDE8F0810020FBE7C5
:102DA0000020F9E7546F0020546E00206C030020CF
:102DB00010B52549086800BF00BF00BF00F10C0234
:102DC00052E8002F42F0100100F10C0242E800131B
:102DD000002BF3D100BF00BF1B49086800BF00BF34
:102DE00000BF00F1140252E8002F42F0400100F150
:102DF000140242E80013002BF3D100BF00BF1248B9
:102E00000268121D0121114803F08EFC104A0121B5
:102E10000E4803F079FC4FF4807201210B4803F057
:102E20005BFC0121094803F00BFC0121074803F07A
:102E30001FFC0121054803F033FC0121054800680F
:102E400013F08EF810BD00008C02002000640240D8
:102E5000546E00206C0300202DE9F0470746884699
:102E600015461E4600242046641C35490F54032293
:102E70002046641C0A544FEA18222046641C0A5457
:102E80002046641C01F800802A0A2046641C0A546B
:102E90002046641C0D540621294814F061F981462E
:102EA0002046641C264901F800904FEA192220466A
:102EB000641C0A5461012348FDF7D7FB0121224815
:102EC000006813F04DF821461D4800F077F84FF4E4
:102ED000FA711D48006813F043F860BB1948007888
:102EE000B84225D11748C01C30F815906800C01CA6
:102EF00081B2144814F034F9484515D1002010E08F
:102F00004100C91C0F4A515C090226F8101036F81E
:102F100010204100091D0B4B595C114426F810107C
:102F2000401CA842ECDB09E04FF0FF30BDE8F08721
:102F30006FF00100FAE76FF00200F7E700BFF5E776
:102F4000546F0020546E00206C03002008B5164812
:102F50000121164A525C825822F00102134B5B5C3D
:102F6000C25000BF00BF114A525C0244526892B284
:102F7000C2F580700E4908800E48006813F08CF886
:102F80004FF480720121084803F0A6FB0A49086843
:102F90000168009100BF4168009100BF00BF01219E
:102FA000014803F07DFB08BD00640240A9A10508AB
:102FB000900200206C0300208C02002070B50446B3
:102FC0000D46224606211A4803F09EFB1948026866
:102FD000121D0621164803F0A7FB2A4606211448B5
:102FE00003F07AFB1349086800BF00BF00BF00F17F
:102FF000140252E8002F42F0800100F1140242E86E
:103000000013002BF3D100BF00BF00BF20200849F0
:10301000C86000BF0621064803F012FB06210448E1
:1030200003F026FB0621024803F03AFB70BD0000C6
:10303000006402408C02002062B6704710B5002286
:1030400001B909E0012901D10A0205E0022901D1F3
:103050000A0201E04FF440720E4B1B6823F44073E8
:103060000C4C236023461B681343236023461B68D4
:1030700023F0F803236023461B68022444EAC004BB
:103080002343044C236023461B6843F480332360AE
:1030900010BD0000103C02401C48006800F40070A5
:1030A000B0B11A48006820F400701849086000BFE9
:1030B0000846006840F4006008600846006820F494
:1030C0000060086000BF0846006840F400700860B7
:1030D0000E48006800F48060B0B10C48006820F42D
:1030E00080600A49086000BF0846006840F48050CC
:1030F00008600846006820F48050086000BF084659
:10310000006840F48060086070470000003C0240A6
:103110000A4A126822F44072084B1A601A46126872
:1031200042F004021A601A4612684FF4803343EAF0
:1031300000231A43014B1A6070470000103C024004
:10314000074A126822F44072054B1A601A46126848
:103150001A601A46126842F001021A600170704744
:10316000103C024010B50D49096821F440710B4C28
:1031700021602146096841F44071216021460968B7
:1031800041F001012160026000BF00BF00BFBFF33A
:103190006F8F00BF00BF00BF436010BD103C0240F6
:1031A000084A126822F44072064B1A601A461268E6
:1031B00042F480721A601A46126842F001021A60E4
:1031C00001807047103C0240084A126822F44072A5
:1031D000064B1A601A46126842F400721A601A46C8
:1031E000126842F001021A6001607047103C024010
:1031F0002348006800F0100040B12248C06940F048
:1032000010002049C86110201D4908601C48006852
:1032100000F0200040B11B48C06940F00800194987
:10322000C8612020164908601548006800F0400079
:1032300040B11448C06940F004001249C861402000
:103240000F4908600E48006800F0800040B10D484A
:10325000C06940F002000B49C8618020084908603D
:103260000748006800F0020040B10648C06940F01D
:1032700020000449C861022001490860704700002D
:103280000C3C02405079002070B504460025002017
:103290001449C86100F0B8FB054609E0601C38B16C
:1032A00024B100F0B1FB401BA04201D9032070BD46
:1032B0000D48006800F480300028EFD10A4800680B
:1032C00000F0010010B101200749086006480068BD
:1032D00000F0F20018B1FFF78BFF0120E7E70020B4
:1032E000E5E70000507900200C3C024070B5002456
:1032F00000255D480068B0F8D840092C15D0142C82
:1033000013D0162C11D0192C0FD01A2C0DD01B2C29
:103310000BD01C2C09D01E2C07D0202C05D0232C20
:1033200003D0262C01D02B2C12D14F480068B0F8C6
:10333000F450002D0BD0802005F028FD4A4800688D
:10334000B0F8D4000028F5D0022005F01FFD83E07E
:10335000022C0DD0042C0BD0222C09D0252C07D008
:10336000272C05D0282C03D02C2C01D02D2C0AD1B1
:103370003D480068B0F8F450002D6DD04FF4005077
:1033800005F004FD68E0012C07D0052C05D0062CC3
:1033900003D0072C01D0292C09D133480068B0F89C
:1033A000F250002D58D0022005F0F0FC54E0032C20
:1033B0000FD0082C0DD0132C0BD0152C09D0182CA5
:1033C00007D01F2C05D0212C03D0242C01D02A2C6F
:1033D00001D1002540E0172C36D123480068B0F811
:1033E000F45085B320480068B0F87A0030B1012865
:1033F00010D0022813D0032819D114E0802005F042
:10340000C5FC19480068B0F8D40010B1022005F0DE
:10341000BDFC18E04FF4005005F0B8FC13E00220AA
:1034200005F0B4FC0FE0102005F0B0FC0BE08020AC
:1034300005F0ACFC0C480068B0F8D40010B10220D4
:1034400005F0A4FC00BF07E007480068B0F8F250A0
:1034500015B1022005F09AFC1DB129B2034807F00E
:1034600021FEFEF799FC70BDF401002024FAFFFF55
:103470007CB505460024002001214FF496730322F9
:10348000CDE900101A21284610F0CDF8044600209E
:1034900001214FF496730322CDE900101A2128462A
:1034A00010F0C1F804461CB90321284605F01DFEA2
:1034B0003B212046FFF70EFC064630467CBD00004F
:1034C0002DE9F84380460E4617461D460024154850
:1034D00030F816903B464A46314640460095FFF785
:1034E000FDF90446C4B109234FF448720321404654
:1034F0000EF07EFC3B464A46314640460095FFF7BB
:10350000EDF90446022C01D0032C00D101241CB19A
:103510004FF4967012F01CFC31462046FFF7DAFBA0
:10352000BDE8F8832CA205087CB5054600243C20A4
:103530001F490968C8800EF0D3FC4FF4FA7012F0EE
:1035400007FC05201A49096808810EF0DDFC4FF4DC
:10355000FA7012F0FDFB15B9FEF7ACFC01E005F0C6
:1035600035FB4FF4FA7012F0F3FB0FF009F940F657
:10357000B83012F0EDFB684609F0DCFD0446002C83
:103580000ADBBDF800000A4909684887BDF8020057
:1035900007490968088705E0054909684C87044917
:1035A00009680C874FF4FA7012F0D2FB7CBD000062
:1035B000F401002070B505460E461446642012F052
:1035C000C7FB4FF4FA711B48006812F017FC80B972
:1035D0000020194948608860084604801548006842
:1035E00012F096FC50B115480068401C1349086061
:1035F00004E012480068401C1049086002E06420A2
:1036000012F0A6FB0C4800880028F8DC204604EBEA
:10361000D071094A526802EB6101B1FBF4F12980D3
:1036200004EBD071044A926802EB6101B1FBF4F142
:10363000318070BD6003002044710020E40200204E
:1036400030B502460B460A4850F8224000210BE0F4
:1036500004EB01100088984204D104EB0110856846
:10366000284630BD481CC1B21429F1DB0020F8E720
:103670005078002030B502460B460A4850F82240E8
:1036800000210BE004EB01100088984204D104EB08
:1036900001104568284630BD481CC1B21429F1DB31
:1036A0000020F8E75078002030B502460B460B4862
:1036B00050F8224000210CE004EB011000889842F1
:1036C00005D104EB0110808885B2284630BD481C26
:1036D000C1B21429F0DB0020F8E700005078002088
:1036E00010B52DED068B04469FED4A0BB0EE408AD7
:1036F000F0EE608A24B1012C56D0022C71D163E027
:1037000046480068C08A00EE100AB8EE400A10EE83
:10371000101A084616F0B8FB41EC180B3F4909682F
:10372000C88A16F037F941EC190B3C490968C88A78
:1037300016F030F941EC1A0B53EC192B16F07AF90C
:1037400041EC180B9FED360B53EC102B51EC180B82
:1037500016F070F941EC180B30490968C88A16F068
:1037600019F941EC1A0B9FED300B53EC102B16F0AE
:1037700061F941EC190B53EC182B15F07FFE41EC6D
:10378000180B9FED2B0B53EC102B51EC180B15F075
:1037900075FE41EC180B51EC180B15F03DFE264957
:1037A0000968C1F884002BE01C490968888A16F072
:1037B000F1F841EC180B51EC180B15F02DFE1E49D9
:1037C0000968C1F888001BE01448006890ED1B0AE6
:1037D00010EE101A084616F057FB41EC180B0FE0DC
:1037E000FFE70E480068C08A00EE100AB8EE400AF3
:1037F00010EE101A084616F047FB41EC180B00BFFC
:1038000000BF51EC180B15F007FE00EE100ABDECDE
:10381000068B10BD0000000000000000F801002031
:10382000000000805CEEB63EFA035C0E3FF1A73F5D
:10383000D8F50B76C3B6C93FF401002010B564205B
:1038400012F086FA04480068007800F0020008B11F
:10385000012010BD0020FCE7E40100202DE9F0412B
:1038600004460E460127002500BF2548007E01289A
:1038700002D10220BDE8F08101202149087600BF75
:103880004CF25030FFF700FD0746002F31D1401EAB
:103890003060206801280FD1207C6168FFF738FC78
:1038A0004CF25030FFF7F0FC07461648006820F055
:1038B0000400144908601AE0A56812E0217C28463B
:1038C000FFF7BCFB4CF25030FFF7DEFC07460D481B
:1038D000006820F0FA000B4908600FB1356005E080
:1038E0006D1CD4E902100844A842E7D800BFFFF7D6
:1038F000D3FB00BF00200249087600BF3846B9E775
:1039000050790020103C02400348006840F000401D
:103910000149086000207047103C02402DE9F04149
:1039200006460F4614461D464FF0010800BF1F48CB
:10393000007E012802D10220BDE8F08101201B4950
:10394000087600BF4CF25030FFF79EFC8046B8F17D
:10395000000F23D126B9E1B23846FFF7F1FB12E0A0
:10396000012E04D1A1B23846FFF71AFC0BE0022E5B
:1039700004D121463846FFF727FC04E022462B46B7
:103980003846FFF7EFFB4CF25030FFF77DFC8046E6
:103990000748006820F001000549086000BF0020CA
:1039A0000249087600BF4046C6E700005079002073
:1039B000103C024000200949096801F0004159B15A
:1039C0000749064A0C3A1160064911600349096823
:1039D00001F0004101B1012070470000103C02409D
:1039E00023016745AB89EFCD10B5426921EA020397
:1039F00002EA010443EA0443836110BD0AB1816114
:103A000001E00B04836170470148006870470000C3
:103A100080030020034800680349097808440149ED
:103A200008607047800300208803002010B50D480F
:103A3000006840F400700B4908600846006840F4D4
:103A4000806008600846006840F4807008600320C9
:103A500000F0BAF80F2000F007F800F041F800205D
:103A600010BD0000003C024010B588B001460022A5
:103A70002D2000F06BF82D2000F058F80024144899
:103A8000016841F480710160006800F48070019069
:103A900002A903A800F0BEF800F0E4F840000D49C8
:103AA000B0FBF1F0411E0D480B4A026040F2E732D4
:103AB000C26041600461846000F0E6F810B108B0B3
:103AC000012010BD054800F013F908B010BD00003A
:103AD0004038024040420F0000200040087900209A
:103AE00008B51048016841F480410160006800F4A5
:103AF000804000900C48016841F0805101600068EE
:103B000000F08050009000220F21901E00F01EF85F
:103B100000220521012000F019F8BDE8084001202D
:103B200000F004B8443802404038024001460846DC
:103B3000002809DB00F01F0301229A4043099B0083
:103B400003F1E023C3F8002100BF70472DE9F05FC7
:103B500080460D461646002710F050FE07463946AF
:103B60002A46334601F00700C0F1070ABAF1040FF4
:103B700002D94FF0040A01E0C0F1070AD14600F172
:103B8000040ABAF1070F02D24FF0000A01E0A0F1D7
:103B9000030AD4464FF0010A0AFA09FAAAF1010A07
:103BA0000AEA020A0AFA0CFA4FF0010B0BFA0CFBB4
:103BB000ABF1010B0BEA030B4AEA0B04214640462A
:103BC00010F024FEBDE8F09F00BF00F00702064B96
:103BD00019684FF6FF031940044B0B4343EA0221D7
:103BE000014B196000BF70470CED00E00000FA05C2
:103BF0007047000010B50648006800F4803028B116
:103C0000FFF7F6FF4FF480300149086010BD000057
:103C1000143C01400F2202600D4A126802F00302B8
:103C200042600B4A126802F0F0028260084A126891
:103C300002F4E052C260064A126802F46042D208FE
:103C40000261044A126802F007020A60704700002D
:103C500008380240003C02400148006870470000FC
:103C60007C03002000B5FFF7F7FF04490968C1F3A2
:103C70008221034A515CC84000BD00000838024060
:103C8000F0B005087047704710B504460CB9012024
:103C900010BD94F83D0028B9002084F83C0020466F
:103CA00000F025F8022084F83D00211D20680FF067
:103CB000E7F8012084F8460000BF84F83E000121A7
:103CC0003F200155402001554120015500BF00BF54
:103CD000012084F84200432001554420015545202D
:103CE000015500BF012084F83D000020D0E7704757
:103CF000014691F83D00012801D0012070470220C3
:103D000081F83D000868C06840F001000B68D86089
:103D10001A4B086898421BD00868B0F1804F17D042
:103D2000174B0868984213D0164B086898420FD07A
:103D3000154B086898420BD0144B0868984207D07E
:103D4000134B0868984203D0124B086898420CD174
:103D50000868806800F00702062A0CD0086800682E
:103D600040F001000B68186005E00868006840F04A
:103D700001000B6818600020C0E70000000001404F
:103D80000004004000080040000C00400004014016
:103D90000040014000180040704710B504462068FC
:103DA0000069C0F34000D8B12068C068C0F340008B
:103DB000B0B16FF00200216808610120207720680F
:103DC000806900F0030018B12046FFF7E5FF05E029
:103DD000204600F0ADF8204600F0ABF80020207738
:103DE00020680069C0F38000D8B12068C068C0F3C3
:103DF0008000B0B16FF004002168086102202077D4
:103E00002068806900F4407018B12046FFF7C4FFB5
:103E100005E0204600F08CF8204600F08AF80020EB
:103E2000207720680069C0F3C000D8B12068C0685E
:103E3000C0F3C000B0B16FF0080021680861042031
:103E400020772068C06900F0030018B12046FFF712
:103E5000A3FF05E0204600F06BF8204600F069F86B
:103E60000020207720680069C0F30010D8B12068D6
:103E7000C068C0F30010B0B16FF010002168086195
:103E8000082020772068C06900F4407018B12046EF
:103E9000FFF782FF05E0204600F04AF8204600F0D8
:103EA00048F8002020772068006900F0010058B130
:103EB0002068C06800F0010030B16FF00100216897
:103EC0000861204600F036F820680069C0F3C01091
:103ED00058B12068C068C0F3C01030B16FF08000E6
:103EE000216808612046FFF7CDFE20680069C0F315
:103EF000801058B12068C068C0F3801030B16FF0F6
:103F0000400021680861204600F01DF82068006923
:103F1000C0F3401058B12068C068C0F3401030B101
:103F20006FF02000216808612046FFF7ACFE10BD4D
:103F3000704770470068A0F18041B1F5005101D190
:103F4000FFF768BD704770472DE9F0412DED068BF6
:103F50000646B0EE408A0D4600270024642001F09A
:103F6000DDFACFE0FDF718FF012001F0CDF99FED5C
:103F7000760A01F015FA002D69D10A2001F0C4F982
:103F80009FED720A01F00CFA4FF47A7011F0E0FE26
:103F9000304601F0B9F918EE100A15F075FF41EC42
:103FA0001A0B9FED6B0B53EC102B15F067FA41ECDD
:103FB000190B15F031FA08EE900AB0EE680A01F01C
:103FC000EFF944F6206011F0C3FEFFF737FC60B153
:103FD000B1EE040A01F0E4F9601C84B2032CC0DBEA
:103FE0000120BDEC068BBDE8F081012001F08CF9C9
:103FF00018EE100A15F048FF41EC1A0B9FED560B16
:1040000053EC102B15F03AFA41EC190B15F004FAA9
:1040100008EE900AB0EE680A01F0C2F9032001F040
:1040200073F94FF4427004F0B1FE9FED4D0A01F0B8
:10403000B7F944F6206011F08BFEFDF7ADFE0120CC
:1040400001F062F99FED400A01F0AAF95BE0012D51
:1040500058D10A2001F058F99FED3C0A01F0A0F96F
:104060004FF47A7011F074FE304601F04DF9F7EE1E
:10407000000A78EE200AB0EE600A01F091F944F6E9
:10408000206011F065FEFFF7D9FB48B1B1EE040ADC
:1040900001F086F9601C84B2032C33DB0120A0E719
:1040A000012001F031F918EE100A15F0EDFE41EC97
:1040B0001A0B9FED2C0B53EC102B15F0DFF941EC94
:1040C000190B15F0A9F908EE900AB0EE680A01F094
:1040D00067F9032001F018F94FF4427004F056FE1E
:1040E0009FED220A01F05CF944F6206011F030FEE9
:1040F000FDF752FE012001F007F99FED130A01F0D0
:104100004FF900E02EE700BFC82001F007FA0A20AF
:1041100001F0FAF8B1EE020A01F042F9032001F0D1
:10412000F3F84FF4427004F031FEB6EE000A01F0ED
:1041300037F9012001F0E8F89FED030A01F030F9AA
:10414000FDF72AFE00204CE700000000CDCC4C3EDD
:10415000666666666666E63F333333333333E33F82
:104160009A99193FCDCCCCCCCCCCEC3F6666663F5F
:104170002DE9F0412DED068B80460D4600240026EA
:1041800000279FEDBC0AB0EE408A0820BA490968B2
:1041900048854FF4FA7011F0DBFDC82001F0BEF93C
:1041A00026E1FDF7F9FD0A2001F0AEF89FEDB30A14
:1041B00001F0F6F84FF47A7011F0CAFDB0480068CB
:1041C000B0F8D840092C15D0142C13D0162C11D0CF
:1041D000192C0FD01A2C0DD01B2C0BD01C2C09D055
:1041E0001E2C07D0202C05D0232C03D0262C01D048
:1041F0002B2C0ED1802004F0C9FDA1480068B0F836
:10420000D40010B1022004F0C1FD072001F07CF8B9
:104210008AE0022C0DD0042C0BD0222C09D0252CA6
:1042200007D0272C05D0282C03D02C2C01D02D2CE6
:1042300007D14FF4005004F0A9FD062001F064F806
:1042400072E0012C07D0052C05D0062C03D0072CDA
:1042500001D0292C06D1022004F098FD052001F0A0
:1042600053F861E0032C0FD0082C0DD0132C0BD089
:10427000152C09D0182C07D01F2C05D0212C03D0C9
:10428000242C01D02A2C06D1102004F07FFD04201C
:1042900001F03AF848E0172C40D179480068B0F8AE
:1042A0007A0030B1012813D0022819D0032825D173
:1042B0001DE0802004F06AFD71480068B0F8D40069
:1042C00010B1022004F062FD072001F01DF824E087
:1042D0004FF4005004F05AFD062001F015F81CE0E0
:1042E000022004F053FD052001F00EF815E0102027
:1042F00004F04CFD042001F007F80EE0802004F0EB
:1043000045FD5F480068B0F8D40010B1022004F009
:104310003DFD072000F0F8FF00BF05E0022004F09B
:1043200035FD052000F0F0FF012D16D1544800683E
:10433000B0F8F00028B152480068B0F8F000012849
:1043400005D102204E490968A1F8620015E001205C
:104350004B490968A1F862000FE049480068B0F8CD
:10436000F00028B9022046490968A1F8620004E07B
:10437000012043490968A1F8620041480068B0F88B
:104380006200022804D19FED3F0AB0EE408A11E09E
:10439000022D04DC9FED3C0AB0EE408A0AE0032DBA
:1043A00004D19FED3A0AB0EE408A03E09FED380A4F
:1043B000B0EE408AB0EE480A00F0F2FFFFF73EFA96
:1043C00098B1B1EE040A00F0EBFFFDF7E5FC701CBC
:1043D00086B2032E0CDB032029490968A1F8EC0002
:1043E0000120BDEC068BBDE8F081FDF7D5FC00E0B7
:1043F000D7E600BFFDF7D0FC012000F085FF18EEE6
:10440000100A15F041FD41EC1A0B9FED220B53EC05
:10441000102B15F04FFC41EC190B14F0FDFF08EECA
:10442000900AB0EE680A00F0BBFFFDF7B5FC4FF450
:10443000427004F0ABFC032000F066FF9FED170A0A
:1044400000F0AEFF4FF44270FDF706FEFDF7A4FC4E
:10445000012000F059FF9FED070A00F0A1FF064878
:1044600000688088032803D10020034909688880F8
:104470000020B6E700000000F8010020CDCC4C3E43
:10448000F4010020666696409A99D93F9A99993F1F
:10449000CDCC2C409A9999999999B93F9A99193FFD
:1044A00070B52DED028B0446B0EE408A00256420E5
:1044B00007F04CFB012007F037F89FED1E0A07F0CC
:1044C00021FA0A2007F030F8B7EE000A07F01AFACE
:1044D0004FF47A7011F03CFC032C03D14FF442707E
:1044E00004F054FC204607F01FF8642007F02EFB70
:1044F000F7EE000A78EE200AB0EE600A07F002FA42
:10450000012004F043FC0C480068B0F8D60018B154
:104510004FF4805004F03AFCC82007F017FB9FEDE1
:10452000050A07F0EFF9FDF737FC0020BDEC028B20
:1045300070BD000000000000F40100202DE9F041F2
:1045400004460D4600260427FDF726FC0A2000F04D
:10455000DBFE05B109274FF4FA7000F0DFFF0026FB
:1045600041E00A2000F0D0FE9FED230A00F018FF82
:104570004FF47A7011F0ECFB4FF4427004F006FC3B
:104580004FF4FA7011F0E4FB032000F0BDFEB1EE31
:10459000080A00F005FF4FF47A7011F0D9FB4FF4D0
:1045A0004270FDF759FD34B1022000F0ADFE01204C
:1045B00004F0ECFB06E0012000F0A6FE4FF4805072
:1045C00004F0E4FB9FED0D0A00F0EAFE0120FDF788
:1045D00043FD4FF48050FDF73FFD4FF47A7011F02A
:1045E000B7FB701C86B2BE42BBDBFDF7D5FB0120DA
:1045F00000F08AFEBDE8F081CDCC4C3E000000000A
:1046000070B500240026002593480068B0F8EE003D
:1046100008B9002070BD07209049096848854FF40B
:10462000FA7011F095FB0DE1FDF7B6FBC82000F024
:1046300075FF0A2000F068FE9FED890A00F0B0FEC9
:104640004FF47A7011F084FB83480068B0F8D840CA
:10465000092C15D0142C13D0162C11D0192C0FD0D6
:104660001A2C0DD01B2C0BD01C2C09D01E2C07D0C3
:10467000202C05D0232C03D0262C01D02B2C0ED19E
:10468000802004F083FB74480068B0F8D40010B1B7
:10469000022004F07BFB072000F036FE8AE0022CAB
:1046A0000DD0042C0BD0222C09D0252C07D0272C80
:1046B00005D0282C03D02C2C01D02D2C07D14FF461
:1046C000005004F063FB062000F01EFE72E0012C97
:1046D00007D0052C05D0062C03D0072C01D0292C9F
:1046E00006D1022004F052FB052000F00DFE61E02F
:1046F000032C0FD0082C0DD0132C0BD0152C09D067
:10470000182C07D01F2C05D0212C03D0242C01D02D
:104710002A2C06D1102004F039FB042000F0F4FD0F
:1047200048E0172C40D14C480068B0F87A0030B10E
:10473000012813D0022819D0032825D11DE080209C
:1047400004F024FB44480068B0F8D40010B1022003
:1047500004F01CFB072000F0D7FD24E04FF40050CC
:1047600004F014FB062000F0CFFD1CE0022004F052
:104770000DFB052000F0C8FD15E0102004F006FB3D
:10478000042000F0C1FD0EE0802004F0FFFA324862
:104790000068B0F8D40010B1022004F0F7FA072046
:1047A00000F0B2FD00BF05E0022004F0EFFA0520A2
:1047B00000F0AAFD9FED2B0A00F0F2FDFDF7ECFAE8
:1047C000FFF73CF870B1B1EE040A00F0E9FD701C8F
:1047D00086B2032E2DDB02201F490968A1F8EC00E8
:1047E000012017E7012004F0D1FA1B480068B0F857
:1047F000D60018B14FF4805004F0C8FA022000F03F
:1048000083FD4FF4967000F089FE9FED170A00F0CB
:10481000C7FD0120FDF720FC4FF48050FDF71CFC84
:10482000681C85B20C480068B0F8EE00A84200DCB5
:1048300009E0012000F068FDFDF7AEFA9FED0A0ADD
:1048400000F0AEFDF0E600BF012000F05DFDFDF7D9
:10485000A3FA0020DEE60000F4010020F8010020A9
:10486000CDCC4C3E66668640000000002DE9F0414C
:104870002DED028B0024002600270025A0460020F5
:10488000FC490968A1F8FC00FDF786FA0120FA4905
:1048900009684885002000F037FD4FF4FA6011F0F8
:1048A00057FA012000F030FD00F030FE9FEDF30AD2
:1048B00000F076FD4FF47A7011F04AFA0120ED49CC
:1048C0000968A1F8FC0000210846FFF737FE022026
:1048D000E8490968A1F8FC00012000F015FDC82096
:1048E00000F01CFE9FEDE50A00F05AFD002000F0EC
:1048F0000BFD00F003FEB0EE000A00F051FD00F0E9
:1049000005FE012000F000FD9FEDDC0A00F048FDEF
:10491000002000F0F9FC00F0F1FDB1EE040A00F017
:104920003FFD00F0F3FD012000F0EEFC9FEDD30A07
:1049300000F036FD0520CF490968A1F8FC00CD48FC
:104940000068B0F8D80001281ED1CA480068B0F845
:10495000E800C8B10420C849096848854FF4FA70D6
:1049600011F0F6F94FF4804004F010FAC1490968DB
:10497000B1F8E8104FF47A7201FB02F011F0E8F997
:104980004FF48040FDF768FB9FEDBD0AB948006811
:1049900080ED240A9FEDBB0AB648006880ED250A29
:1049A0009FEDB90AB348006880ED260A3220B1496C
:1049B0000968A1F86C00AF48006890F86C203C23AF
:1049C0000021084606F080F90620AA490968A1F8E6
:1049D000FC000720A7490968A1F8FC00FFF710FEBA
:1049E00020B10120BDEC028BBDE8F0810820A14977
:1049F0000968A1F8FC0003210020FFF7B9FB08B10A
:104A00000120EFE709209B490968A1F8FC000A2072
:104A100098490968A1F8FC0000F080FB08B101206A
:104A2000E0E70B2093490968A1F8FC000C209249AB
:104A3000096848854FF4FA7011F08AF90021B6EE42
:104A4000000A0820FFF780FA04460CB10120C9E7EC
:104A50000C2088490968A1F8FC000B2086490968E8
:104A600048854FF4FA7011F073F982480068B0F885
:104A7000F00038B90021B6EE000A0420FFF764FA0E
:104A8000044606E00021B1EE000A0420FFF75CFABC
:104A900004460CB10120A5E70D2076490968A1F86C
:104AA000FC000FF043FD04460CB101209AE70E20F4
:104AB00070490968A1F8FC006F49096848854FF4FE
:104AC000FA7011F045F90021B7EE000A0920FFF74E
:104AD0003BFA06460EB1012084E74FF47A7011F0DC
:104AE00037F9FDF759F90F2062490968A1F8FC0070
:104AF000C82000F013FD012000F006FC9FED5F0AC6
:104B000000F04EFC0A2000F0FFFBB1EE040A00F0BA
:104B100047FC032000F0F8FB4FF4427004F036F934
:104B20009FED560A00F03CFC012000F0EDFBFDF784
:104B300033F90F205049096848854FF4FA7011F095
:104B400007F900200DF0FEFF9FED500A494800686C
:104B500080ED240AB1EE080A4648006880ED250A77
:104B60009FED4B0A4348006880ED260A32204149F8
:104B70000968A1F86C0005203E490968A1F86E009B
:104B80003C480068B0F86E0003B23A48006890F8FC
:104B90006C200021084606F07BF88046B8F1000F33
:104BA00015D1102033490968A1F8FC00314800688C
:104BB00090ED210ADFED370AB4EEE00AF1EE10FACB
:104BC00005D217202C490968888001200AE71120A6
:104BD00028490968A1F8FC0000200DF0B3FF162059
:104BE0002549096848854FF4FA7011F0B1F84FF47F
:104BF000806004F0CBF80024002622E04FF47A70A5
:104C000011F0A6F8601C84B21A48006890ED210AE1
:104C1000DFED210AB4EEE00AF1EE10FA00D811E05F
:104C200040F2DC50844205DD212013490968888068
:104C30000120D7E600200DF085FF4FF4806004F0DE
:104C4000A5F8DBE700BF4FF4FA7011F081F84FF4DC
:104C50008060FDF701FA122006490968A1F8FC00FE
:104C600010200549096848854FF4FA7011F070F872
:104C700000242EE0F4010020F801002000000000D4
:104C80000000FA439A99993E0000FA4400806D456D
:104C90000000484400004442333347424FF47A70E6
:104CA00011F056F8601C84B2F948006890ED210AB2
:104CB000DFEDF80AB4EEE00AF1EE10FA00D809E0F0
:104CC000B4F5167F05DD2120F349096888800120AD
:104CD00088E6E3E700BF0025002408E0EE4800680E
:104CE000408B0544C82011F033F8601C84B20A2CB4
:104CF000F4DB0A20B5FBF0F5E74909680D861320BF
:104D0000E3490968A1F8FC001FED200AE0480068AB
:104D100080ED240AB1EE080ADD48006880ED250A1E
:104D20001FED250ADA48006880ED260A3220D849AE
:104D30000968A1F86C000020D5490968A1F86E0047
:104D4000D3480068B0F86E0003B2D148006890F80C
:104D50006C200021084605F0B7FF1120CE490968F4
:104D600048854FF4FA7010F0F3FF00210846FFF772
:104D7000E5FB1220C849096848854FF4FA7010F025
:104D8000E7FFFDF709F8C2480068B0F8F60020B167
:104D9000BF480068B0F8F67000E00127C82000F0B6
:104DA000BDFB012000F0B0FA1FED4C0A00F0F8FA4C
:104DB0004FF47A7010F0CCFF002630E0002422E09F
:104DC000102003F0E3FF042000F09EFAB1EE040A85
:104DD00000F0E6FAFCF7E0FF4FF4FA7010F0B8FFCD
:104DE0004FF4427003F0D2FF032000F08DFA1FED64
:104DF0005D0A00F0D5FAFCF7CFFF4FF4FA7010F01F
:104E0000A7FF601C84B2032CDADB00210846FFF701
:104E100095FB4FF4FA7010F09BFF701C86B2BE42F7
:104E2000CCDB14209A490968A1F8FC00FCF7B4FF18
:104E3000002422E0102003F0A9FF042000F064FA0F
:104E4000B1EE040A00F0ACFAFCF7A6FF4FF4FA70DA
:104E500010F07EFF4FF4427003F098FF032000F043
:104E600053FA1FED7A0A00F09BFAFCF795FF4FF416
:104E7000FA7010F06DFF601C84B2022CDADB132094
:104E80008549096848854FF4FA7010F061FF0020E9
:104E90000DF058FE1FED830A7D48006880ED240A5E
:104EA000B1EE080A7A48006880ED250A1FED880AED
:104EB0007748006880ED260A322075490968A1F814
:104EC0006C00002072490968A1F86E007048006803
:104ED000B0F86E0003B26E48006890F86C200021B4
:104EE000084605F0F1FE002400265BE04FF47A70DE
:104EF00010F02EFF601C84B26548006890ED210A16
:104F000010EE101A084614F0BFFF41EC180B9FED8D
:104F1000630B53EC102B14F08BFE00D843E0B4F578
:104F2000967F36DD5A48006890ED210AF3EE090AB3
:104F3000B4EEE00AF1EE10FA2BD256BB01261FEDBB
:104F4000AD0A5348006880ED240AB1EE080A5048C3
:104F5000006880ED250A1FEDB20A4D48006880ED1B
:104F6000260A32204A490968A1F86C000020484905
:104F70000968A1F86E0046480068B0F86E0003B2F8
:104F80004348006890F86C200021084605F09CFE1C
:104F900008E0B4F5167F05DD17203F4909688880D1
:104FA00001201FE5A2E700BF00200DF0CBFD4FF46C
:104FB000806003F0EBFE00240026152034490968C8
:104FC000A1F8FC0063E04FF47A7010F0C1FE601CA1
:104FD00084B22F48006890ED210A10EE101A08469E
:104FE00014F052FF41EC180B9FED2E0B53EC102BDD
:104FF00014F0E4FC00D859E0B4F5967F36DD24487F
:10500000006890ED210AF3EE090AB4EEE00AF1EE31
:1050100010FA2BD256BB01261FEDE40A1C4800688B
:1050200080ED240AB1EE080A1948006880ED250ACF
:105030001FEDE90A1648006880ED260A322014495F
:105040000968A1F86C00002011490968A1F86E00F8
:105050000F480068B0F86E0003B20D48006890F881
:105060006C200021084605F02FFE09E040F2DC50DC
:10507000844205DD21200849096888800120B1E4C7
:1050800000200DF05FFD4FF4806003F07FFE9AE793
:10509000F401002000004642F8010020333333338E
:1050A00033F348400000000000C0484000BF4FF408
:1050B0008060FCF7D1FF0A2005F01EF94FF47A70EA
:1050C00010F046FE0025002408E012480068408BDE
:1050D0000544C82010F03CFE601C84B20A2CF4DBAE
:1050E0000A20B5FBF0F50B4909684D8600200949F7
:1050F0000968888041F2883010F02AFE6420064951
:105100000968A1F8FC004FF4FA70FBF749FD002094
:1051100068E40000F8010020F401002070B50025CB
:10512000002476480068B0F8F00030B1012805D0BE
:10513000022805D0032807D104E000BF012505E0BF
:10514000022503E0032501E0012500BF00BF022D79
:1051500001D0032D66D109206949096848854FF4BB
:10516000FA7010F0F5FD0021B1EE000A0420FEF700
:10517000EBFE044634B10C2060490968A1F8EC004C
:10518000012070BDB0EE000A0320FFF789F9044644
:105190000CB10120F5E70A2000F0B6F8B6EE000ADF
:1051A00000F0FEF84FF47A7010F0D2FD4FF4427028
:1051B00003F0ECFD032000F0A7F8C82000F0AEF9E2
:1051C000B1EE040A00F0ECF8022000F09DF8012096
:1051D00003F0DCFD49480068B0F8D60018B14FF480
:1051E000805003F0D3FDB7EE080A00F0D9F8FCF7C1
:1051F000D3FD4FF47A7010F0ABFD4FF4427003F022
:10520000C5FD032000F080F8B7EE000A00F0C8F8F2
:105210004FF44270FCF720FFFCF7BEFD9FED390A0A
:1052200000F0BEF8032D66D10A203549096848858B
:105230004FF4FA7010F08CFD0021B6EE000A042045
:10524000FEF782FE044634B10C202C490968A1F80F
:10525000EC00012095E7B7EE080A0320FFF720F9DC
:1052600004460CB101208CE74FF4427003F08EFD30
:10527000032000F049F8C82000F050F9B1EE000A10
:1052800000F08EF84FF44270FCF7E6FE4FF4FA603F
:1052900010F05EFD012003F079FD18480068B0F8B9
:1052A000D60018B14FF4805003F070FD022000F0DA
:1052B0002BF8B7EE000A00F073F8FCF76DFD4FF421
:1052C0007A7010F045FD4FF4427003F05FFD03204B
:1052D00000F01AF8B6EE000A00F062F84FF44270DF
:1052E000FCF7BAFEFCF758FD002000F00DF89FED2A
:1052F000050A00F055F8002043E70000F401002003
:10530000F80100200000000070B5054600240026CA
:10531000C82010F01DFD0A2D00DD0A25212220469F
:10532000641C1C490A5405222046641C0A540022AD
:105330002046641C0A542046641C0D54FF2220465B
:10534000641C0A5400222046641C0A54A1B211486D
:1053500011F006FF06462046641C0E490E54321218
:105360002046641C0A54A1B20A4800F03DFB0A48DA
:105370000078A84207D00948007820B941F2883067
:1053800010F0E6FC03E04FF4FA7010F0E1FC024884
:10539000057070BD746F0020A2020020A3020020DF
:1053A00070B52DED028BB0EE408A0024002500265A
:1053B000C82010F0CDFCB1EE040AB4EEC08AF1EEC4
:1053C00010FA03DDB1EE040AB0EE408A2222204634
:1053D000641C45490A5406222046641C0A540022D3
:1053E0002046641C0A5414222046641C0A54B5EE5C
:1053F000C08AF1EE10FA07D1FF222046641C0A543D
:105400002046641C0A5410E09FED380A28EE000A7A
:10541000BCEEC00A10EE100A86B232122046641C9E
:1054200031490A542046641C0E54A1B22E4811F092
:1054300097FE05462046641C2B490D542A1220462F
:10544000641C0A54A1B2284800F0CEFA284890ED16
:10545000000AB4EE480AF1EE10FA3AD02548007876
:1054600088BB234890ED000AB5EEC00AF1EE10FAB1
:105470000FD1B1EE000AB4EEC08AF1EE10FA08DBEB
:105480001D480088C82804DB44F2506010F060FC1E
:1054900023E0174890ED000AB4EEC08AF1EE10FA4E
:1054A00008D215480088C82804DB43F6982010F07D
:1054B0004FFC12E010480088C82805DA44F6206046
:1054C00010F046FC09E004E043F6982010F040FCA0
:1054D00003E04FF4FA6010F03BFC054880ED008AD1
:1054E000BDEC028B70BD0000746F002000007A4498
:1054F0009C020020A3020020A00200201020010432
:10550000014A916100BF7047000C0240102002491F
:10551000886100BF70470000000C024070B505466E
:1055200000240026C82010F013FC4FF6FF7000EA9C
:10553000450540F2DC50854200DD054605B90125F0
:1055400022222046641C15490A5406222046641C67
:105550000A5400222046641C0A540C222046641C73
:105560000A542A122046641C0A542046641C0D5416
:10557000A1B20A4811F0F4FD06462046641C074912
:105580000E5432122046641C0A54A1B2034800F0A3
:105590002BFA4FF4FA7010F0DBFB70BD746F002033
:1055A000FEE7000070B52DED028BFD480068058810
:1055B0000B20FB490968A1F878001C2D76D012DC7D
:1055C000A5F10300192872D2DFE800F0F2F1717141
:1055D000717171333D47728AA6BCCEE0F3F4EEEDF3
:1055E000ECEBEAE9E8002C2D78D00DDCA5F11D00EC
:1055F0000F28E8D2DFE800F0EFEEEDECEBEAE95B34
:105600005B5B5B5BE8E7E600312D68D008DC2D2DA5
:105610007CD02E2D7BD02F2D7AD0302D47D1ABE1F1
:10562000322D76D06C2D75D06D2D74D06E2DF5D1B8
:1056300054E1DB490968486C03F0A8FB0020D84915
:1056400009680880C5E1D6490968486CFCF704FD83
:105650000020D34909680880BBE10DF047FA4FF4F8
:10566000967010F075FBCE480068B0F8720000EE3E
:10567000100AB8EE400AF2EE040A80EE201AB0EEEC
:10568000418AC7490968B1F95C00B0EE480A0CF0DC
:10569000D7FF02E0642010F05BFBC24800780028CE
:1056A000F8D00020BE490968088092E1CEE08FE181
:1056B000BB4B1B68B3F86220B94B1B68B3F95C1095
:1056C000B74B1B68B3F8720010F0D0F9B6490968FF
:1056D00088800020B249096808807AE12CE171E1F4
:1056E000AF4B1B68B3F86220AD4B1B68B3F95C107D
:1056F000AB4B1B68B3F87200FCF706FFAA490968B8
:1057000088800020A6490968088062E117E119E154
:1057100025E15AE1DBE0E0E0A14B1B68B3F8622031
:105720009F4B1B68B3F95C109D4B1B68B3F872006C
:10573000FCF7DCFF9C4909688880002098490968CB
:10574000088046E196480068B0F86E0003B29448BD
:10575000006890F86C200021084605F099FA0020B6
:105760008F490968088034E18D480068B0F86E0000
:1057700003B28B48006890F86C200021084605F0C1
:10578000A3FA002086490968088022E100200DF074
:10579000D9F900208249096808801AE14EE045E005
:1057A00041E028E024E020E01CE003E001E016E016
:1057B00012E000BF0A2004F09FFD0020784909682C
:1057C000088006E1A5E097E089E042E074E066E049
:1057D00059E04CE047E042E00CF082FBF9E00CF0CD
:1057E00093FBF6E003F0F2F9F3E0FCF763FBF0E083
:1057F0000CF0C6FFEDE06D4807F09CFC0446002C61
:105800000ADB6A4800886649096848876748408813
:1058100063490968088705E0614909684C87604960
:1058200009680C87D5E007F0D3FCD2E00CF008FD46
:105830005B490968C86A02F09AFFCAE00CF000FDF3
:1058400057490968086B02F09AFFC2E00DF0C2F9EF
:10585000BFE007F059FC544909688860B9E00120AD
:1058600053490870B5E0002051490870B1E00020AC
:1058700050490968087050490968087001204F496B
:1058800009680870A5E001204A49096808700020ED
:1058900049490968087049490968087099E0002079
:1058A00044490968087001204349096808700020CC
:1058B0004249096808708CE000203E490968087078
:1058C0003D49096808703D490968087081E0FCF7A6
:1058D00013F83549096888807BE07AE079E0012097
:1058E000374908702E49096891F8000105F01CFE3F
:1058F0000020334908706CE00120314908702849C4
:105900000968B1F8020106F021F900202C4908705D
:105910005FE001202A49087021480068B0F80401BE
:1059200000EE900AF8EE600AB0EE600A05F0EAFFB9
:105930000020234908704CE006F0ACF849E006F07E
:10594000D7F846E001201E4908701549096891F80A
:105950000001FFF7D9FC00201949087039E0012047
:10596000174908700E490968B1F80201FFF7D6FD22
:105970000020134908702CE00120114908700848E4
:105980000068B0F8040100EE900AF8EE600AB0EE8C
:10599000600AFFF705FD00200949087019E00000C2
:1059A000F4010020FC010020F8010020C0020020CA
:1059B0000C0300205C02002060020020580200203E
:1059C000A3020020FFF79AFD03E0FFF79FFD00E030
:1059D00000BF00BF0020034909680880BDEC028BAE
:1059E00070BD0000F401002070B504460D464FF470
:1059F00080601C49886100BF224603211A4800F0DC
:105A00007BFE1A480268121D0321174800F084FE2D
:105A10002A460321144800F04FFE1449086800BFCD
:105A200000BF00BF00F1140252E8002F42F08001D5
:105A300000F1140242E80013002BF3D100BF00BFB5
:105A400000BF20200849C86000BF0321064800F0BD
:105A5000EBFD0321044800F0FFFD0321024800F0A4
:105A600013FE70BD000C0240006002406C0200207A
:105A70000121014A118170477C70002008480949C2
:105A80000860094848600948886009484861094831
:105A900008610948C860094888610948C8617047B9
:105AA000F5AC0408A0780020EB930408CD9104081D
:105AB000D99A040879A3040815A90408DD960408F6
:105AC000BBA6040810B500242F222046641C1049F0
:105AD0000A5431222046641C0A5457222046641C72
