:020000040804EE
:1000000098A0002031030408CF5D0408D52F040810
:10001000CD5D04086F0C0408E5A80408000000008A
:100020000000000000000000000000007102040851
:100030005917040800000000CD020408E19B0408E1
:100040004B030408B16504084B0304084B03040880
:100050004B0304084B0304084B0304084B03040838
:100060004B0304084B0304084B0304084B03040828
:10007000E11204084B030408511304084B0304085D
:100080004B0304084B0304084B0304084B03040808
:100090004B0304084B0304084B0304084B030408F8
:1000A0004B0304084B030408259D04084B03040874
:1000B0004B0304084B0304084B0304084B030408D8
:1000C0004B0304084B0304084B0304084B030408C8
:1000D0004B03040821A604084B03040861A6040886
:1000E0004B0304084B0304084B0304084B030408A8
:1000F0004B0304082D9D04084B0304084B0304081C
:100100004B0304084B0304084B0304084B03040887
:100110004B0304084B0304084B030408299D0408FF
:10012000ED1304082D1504084B0304084B030408C1
:100130004B0304084B0304084B0304084B03040857
:100140004B0304084B0304084B0304084B03040847
:100150004B0304089D1504084B030408C1A60408BA
:100160004B0304084B0304084B0304084B03040827
:100170004B0304084B0304084B0304080000000071
:100180004B0304084B03040800F002F800F061F888
:100190000AA090E8000C82448344AAF10107DA45E2
:1001A00001D100F056F8AFF2090EBAE80F0013F0D3
:1001B000010F18BFFB1A43F0010318479411010007
:1001C000B41101000A444FF0000C10F8013B13F089
:1001D000070408BF10F8014B1D1108BF10F8015BA0
:1001E000641E05D010F8016B641E01F8016BF9D193
:1001F00013F0080F1EBF10F8014BAD1C0C1B09D1EA
:100200006D1E58BF01F801CBFAD505E014F8016B5B
:1002100001F8016B6D1EF9D59142D6D370470000ED
:100220000023002400250026103A28BF78C1FBD8FF
:10023000520728BF30C148BF0B607047642900F0E7
:100240002581002070471FB50FF04BFF1FBD10B573
:1002500010BD00F049FB1146FFF7F5FF0BF0F0FD74
:1002600000F067FB03B4FFF7F2FF03BC0AF043FEA4
:100270002C4B19680868B0E8F04F80F30988BFF389
:100280006F8F4FF0000080F311887047000000006E
:1002900008480068006880F308884FF0000080F389
:1002A000148862B661B6BFF34F8FBFF36F8F00DF64
:1002B00000BF00BF08ED00E0DFF80C00016841F46A
:1002C00070010160704700BF88ED00E0EFF3098026
:1002D000BFF36F8F134B1A681EF0100F08BF20ED8D
:1002E000108A20E9F04F106009B44FF0500080F3FD
:1002F0001188BFF34F8FBFF36F8F0DF05DFB4FF091
:10030000000080F3118809BC19680868B0E8F04F54
:100310001EF0100F08BFB0EC108A80F30988BFF3FD
:100320006F8F704700000020EFF3058070470000DA
:100330000948804709480047FEE7FEE7FEE7FEE779
:10034000FEE7FEE7FEE7FEE7FEE7FEE704480549B5
:10035000054A064B70470000059D04088901040802
:100360009878002098A00020989800209898002065
:1003700053EA020C00F069802DE9F04B4FF00006C3
:10038000002B1FBFB3FA83F503FA05F424FA05F630
:100390005E4012BF1643B2FA82F502FA05F4C5F1C7
:1003A00020051EBF22FA05FC44EA0C04203556EA5B
:1003B000044C4FEA144418BF641C4FF000084FF07F
:1003C0000009904271EB030C39D3002919BFB1FA2F
:1003D00081F701FA07F6B0FA80F700FA07F6C7F1DD
:1003E00020071EBF20FA07FC46EA0C062037B6FBA2
:1003F000F4FCA7EB0507103F07F01F0BCBF120061D
:100400000CFA0BFB2CFA06F644BFB3460026202F4D
:10041000A4BF5E464FF0000B5BEA060C08BF4FF02E
:10042000010B19EB0B09ABFB027C48EB0608C01B68
:1004300006FB02CC0BFB03CC71EB0C01C1E70B46B6
:10044000024641464846BDE8F08B13B54FF0000028
:100450004FF00001AFF30080BDE81C407047000082
:100460000FB41CB5084B06AA7B446946009005985A
:1004700000F0F7F904460020694600F005FA20462E
:100480001CBC5DF814FB00001D0400002DE9F041C8
:100490000646002410687529314616A510D0AFF322
:1004A0000080002802DA404213A507E031688A077D
:1004B00001D512A502E0490704D511A5012401E0E8
:1004C000AFF3008000210A2206F1240709E0B0FB07
:1004D000F2FCB0FBF2F302FB1C00303078541846FB
:1004E000491C0028F3D123462A463046BDE8F04196
:1004F00000F058B9000000002D0000002B000000A3
:10050000200000002DE9F05F894604464FF0000A04
:10051000DFF824B1FB44C0F820A02046E1688847FA
:1005200000287DD0252806D0D4E901219047206AF3
:10053000401C2062F1E700255F462046E1688847BD
:100540002028064607DB312E05D2B81910F8200CFA
:1005500008B10543F1E7A80701D525F00405C4F863
:100560001CA00027C4F818A02A2E09D030460AF093
:10057000BBFC38B304EB8708303EC8F8186019E0BC
:1005800059F8041B204604EB87029161E168884713
:10059000012F064618D1E069002820DA25F0200551
:1005A0001DE0D8F8180000EB800006EB4000303862
:1005B000C8F818002046E168884706460AF094FC0F
:1005C0000028EED1012F0AD02E2E08D12046E16856
:1005D00088477F1C0646022F45F02005C4DBA06932
:1005E000002803DA404245F00105A061E80701D088
:1005F00025F01005A6B1A6F14100192802D8203631
:1006000045F400654A463146204625604D46FFF7D1
:1006100015FE60B1012807D0ED1D25F0070000E0B0
:1006200007E000F1080978E705F1040975E73046AD
:100630007AE7206ABDE8F09F340D0100032A40F2FA
:10064000308010F0030C00F0158011F8013BBCF174
:10065000020F624498BF11F801CB00F8013B38BF8C
:1006600011F8013BA2F1040298BF00F801CB38BF9A
:1006700000F8013B11F0030300F02580083AC0F0B8
:10068000088051F8043B083A51F804CBA0E8081060
:10069000F5E7121D5CBF51F8043B40F8043BAFF393
:1006A0000080D20724BF11F8013B11F801CB48BFED
:1006B00011F8012B24BF00F8013B00F801CB48BF23
:1006C00000F8012B704710B5203AC0F00B80B1E85C
:1006D0001850203AA0E81850B1E81850A0E8185077
:1006E000BFF4F5AF5FEA027C24BFB1E81850A0E880
:1006F000185044BF18C918C0BDE810405FEA827C9A
:1007000024BF51F8043B40F8043B08BF7047D207B0
:1007100028BF31F8023B48BF11F8012B28BF20F851
:10072000023B48BF00F8012B704702F0FF0343EA89
:10073000032242EA024200F0AEB84FF0000200B5D8
:10074000134694469646203922BFA0E80C50A0E8F4
:100750000C50B1F12001BFF4F7AF090728BFA0E8A2
:100760000C5048BF0CC05DF804EB890028BF40F86E
:10077000042B08BF704748BF20F8022B11F0804FB0
:1007800018BF00F8012B704770477047704710B5CD
:1007900000F0A2F8006810BD10B5044600F09CF807
:1007A000046010BD2DE9F0470D4699469246044677
:1007B00000F124080168880604D5E06921F01001E1
:1007C000216000E00120A84201DD471B00E0002776
:1007D000A1697A1902EB0900081AA0612078C00605
:1007E00002D42046AFF30080002608E0D4E90121BE
:1007F0001AF806009047206A401C761C20624E457D
:10080000F4DB2078C0060AD52046AFF3008006E06E
:10081000D4E9012130209047206A401C2062381E14
:10082000A7F10107F4DC07E0D4E9012118F805007D
:100830009047206A401C2062281EA5F10105F3DCC8
:100840002046AFF300802078000602D50220BDE8E4
:10085000F0870120FBE7000001694A1C026108786B
:10086000704700B58FB0CDE90131002105910549F0
:100870007944CDE9031011466846FFF743FE0FB0F7
:1008800000BD0000E5FFFFFF0A6802F8010B0A60E7
:1008900070474FF000020429C0F0128010F0030CE2
:1008A0003FF44DAFCCF1040CBCF1020F18BF00F8BF
:1008B000012BA8BF20F8022BA1EB0C01FFF73FBFD3
:1008C0005FEAC17C24BF00F8012B00F8012B48BF70
:1008D00000F8012B7047000000487047387800206E
:1008E00000487047387800207546FFF7F9FFAE469C
:1008F00005006946534620F00700854618B020B52C
:10090000FFF724FDBDE820404FF000064FF0000740
:100910004FF000084FF0000B21F00701AC46ACE8A7
:10092000C009ACE8C009ACE8C009ACE8C0098D4614
:10093000704710B50446AFF300802046BDE8104074
:10094000FFF790BC30B14FF480510A04054B9A6117
:1009500000BF05E04FF48051024A916100BF00BF23
:10096000704700000004024008B500200090B1204C
:1009700000906A460121002000F00DF9002000904F
:100980006A46012100F042F800200090C420009047
:100990006A460121084600F0FEF8002000906A46F1
:1009A0000121084600F032F800200090202000903D
:1009B0006A460121022000F0EEF8002000906A460D
:1009C0000121022000F022F800F0D0F808BD10B597
:1009D0000120FFF7B7FF102000F082F8FF2000F0A1
:1009E00037F80446FF2000F033F840EA0424FF20E3
:1009F00000F02EF840EA042404F4000008B144F0AA
:100A00007F440020FFF79EFF204610BD2DE9F041F6
:100A100006460C4615460120FFF794FF0C2101EA1B
:100A20008601621E02F00302114341F0200000F033
:100A30000FF8002704E0FF2000F00AF801C57F1C32
:100A4000A742F8DB0020FFF77DFFBDE8F081000042
:100A500010B5044600201E4908800CE01C480088A0
:100A6000401C1B4908800846008844F620618842E3
:100A700001DD002010BD174803F09BFD0028EDD0DC
:100A800013480088144908802146124803F096FD57
:100A900000200F4908800CE00D480088401C0C49DC
:100AA00008800846008844F62061884201DD002065
:100AB000E0E7084803F078FD0028EDD004480088FE
:100AC0000649088000BF0348007B00BFD2E7000052
:100AD00080020020003800408602002088020020AA
:100AE00010B5044600201D4908800BE01B48008813
:100AF000401C1A4908800846008844F62061884254
:100B000000DD10BD164803F054FD0028EED0134858
:100B10000088144908802146114803F04FFD002049
:100B20000E4908800BE00D480088401C0B490880E6
:100B30000846008844F62061884200DDE1E7084865
:100B400003F032FD0028EED00448008806490880F2
:100B500000BF0348007B00BFD3E7000080020020F5
:100B600000380040820200208402002010B50120DD
:100B7000FFF7E8FE0820FFF7B3FF0020FFF7E2FED3
:100B800010BD38B5044600946A460121002000F0EB
:100B900002F8002038BD2DE9F04106460C46154606
:100BA0000120FFF7CFFE0C2101EA8601621E02F050
:100BB0000302114341F04000FFF792FF002704E0D9
:100BC00015F8040BFFF78CFF7F1CA742F8DB002011
:100BD000FFF7B8FEBDE8F0812DE9FC4707460C465B
:100BE00015461E464FF00009094830F814A0534638
:100BF0001A2221463846CDE9005609F072FC81469A
:100C00002146484601F0ADF980464046BDE8FC87E4
:100C1000A40305082DE9FC5F81460E461746984659
:100C20004FF0000A104830F81650B5F57A7F01DC15
:100C3000C82D00DAC8253146484601F02BFD044690
:100C400044B12B46022231464846CDE90078A04700
:100C5000824601E04FF0090A3146504601F081F921
:100C600083465846BDE8FC9FA40305087047FEE78D
:100C70002DE9F04105460E46174600242046641C27
:100C80001C490D5406222046641C0A54320A204690
:100C9000641C0A542046641C0E543A0A2046641C04
:100CA0000A542046641C0F54214612480CF014FBD1
:100CB00080462046641C0F4901F800804FEA182244
:100CC0002046641C0A5421460A4802F0FBFA4FF4FD
:100CD000FA71094800680BF0FFF940B9074800783D
:100CE000A84202D10120BDE8F0810020FBE70020EE
:100CF000F9E70000B064002050030020B06300203A
:100D000010B500240020A2490880A2490880A2480A
:100D100090ED000A08F010F96FE04FF4FA700BF054
:100D2000D3F89E480068808B99490880084600885F
:100D3000B0F5966F2EDA984890ED000ADFED980A2C
:100D4000B4EEE00AF1EE10FA01DD042010BD022C31
:100D500000D153E0904890ED000ADFED920A30EEAA
:100D6000200A80ED000AD0ED000AB2EE041AB6EEB9
:100D7000000A00EE810ABCEEC00A10EE100A8A4991
:100D80000968A1F85200844890ED000A08F0D4F8F0
:100D9000012432E07E480088B0F5AF6F2CDD7E483C
:100DA00090ED000AB5EEC00AF1EE10FA01D204206F
:100DB000CCE7012C00D121E0774890ED000ADFED6F
:100DC000790A30EE600A80ED000AD0ED000AB2EE3A
:100DD000041AB6EE000A00EE810ABCEEC00A10EE5C
:100DE000100A71490968A1F852006B4890ED000A99
:100DF00008F0A2F8022400E000E08EE700BF4FF404
:100E0000FA700BF061F865480068808B60490880D3
:100E10000846008865490880084600885F490968D7
:100E200008845D48D0ED000AB2EE041AB6EE000A5E
:100E300000EE810ABCEEC00A10EE100A5A49096899
:100E4000A1F852005A4890ED000A08F0C1F80024B9
:100E50006FE04FF4FA700BF037F850480068C08B21
:100E60004C49088008460088B0F5966F2EDA504845
:100E700090ED000ADFED4A0AB4EEE00AF1EE10FA56
:100E800001DD052062E7022C00D153E0484890EDD7
:100E9000000ADFED440A30EE200A80ED000AD0EDB2
:100EA000000AB2EE041AB6EE000A00EE810ABCEEA9
:100EB000C00A10EE100A3C490968A1F854003C48E9
:100EC00090ED000A08F084F8012432E031480088EF
:100ED000B0F5AF6F2CDD364890ED000AB5EEC00AD4
:100EE000F1EE10FA01D2052030E7012C00D121E00B
:100EF0002F4890ED000ADFED2B0A30EE600A80EDFE
:100F0000000AD0ED000AB2EE041AB6EE000A00EEB6
:100F1000810ABCEEC00A10EE100A23490968A1F844
:100F20005400234890ED000A08F052F8022400E033
:100F300000E08EE700BF4FF4FA700AF0C5FF1748D3
:100F40000068C08B1349088008460088194908804A
:100F5000104800881149096848841548D0ED000AF6
:100F6000B2EE041AB6EE000A00EE810ABCEEC00A28
:100F700010EE100A0C490968A1F85400064890EDDB
:100F8000000A07F0D9FF07F01DFF0020DEE6000091
:100F90000E0300201003002018030020F801002099
:100FA00000000442CDCCCC3DF4010020120300200F
:100FB0001C030020140300209FED020A80ED0A0AA2
:100FC000704700000000000000B59FED020A07F026
:100FD00025FF00BD0000000010B500202849096869
:100FE00008602021274803F0C9F81021254803F0A4
:100FF000C5F80821234803F0C1F80421214803F073
:10100000BDF802211F4803F0B9F801211D4803F083
:10101000B5F84FF400711C4803F0B0F84FF480713C
:10102000194803F0ABF88021174803F0A7F84021D6
:10103000154803F0A3F82021134803F09FF810216E
:10104000114803F09BF808210F4803F097F880211E
:101050000E4803F093F840210C4803F08FF820214C
:101060000A4803F08BF81021084803F087F808219C
:10107000064803F083F80421044803F07FF810BD0C
:10108000E80100200010024000040240000C024071
:1010900010B50C480068B0F84000132805DC09487A
:1010A0000068B0F84000012804DA102005490968FA
:1010B000A1F840000349096891F8400000F046F8A3
:1010C00010BD0000F401002070B506460C46214614
:1010D000304601F02DFB0546002009490968A1F8BA
:1010E0007000642C03D1FFF777FF012070BD0DB9AC
:1010F0000020FBE7284600F0D9F80120F6E70000C1
:10110000F401002010B500220B21012000F0B4FFF3
:1011100010BD000010B50C480068B0F8420013285C
:1011200005DC09480068B0F84200012804DA122002
:1011300005490968A1F842000349096891F842008D
:1011400000F004F810BD0000F401002010B50446C2
:101150002E2C6FD2DFE804F094171C21262B30359B
:101160003B41464B50555A5F64696F749494949414
:1011700094797D8185898D94949494949494949495
:1011800094949494949120213F4802F0F7FF78E0E2
:1011900010213D4802F0F2FF73E008213A4802F0C6
:1011A000EDFF6EE00421384802F0E8FF69E002211B
:1011B000354802F0E3FF64E00121334802F0DEFF2E
:1011C0005FE04FF40071314802F0D8FF59E04FF46E
:1011D00080712E4802F0D2FF53E080212B4802F0AC
:1011E000CDFF4EE04021294802F0C8FF49E0202110
:1011F000264802F0C3FF44E01021244802F0BEFF5D
:101200003FE00821214802F0B9FF3AE08021204860
:1012100002F0B4FF35E040211D4802F0AFFF30E09E
:1012200020211B4802F0AAFF2BE01021184802F0F1
:10123000A5FF26E024E00821154802F09FFF20E0EA
:101240000421134802F09AFF1BE0002011490870A6
:1012500017E000201049087013E000200F490870C3
:101260000FE000200E4908700BE000200D490870C7
:1012700007E000200C49087003E0FFF7A5FE00E03E
:1012800000BF00BF10BD000000100240000402407B
:10129000000C02404C0200204D0200204E020020B3
:1012A0004F020020500200205102002070B5044679
:1012B00001250A4800680068A043084909680860D9
:1012C00008E004F0010010B1E8B2FFF73FFF640846
:1012D000681C85B2202DF4DD70BD0000E8010020FF
:1012E00070B5184C2068C0F3C020174D002807D0F7
:1012F000E014A06068782058697840F001006050E0
:101300002068C0F3402000281BD0104E00224FF46C
:101310008051304601F0B8FB7015A0606878205805
:10132000697820F00400605068782058697820F0CF
:10133000010060503046BDE870400122110301F009
:10134000A3BB70BD0060024014120508000C0240EF
:1013500070B5224C2068C0F3C060214D002819D020
:101360004FF00060A060E8782058E97820F0100085
:101370006050E8782058E97820F001006050194862
:1013800000680C3050E8001F41F0400140E80012B6
:10139000002AF7D12068C0F3406000281CD0124E0C
:1013A00000224FF48051304601F06EFB4FF0007088
:1013B000A060E8782058E97820F004006050E878D0
:1013C0002058E97820F0010060503046BDE87040B8
:1013D0000122110301F058BB70BD00000060024003
:1013E000141205086C020020000C024070B487B093
:1013F00046490868C0F3401000287DD0202088604E
:1014000043480078085800F40020424B00287AD066
:10141000414818603E48D0F810C085694469C268E8
:101420008168C069009105903C49CDF808C00495D9
:1014300003940192059E0098C1F808C04E610D61A9
:10144000CC604A60086000221B6802EB4200D1F8C1
:1014500000C033F82040A444C1F800C003EB800072
:10146000D1F804C04488A444C1F804C08488D1F8E9
:1014700008C0A444C1F808C0C488D1F80CC0A44472
:10148000C1F80CC00489D1F810C0A444C1F810C040
:101490004089D1F814C060444861501CC2B2202A6F
:1014A000D3D3086800F110020A60486800F1100503
:1014B0004D60886800F110048C60C86800F110036A
:1014C000CB60086910300861D1F814C00CF1100C21
:1014D000C1F814C0124E5209328069097180610945
:1014E000B1805B09F380400930814FEA5C10708164
:1014F0000C480068C28201E002E004E08183C383FB
:1015000007B070BC70470848186083E70064024069
:1015100014120508580300200C700020AC7700203E
:10152000E86F0020F80100208C71002070B5184C85
:101530002068C0F3C020174D002807D0E014A06039
:1015400068782058697840F0010060502068C0F346
:10155000402000281BD0104E00224FF4805130460E
:1015600001F092FA7015A06068782058697820F030
:101570000400605068782058697820F001006050BD
:101580003046BDE870400122110301F07DBA70BD04
:101590000064024014120508000C024070B5224C91
:1015A0006068C0F34050214D002819D04FF400105E
:1015B000E060A8792058A97920F010006050A8793F
:1015C0002058A97920F001006050194800680C30BB
:1015D00050E8001F41F0400140E80012002AF7D116
:1015E0006068C0F3C04000281CD0124E00224FF4A7
:1015F0008051304601F048FA4FF40020E060A879AD
:101600002058A97920F004006050A8792058A979C1
:1016100020F0010060503046BDE870400122110307
:1016200001F032BA70BD00000064024014120508D7
:101630008C020020000C024010B52DED068B84B00A
:1016400004462068019060680290A0680390208999
:1016500000EE100AB8EE400AB0EE408A18EE100A0A
:101660000EF0CEFC41EC1A0B9FED330B53EC102B1C
:101670000EF09CFA41EC190B0DF08AFF08EE100AEF
:101680009FED2F0AC8EE000AB0EE608A18EE100A2D
:101690000EF0B6FC41EC1A0B9FED2A0B53EC102B0D
:1016A0000EF0C4FB41EC190B0DF072FF08EE100AAE
:1016B00018EE100A0EF0A4FC41EC1A0B9FED230B60
:1016C00053EC102B0EF04AF841EC190B0DF060FFB3
:1016D00008EE100AB3EE090A38EE000AB0EE408AAE
:1016E0001C48006880ED1C8A6089400000EE100AEA
:1016F000B8EEC00AB0EE408A18EE100A0EF080FC78
:1017000041EC1A0B9FED0C0B53EC102B0EF04EFA24
:1017100041EC190B0DF03CFF08EE100A9FED080A92
:10172000C8EE000AB0EE608A0A48006880ED1B8AA5
:1017300004B0BDEC068B10BD6666666666660A4040
:1017400000F07F4552B81E85EB51E83F7B14AE4751
:10175000E17A643FF8010020704700002DE9F04174
:101760002DED028B05460E46144662490E80002080
:1017700061490870614908806149088061490860D1
:1017800061490870614908601E27601E84B224B94F
:101790005F4800885F49088004E001245E480088B3
:1017A0005C4908805D480068B0F8560059490988CE
:1017B00048434FF47A7190FBF1F05949088057483B
:1017C0000068B0F858005349098848434FF47A71CB
:1017D00090FBF1F05349088050480068B0F85A0077
:1017E0004C49098848434FF47A7190FBF1F04E4917
:1017F00008804FF47A700AF067FB00BF0A200AF0F5
:1018000063FB4A4800681C3030F8140048490880DF
:101810003C480068401C3B4908603B48007807286A
:101820003ED2DFE800F0041C38393A3B3C0000208F
:101830003349088000EE105AB8EE400AF2EE040A6E
:1018400080EE201AB0EE418AB0EE480A294800889E
:1018500000B207F0F7FE01202B49087021E0344860
:10186000008831490988884205DC01202249087036
:1018700008F0A4F80EE02E4800882949098888421B
:1018800005DB2B48008827490988884202DD0020B3
:101890001B49088005E004E003E002E001E000E00D
:1018A00000BF00BF224800882249088022480078F3
:1018B00018B9114800780028A0D01F48007870B1EE
:1018C00008F092F81D4800680AF086FE4FF4FA709E
:1018D0000AF0FAFA0220BDEC028BBDE8F08106485E
:1018E000007828B14FF4FA700AF0EEFA0020F2E71F
:1018F0000020F0E72002002019020020FE01002055
:101900000002002014020020100200201C0200200F
:10191000120300200402002014030020F401002020
:101920000C0200200A0200200E020020F801002014
:101930000602002008020020FC01002034030020E1
:101940002DE9F0412DED028B05460E461446654902
:101950000E8000206449087064490880644908804A
:101960006449086064490870644908601E27601E65
:1019700084B224B9624800886249088004E00124E6
:10198000614800885F49088060480068B0F85600E8
:101990005C49098848434FF47A7190FBF1F05C4947
:1019A00008805A480068B0F85800564909884843EA
:1019B0004FF47A7190FBF1F0564908805348006863
:1019C000B0F85A004F49098848434FF47A7190FBA8
:1019D000F1F0514908804FF47A700AF075FA00BFAF
:1019E0000A200AF071FA4D4800681C3030F81400E3
:1019F0004B4908803F480068401C3E4908603E480B
:101A00000078072844D2DFE800F0041C3E3F404144
:101A1000420000203649088000EE105AB8EE400A15
:101A2000F2EE040A80EE201AB0EE418AB0EE480AC7
:101A30002C48008800B207F005FE01202E490870EE
:101A400027E03748008834490988884205DD344852
:101A5000008830490988884205DB01202249087046
:101A600007F0ACFF0EE02E4800882949098888421B
:101A700005DB2B48008827490988884202DD0020C1
:101A80001B49088005E004E003E002E001E000E01B
:101A900000BF00BF22480088224908802248007801
:101AA00018B91148007800289AD01F48007870B102
:101AB00007F09AFF1D4800680AF08EFD4FF4FA7097
:101AC0000AF002FA0320BDEC028BBDE8F081064863
:101AD000007828B14FF4FA700AF0F6F90020F2E726
:101AE0000020F0E72002002019020020FE01002063
:101AF0000002002014020020100200201C0200201E
:101B0000120300200402002014030020F40100202E
:101B10000C0200200A0200200E020020F801002022
:101B20000602002008020020FC01002034030020EF
:101B30002DE9F05F82468B4614461E460A9F4FF001
:101B40001209E34804800020E2490870E249088055
:101B5000E2490880E2490860E2490870E249086009
:101B60008FB100EE104AF8EE400A9FEDE01A81EEC8
:101B7000200AF2EE040A80EE201ABCEEC10A10EE32
:101B8000100A85B200E01E25012E06D14FF0000894
:101B9000D7480088D749088005E04FF00108D648AB
:101BA0000088D4490880D5480068B0F85600D1496B
:101BB000098848434FF47A7190FBF1F0D0490880CE
:101BC000CE480068B0F85800CA49098848434FF425
:101BD0007A7190FBF1F0CB490880C8480068B0F8F2
:101BE0005A00C449098848434FF47A7190FBF1F0D8
:101BF000C54908805946504604F092FA4FF47A706D
:101C00000AF062F900BF0A200AF05EF9BF480068D6
:101C10001C3030F81800BE490880B1480068401CEC
:101C2000AF490860AF480078072871D2DFE800F0BC
:101C300004167999CBEBF80009F0FF02A44801885B
:101C4000012007F053FD0120A64908700020A34998
:101C50000880B0490880A4490860FBE0AC480088CF
:101C6000A8490988884226DBAA480088002804DDA4
:101C70000020A84908809C49086098480088401CBA
:101C80009649088098480068A149098808449649FF
:101C9000086092480088A84242DB32200AF014F91A
:101CA00007F08CFE1FB106208E49087038E0012035
:101CB0008849087034E0964800889149098888422C
:101CC00027DC94480088401C92490880834800889B
:101CD000002804DD0020814908808349086082488B
:101CE00000688B49098808447F4908608948008852
:101CF000A84215DB32200AF0E7F807F05FFE1FB1BB
:101D00000620784908700BE001207249087007E04E
:101D10009FE00020714908807E4908807249086070
:101D200098E040F2DC500AF0CFF869480088642857
:101D300003DA0A206649088006E0654800880A211F
:101D400090FBF1F062490880002064490880052278
:101D50005F480188002007F0C9FC03206149087032
:101D600078E06B48008868490988884205DC0120D2
:101D70005849087007F022FE24E065480088604951
:101D8000098888421BDB624800885E4909888842CE
:101D900015DC52480088401C5049088008460088DD
:101DA000A8420FDB07F00AFE4FEA690900204A4902
:101DB00008804748048000204A49087002E000205B
:101DC0004649088046E040F2DC500AF07DF8404881
:101DD0000088642803DA0A203D49088006E03C4870
:101DE00000880A2190FBF1F03949088000203B4926
:101DF0000880052236480188002007F077FC05207E
:101E00003849087026E0424800883F4909888842DE
:101E100004DD01202F49087007F0D0FD1AE0FFE72C
:101E20002E4800883B49098808442F49096891FBDE
:101E3000F0F037490880084600883349098888420D
:101E400003DD02202749087002E0042025490870BC
:101E500000E000BF00BF2E4800882F4908802F48AF
:101E6000007820B91B48007800283FF4CCAE2B48FE
:101E70000078E8B107F0B8FD294800680AF0ACFB2B
:101E80004FF47A700AF020F859465046FFF71CF9D3
:101E90004FF4FA700AF018F812480078032805D1B8
:101EA000032E01D1BDE8F09F0220FBE70120F9E7F6
:101EB0000848007848B159465046FFF705F94FF4F5
:101EC000FA700AF001F80020ECE70720EAE70000CA
:101ED0002002002019020020FE0100200002002044
:101EE00014020020100200201C02002000606A483A
:101EF000120300200402002014030020F40100203B
:101F00000C0200200A0200200E020020F80100202E
:101F1000060200200202002008020020FC0100202E
:101F2000340300203EB503464D2002905920019015
:101F3000002011E00C5C9DF808506C401C541C5CA7
:101F40009DF804506C4000949DF8044002949DF864
:101F500000400194441CA0B29042EBDB3EBD72B63F
:101F6000704702460C2A15D2DFE802F006080A0C78
:101F70000E14141414141012002070470846FCE7C5
:101F80000320FAE70420F8E70846F6E72620F4E7FE
:101F90002720F2E70020F0E772B6FEE72DE9F047D0
:101FA0000746884615461E4600242046641C2F49D5
:101FB0000F5403222046641C0A544FEA182220467C
:101FC000641C0A542046641C01F800802A0A20463A
:101FD000641C0A542046641C0D54062123480BF04F
:101FE0007BF981462046641C204901F800904FEAA5
:101FF00019222046641C0A5421461C4800F010F99E
:102000004FF4FA711A4800680AF066F850BB194894
:102010000078B84224D11748C01C30F815906800E9
:10202000C01C81B213480BF057F9484515D1002068
:1020300010E04100C91C0F4A515C090226F810103B
:1020400036F810204100091D0A4B595C114426F84E
:102050001010401CA842ECDB06E00020BDE8F08731
:102060000020FBE70020F9E700BFF7E7D06E002073
:102070004C030020D06D00202DE9F04105460E46AE
:10208000174600242046641C1C490D540622204695
:10209000641C0A54320A2046641C0A542046641CFC
:1020A0000E543A0A2046641C0A542046641C0F54FD
:1020B000214612480BF010F980462046641C0F4957
:1020C00001F800804FEA18222046641C0A54214679
:1020D0000A4800F0A5F84FF4FA710948006809F0C1
:1020E000FBFF40B907480078A84202D10120BDE8B3
:1020F000F0810020FBE70020F9E70000D06E00200F
:102100004C030020D06D002010B52549086800BFA1
:1021100000BF00BF00F10C0252E8002F42F0100196
:1021200000F10C0242E80013002BF3D100BF00BF06
:102130001B49086800BF00BF00BF00F1140252E84D
:10214000002F42F0400100F1140242E80013002B7E
:10215000F3D100BF00BF12480268121D01211148CF
:1021600001F05CFF104A01210E4801F047FF4FF4D7
:10217000807201210B4801F029FF0121094801F07B
:10218000D9FE0121074801F0EDFE0121054801F0CB
:1021900001FF64210548006809F09EFF10BD0000A2
:1021A0008C02002000640240D06D00204C0300200F
:1021B00008B516480121164A525C825822F00102E5
:1021C000134B5B5CC25000BF00BF114A525C02441B
:1021D000526892B2C2F580700E4908800E480068BD
:1021E0000AF016F84FF480720121084801F0EEFE63
:1021F0000A4908680168009100BF4168009100BF6A
:1022000000BF0121014801F0C5FE08BD0064024085
:1022100021030508900200204C0300208C020020BE
:1022200070B504460D46224606211A4801F0E6FE26
:1022300019480268121D0621164801F0EFFE2A46D1
:102240000621144801F0C2FE1349086800BF00BF10
:1022500000BF00F1140252E8002F42F0800100F1AB
:10226000140242E80013002BF3D100BF00BF00BFEF
:1022700020200849C86000BF0621064801F05AFE28
:102280000621044801F06EFE0621024801F082FE9C
:1022900070BD0000006402408C02002062B67047EE
:1022A00010B5002201B909E0012901D10A0205E0B7
:1022B000022901D10A0201E04FF440720E4B1B6863
:1022C00023F440730C4C236023461B6813432360A4
:1022D00023461B6823F0F803236023461B6802246F
:1022E00044EAC0042343044C236023461B6843F4A0
:1022F0008033236010BD0000103C02401C48006881
:1023000000F40070B0B11A48006820F40070184959
:10231000086000BF0846006840F400600860084696
:10232000006820F40060086000BF0846006840F4C0
:10233000007008600E48006800F48060B0B10C487E
:10234000006820F480600A49086000BF0846006801
:1023500040F4805008600846006820F4805008600F
:1023600000BF0846006840F48060086070470000C5
:10237000003C02400A4A126822F44072084B1A607C
:102380001A46126842F004021A601A4612684FF4A4
:10239000803343EA00231A43014B1A607047000060
:1023A000103C0240074A126822F44072054B1A6042
:1023B0001A4612681A601A46126842F001021A6040
:1023C00001707047103C024010B50D49096821F4B6
:1023D00040710B4C21602146096841F44071216035
:1023E0002146096841F001012160026000BF00BF81
:1023F00000BFBFF36F8F00BF00BF00BF436010BDC1
:10240000103C0240084A126822F44072064B1A60DF
:102410001A46126842F480721A601A46126842F034
:1024200001021A6001807047103C0240084A12689D
:1024300022F44072064B1A601A46126842F4007287
:102440001A601A46126842F001021A600160704771
:10245000103C02402348006800F0100040B12248C0
:10246000C06940F010002049C86110201D49086073
:102470001C48006800F0200040B11B48C06940F0D3
:1024800008001949C86120201649086015480068ED
:1024900000F0400040B11448C06940F00400124907
:1024A000C86140200F4908600E48006800F08000B5
:1024B00040B10D48C06940F002000B49C86180205E
:1024C000084908600748006800F0020040B106486B
:1024D000C06940F020000449C86102200149086039
:1024E000704700000C3C02400C78002070B5044698
:1024F000002500201449C86100F0CCFA054609E027
:10250000601C38B124B100F0C5FA401BA04201D9CB
:10251000032070BD0D48006800F480300028EFD122
:102520000A48006800F0010010B101200749086066
:102530000648006800F0F20018B1FFF78BFF012099
:10254000E7E70020E5E700000C7800200C3C0240A3
:102550007CB505460024002001214FF49673032228
:10256000CDE900101A21284607F0BBFF04460020E1
:1025700001214FF496730322CDE900101A21284659
:1025800007F0AFFF04461CB90321284604F01BF8EE
:102590003B212046FFF7E5FC064630467CBD0000A7
:1025A0002DE9F84380460E4617461D46002415487F
:1025B00030F816903B464A46314640460095FFF7B4
:1025C000B7FA0446C4B109234FF4487203214046C8
:1025D00006F00CFC3B464A46314640460095FFF764
:1025E000A7FA0446022C01D0032C00D101241CB10F
:1025F0004FF4967009F068FC31462046FFF7B1FCB5
:10260000BDE8F883A403050870B505460E461446D8
:10261000642009F059FC4FF4FA711B48006809F076
:10262000A9FC80B9002019494860886008460480E8
:102630001548006809F028FD50B115480068401C95
:102640001349086004E012480068401C1049086003
:1026500002E0642009F038FC0C4800880028F8DC0F
:10266000204604EBD071094A526802EB6101B1FBCC
:10267000F4F1298004EBD071044A926802EB610105
:10268000B1FBF4F1318070BD4003002000700020E8
:10269000CC02002030B502460B460A4850F82240D2
:1026A00000210BE004EB01100088984204D104EBF8
:1026B00001108568284630BD481CC1B21429F1DBE1
:1026C0000020F8E70C77002000B515480068401C92
:1026D00050B913484068401C30B911488068401C0C
:1026E00010B94FF0FF3000BD0C220E490E48FFF725
:1026F00019FC0D4800680D49096888420DD10A4847
:1027000040680A494968884207D1074880680749F4
:102710008968884201D10020E5E70120E3E7000055
:10272000E878FF1F107AFF1F2C780020C0FF0108F7
:1027300030B502460B460A4850F8224000210BE013
:1027400004EB01100088984204D104EB01104568A5
:10275000284630BD481CC1B21429F1DB0020F8E73F
:102760000C77002030B502460B460B4850F822404B
:1027700000210CE004EB01100088984205D104EB25
:102780000110808885B2284630BD481CC1B214298A
:10279000F0DB0020F8E700000C77002010B52DEDED
:1027A000068B04469FED460BB0EE408AF0EE608A41
:1027B00024B1012C5ED0022C69D15CE04248006853
:1027C000C08A00EE100AB8EE400A10EE101A084651
:1027D0000DF016FC41EC180B3B490968C88A0DF056
:1027E00095F941EC190B38490968C88A0DF08EF942
:1027F00041EC1A0B53EC192B0DF0D8F941EC180BE6
:102800009FED320B53EC102B51EC180B0DF0CEF961
:1028100041EC180B2C490968C88A0DF077F941EC96
:102820001A0B9FED2C0B53EC102B0DF0BFF941EC64
:10283000190B53EC182B0CF0DDFE41EC180B9FED3F
:10284000270B53EC102B51EC180B0CF0D3FE41EC82
:10285000180B51EC180B0CF09BFE22490968C1F8CB
:10286000840051EC180B0CF093FE1E490968C1F866
:1028700088001BE01AE01448006890ED1C0A10EE76
:10288000101A08460DF0BCFB41EC180B0EE00E4888
:102890000068C08A00EE100AB8EE400A10EE101A66
:1028A00008460DF0ADFB41EC180B00BF00BF51EC2A
:1028B000180B0CF06DFE00EE100ABDEC068B10BD7F
:1028C0000000000000000000F8010020000000806F
:1028D0005CEEB63EFA035C0E3FF1A73FD8F50B76EF
:1028E000C3B6C93FF40100202DE9F04104460E466D
:1028F0000127002500BF2548007E012802D10220C3
:10290000BDE8F08101202149087600BF4CF250302B
:10291000FFF7ECFD0746002F31D1401E30602068E4
:1029200001280FD1207C6168FFF724FD4CF2503064
:10293000FFF7DCFD07461648006820F00400144944
:1029400008601AE0A56812E0217C2846FFF7A8FC81
:102950004CF25030FFF7CAFD07460D48006820F0E2
:10296000FA000B4908600FB1356005E06D1CD4E931
:1029700002100844A842E7D800BFFFF7BFFC00BF21
:1029800000200249087600BF3846B9E70C780020DD
:10299000103C02400348006840F0004001490860D4
:1029A00000207047103C02402DE9F04106460F46DA
:1029B00014461D464FF0010800BF1F48007E012845
:1029C00002D10220BDE8F08101201B49087600BF3A
:1029D0004CF25030FFF78AFD8046B8F1000F23D14A
:1029E00026B9E1B23846FFF7DDFC12E0012E04D132
:1029F000A1B23846FFF706FD0BE0022E04D12146B6
:102A00003846FFF713FD04E022462B463846FFF711
:102A1000DBFC4CF25030FFF769FD80460748006848
:102A200020F001000549086000BF00200249087637
:102A300000BF4046C6E700000C780020103C024072
:102A400000200949096801F0004159B10749064AC7
:102A50000C3A1160064911600349096801F0004110
:102A600001B1012070470000103C0240230167457E
:102A7000AB89EFCD10B5426921EA020302EA0104F5
:102A800043EA0443836110BD0AB1816101E00B0494
:102A900083617047014800687047000060030020B0
:102AA00003480068034909780844014908607047F1
:102AB000600300206803002010B50D48006840F452
:102AC00000700B4908600846006840F480600860A8
:102AD0000846006840F480700860032000F0BAF8EF
:102AE0000F2000F007F800F041F8002010BD0000B2
:102AF000003C024010B588B0014600222D2000F0B5
:102B00006BF82D2000F058F800241448016841F4B7
:102B100080710160006800F48070019002A903A830
:102B200000F0BEF800F0E4F840000D49B0FBF1F011
:102B3000411E0D480B4A026040F2E732C26041601C
:102B40000461846000F0E6F810B108B0012010BD07
:102B5000054800F013F908B010BD000040380240ED
:102B600040420F0000200040C477002008B5104804
:102B7000016841F480410160006800F480400090E9
:102B80000C48016841F080510160006800F08050FD
:102B9000009000220F21901E00F01EF80022052157
:102BA000012000F019F8BDE80840012000F004B849
:102BB000443802404038024001460846002809DBFC
:102BC00000F01F0301229A4043099B0003F1E02318
:102BD000C3F8002100BF70472DE9F05F80460D4625
:102BE0001646002707F0C0FE074639462A463346F8
:102BF00001F00700C0F1070ABAF1040F02D94FF043
:102C0000040A01E0C0F1070AD14600F1040ABAF152
:102C1000070F02D24FF0000A01E0A0F1030AD446E8
:102C20004FF0010A0AFA09FAAAF1010A0AEA020AAD
:102C30000AFA0CFA4FF0010B0BFA0CFBABF1010B8B
:102C40000BEA030B4AEA0B042146404607F094FEC8
:102C5000BDE8F09F00BF00F00702064B19684FF671
:102C6000FF031940044B0B4343EA0221014B196057
:102C700000BF70470CED00E00000FA05704700004F
:102C800010B50648006800F4803028B1FFF7F6FF61
:102C90004FF480300149086010BD0000143C014031
:102CA0000F2202600D4A126802F0030242600B4AD2
:102CB000126802F0F0028260084A126802F4E052E0
:102CC000C260064A126802F46042D2080261044AF5
:102CD000126802F007020A607047000008380240DC
:102CE000003C024001480068704700005C0300207F
:102CF00000B5FFF7F7FF04490968C1F38221034AD1
:102D0000515CC84000BD000008380240441205086C
:102D10007047704710B504460CB9012010BD94F8F7
:102D20003D0028B9002084F83C00204600F025F83A
:102D3000022084F83D00211D206807F005F80120DD
:102D400084F8460000BF84F83E0001213F20015571
:102D5000402001554120015500BF00BF012084F8EB
:102D6000420043200155442001554520015500BF34
:102D7000012084F83D000020D0E77047014691F81B
:102D80003D00012801D001207047022081F83D005C
:102D90000868C06840F001000B68D8601A4B0868EA
:102DA00098421BD00868B0F1804F17D0174B0868C5
:102DB000984213D0164B086898420FD0154B0868FC
:102DC00098420BD0144B0868984207D0134B086800
:102DD000984203D0124B086898420CD1086880686A
:102DE00000F00702062A0CD00868006840F00100D5
:102DF0000B68186005E00868006840F001000B6887
:102E000018600020C0E700000000014000040040FE
:102E100000080040000C0040000401400040014058
:102E200000180040704710B5044620680069C0F3E0
:102E30004000D8B12068C068C0F34000B0B16FF066
:102E4000020021680861012020772068806900F075
:102E5000030018B12046FFF7E5FF05E0204600F02B
:102E6000ADF8204600F0ABF800202077206800691C
:102E7000C0F38000D8B12068C068C0F38000B0B152
:102E80006FF00400216808610220207720688069C3
:102E900000F4407018B12046FFF7C4FF05E020465B
:102EA00000F08CF8204600F08AF800202077206897
:102EB0000069C0F3C000D8B12068C068C0F3C0008A
:102EC000B0B16FF008002168086104202077206805
:102ED000C06900F0030018B12046FFF7A3FF05E02A
:102EE000204600F06BF8204600F069F800202077BB
:102EF00020680069C0F30010D8B12068C068C0F332
:102F00000010B0B16FF01000216808610820207730
:102F10002068C06900F4407018B12046FFF782FFB6
:102F200005E0204600F04AF8204600F048F800206E
:102F300020772068006900F0010058B12068C0685F
:102F400000F0010030B16FF00100216808612046F7
:102F500000F036F820680069C0F3C01058B120684E
:102F6000C068C0F3C01030B16FF080002168086104
:102F70002046FFF7CDFE20680069C0F3801058B1ED
:102F80002068C068C0F3801030B16FF04000216845
:102F90000861204600F01DF820680069C0F3401069
:102FA00058B12068C068C0F3401030B16FF0200005
:102FB000216808612046FFF7ACFE10BD70477047DE
:102FC0000068A0F18041B1F5005101D1FFF768BD63
:102FD00070477047FEE7000010B52DED028BB14839
:102FE000006804880B20AF490968A1F87800172C05
:102FF0007ED00FDCA4F1030014287AD2DFE800F0C1
:10300000E2E5797979797926303A637D97ADBFD158
:10301000D9DAE8EB1F2C6DD009DCA4F118000728E1
:10302000EBD2DFE800F0DEF2F3F4F5F6FA006C2CF8
:1030300079D006DC202C77D0212C76D0222C58D1C8
:1030400014E16D2C72D06E2CF9D121E195490968FB
:10305000486C03F0ABF9002092490968088019E137
:1030600090490968486CFEF721F900208D490968EC
:1030700008800FE106F0A2FC4FF4967008F024FFE0
:1030800088480068B0F8720000EE100AB8EE400AF6
:10309000F2EE040A80EE201AB0EE418A81490968F6
:1030A000B1F95C00B0EE480A06F0CCFA02E032203A
:1030B00008F00AFF7C4800780028F8D00020794901
:1030C00009680880E6E0774B1B68B3F86220754B0F
:1030D0001B68B3F95C10734B1B68B3F8720008F0FF
:1030E00081FD72490968888000206E49096802E004
:1030F00074E0CEE095E00880CCE06A4B1B68B3F842
:103100006220684B1B68B3F95C10664B1B68B3F810
:103110007200FEF723FB6549096888800020614939
:1031200009680880B6E0ACE087E092E0AFE05D4B74
:103130001B68B3F862205B4B1B68B3F95C10594BFA
:103140001B68B3F87200FEF7FBFB584909688880DA
:1031500000205449096808809CE052480068B0F893
:103160006E0003B24F48006890F86C2000210846BA
:1031700005F034F800204B49096808808AE0494886
:103180000068B0F86E0003B24648006890F86C2002
:103190000021084605F03EF80020424909680880F1
:1031A00078E0002006F03AFC00203E4909680880DB
:1031B00070E000BF0A2004F031FB002039490968A3
:1031C000088067E005F08AFE64E005F09BFE61E0A0
:1031D00003F00CF85EE0FDF795FF5BE006F0C4FA43
:1031E00058E0334805F0F8FC314800882D4909685B
:1031F00048872F4840882B49096808874AE00CE037
:1032000007E005E003E001E0FFE743E042E041E0E2
:1032100040E00120274908703CE000202549087063
:1032200038E00020244909680870244909680870BA
:1032300001202349096808702CE001201E49096813
:10324000087000201D49096808701D490968087048
:1032500020E0002018490968087001201749096812
:103260000870002016490968087013E00020124910
:1032700009680870114909680870114909680870DF
:1032800008E0FDF73DFD09490968888002E001E09A
:1032900000E000BF00BF0020024909680880BDECC3
:1032A000028B10BDF4010020FC010020F801002079
:1032B000A8020020F40200205C020020600200202E
:1032C0005802002070B504460D464FF480601C493A
:1032D000886100BF224603211A4800F087FE1A4881
:1032E0000268121D0321174800F090FE2A460321B0
:1032F000144800F05BFE1449086800BF00BF00BF1F
:1033000000F1140252E8002F42F0800100F1140293
:1033100042E80013002BF3D100BF00BF00BF202004
:103320000849C86000BF0321064800F0F7FD0321EB
:10333000044800F00BFE0321024800F01FFE70BDA0
:10334000000C0240006002406C0200200121014A92
:1033500011817047386F0020084809490860094802
:103360004860094888600948486109480861094877
:10337000C860094888610948C861704741820408EB
:103380005C770020C7680408A9660408B56F0408C4
:10339000C5780408617E0408B96B0408077C04083A
:1033A00010B500242F222046641C10490A543122F3
:1033B0002046641C0A5457222046641C0A543422B6
:1033C0002046641C0A5452222046641C0A540D22D2
:1033D0002046641C0A5400BF4FF4FA7008F074FDD4
:1033E00005F066F90028F7D110BD0000906D0020AF
:1033F00000B587B0002004900590069002900390DD
:103400000190674A012002F1500101EB80010B6835
:1034100043F2F220834273D062A04178303961A038
:103420000078202801D1002002E05EA0007830382A
:1034300000EB800001EB4000C0B28DF80C0059A0F9
:103440000179303957A0C078202801D1002002E04E
:1034500054A0C078303800EB800001EB4000C0B2CF
:103460008DF80D004FA0C17930394EA08079202809
:1034700001D1002002E04BA08079303800EB8000C1
:1034800001EB4000C0B28DF80E0002AA00214448B2
:1034900000F0BCFF46A080786E2801D101203DE0FD
:1034A00043A08078622801D1022037E040A08078D4
:1034B000722807D13EA000784D2801D103202DE0CD
:1034C00004202BE03AA08078792801D1052025E05E
:1034D00037A080786E2801D106201FE034A08078C4
:1034E0006C2801D1072019E031A08078672801D12C
:1034F000082013E02EA08078702802D109200DE06A
:103500004CE02BA08078742801D10A2006E028A086
:103510008078762801D10B2000E00C208DF8050082
:1035200023A0007A303822A1C979303901EB81011A
:1035300000EB410000EB80011DA0407A303800EB29
:10354000410000EB80011AA0807A303800EB410086
:10355000A0F5FA60C0B28DF8070015A041793039A6
:1035600013A00079202801D1002002E010A00079EA
:10357000303800EB800001EB4000C0B28DF806004F
:1035800000208DF8040001AA0021054800F03EFE4D
:1035900043F2F2220121024800F00CFE07B000BD08
:1035A0000028004032333A30353A3531000000000F
:1035B0004A616E20203820323032330070B5044624
:1035C0000D4600200D49096808850C4800684485AF
:1035D0000A480068808D0A4908604FF47A70684391
:1035E000084908600BF06EFC07490860054801684F
:1035F0000648006808F0D2FF70BD0000F801002006
:1036000038020020440200203C0200203C0300203D
:1036100010B540F6C41005F0CFFD0E2005F09EFD5C
:1036200041F27070084908800846008805F038FDAE
:10363000FFF7B6FE40F6B830034908800846008818
:1036400005F02EFD10BD00008A02002010B580207C
:10365000FE4908604001086041F25012FC49FD48F3
:10366000FDF731F8FC48FD490860A0F5A070FC4961
:10367000086000F58070FB490860A0F58070FA4989
:10368000086000F58070F94908600020F649096873
:103690000880F748D0F8480145F2AA5188427CD00A
:1036A000B0EE080AF34880ED000AB0EE080AF248CE
:1036B00080ED000A9FEDF10AF14880ED000A4FF419
:1036C0009660F0490880F0490880EE480088E74994
:1036D00009680884EC480088E44909684884E5489A
:1036E00090ED000AF2EE040A20EE200ABCEEC00AB9
:1036F00010EE100ADC490968A1F85200DE4890ED8E
:10370000000AF2EE040A20EE200ABCEEC00A10EE17
:10371000100AD5490968A1F85400D94890ED000A6B
:10372000F2EE040A20EE200ABCEEC00A10EE100AE7
:10373000CD490968A1F850003220CB490968A1F8A9
:103740005A004FF42F70C8490968A1F8560040F29A
:103750001450C5490968A1F8580040F6B830C3496B
:10376000096888854FF41670BF490968A1F85C00A4
:103770004FF49060BC49096848800120BA49096843
:1037800088806420B8490968A1F87A009FEDBF0AD3
:10379000B548006880ED240A00E02AE09FEDBC0AED
:1037A000B148006880ED250A9FEDB80AAE48006870
:1037B00080ED260A4CF25030AB490968C8849FED71
:1037C000B50AA948006880ED340A1020A6490968A6
:1037D000A1F840001220A4490968A1F84200002085
:1037E00004E000219D4A12681154401C0828F8DBAF
:1037F000F0E09D480068B0F8520000EE100AB8EE04
:10380000400A9C4880ED000A90ED000AF2EE040A9E
:1038100080EE201A80ED001A90ED000ADFED9E0A7E
:10382000B4EEE00AF1EE10FA06DC90ED000AB5EE17
:10383000C00AF1EE10FA04D2B0EE080A8D4880ED0D
:10384000000A89480068B0F8540000EE100AB8EE8B
:10385000400A894880ED000A90ED000AF2EE040A61
:1038600080EE201A80ED001A90ED000ADFED8A0A42
:10387000B4EEE00AF1EE10FA06DC90ED000AB5EEC7
:10388000C00AF1EE10FA04D2B0EE080A7A4880EDD0
:10389000000A75480068B0F8500000EE100AB8EE53
:1038A000400A774880ED000A90ED000AF2EE040A23
:1038B00080EE201A80ED001A6C480068008C714977
:1038C0000880084600884FF6FF71884202D06D4894
:1038D000008818B942F6E0606A49088063480068C9
:1038E000408C69490880084600884FF6FF7188427D
:1038F00002D06548008818B942F6E0606249088045
:10390000594800684088B0F5906F05DD4FF490602D
:1039100055490968488009E05348006840885C2898
:1039200004DA4FF490605049096848804E480068B6
:103930008088802803DC4C480068808818B9012002
:1039400049490968888049480068808D40F6B83147
:10395000884203DD08464549096888854248006871
:1039600090ED340AF7EE000AB4EEE00AF1EE10FA38
:1039700008DC3D48006890ED340AB5EEC00AF1EE6F
:1039800010FA05D29FED430A3748006880ED340AEB
:1039900035480068B0F84000132805DC324800685C
:1039A000B0F84000012804DA10202F490968A1F876
:1039B00040002D480068B0F84200132805DC2A4872
:1039C0000068B0F84200012804DA1220264909688C
:1039D000A1F8420024480068B0F85C0030B12248E9
:1039E0000068B0F95C00B0F57A7F05DD4FF4167021
:1039F0001D490968A1F85C0000201C490968488538
:103A000000F020F9002019490968C88001201749F1
:103A10000968888100201149096808700F49096800
:103A200048700E49096888700C480068C07800F03A
:103A3000FE000A490968C8700848006806F032FFAD
:103A400016A0007A303815A1C9792DE06401002054
:103A50000000020860520020A0630020E80100205E
:103A6000EC010020F0010020F4010020F80100200A
:103A700060620020180300201C0300203333F33F52
:103A800068020020120300201403002000007A4482
:103A90000000164400000000000004424A616E204D
:103AA0002039203230323300303901EB810100EB14
:103AB000410000EB8001AFF21C00407A303800EB8F
:103AC000410000EB8001AFF22C00807A303800EB2F
:103AD000410058490968A1F85E00AFF240008078C3
:103AE0006E2801D1012046E0AFF2500080786228B4
:103AF00001D102203FE0AFF25C008078722808D14B
:103B0000AFF2680000784D2801D1032033E0042093
:103B100031E0AFF278008078792801D105202AE0E1
:103B2000AFF2880080786E2801D1062023E0AFF242
:103B3000940080786C2801D107201CE0AFF2A4002B
:103B40008078672801D1082015E0AFF2B0008078B6
:103B5000702801D109200EE0AFF2C00080787428EF
:103B600001D10A2007E0AFF2CC008078762801D19D
:103B70000B2000E00C202F490968A1F86000AFF28B
:103B8000E40041793039AFF2EC000079202801D10E
:103B9000002003E0AFF2FC000079303800EB800039
:103BA00001EB400023490968A1F8620022A0417896
:103BB000303921A00078202801D1002002E01EA089
:103BC0000078303800EB800001EB400019490968AB
:103BD000A1F8640018A00179303917A0C078202816
:103BE00001D1002002E014A0C078303800EB800042
:103BF00001EB40000F490968A1F866000EA0C179E9
:103C000030390DA08079202801D1002002E00AA0DF
:103C10008079303800EB800001EB400005490968ED
:103C2000A1F86800002003490968C88101490968B2
:103C3000088210BDF801002031343A30313A323672
:103C40000000000008480949086009484860094820
:103C5000886009484861094808610948C8600948FE
:103C6000C861094888617047300405080C77002056
:103C700070050508B0060508B00B0508300E0508EC
:103C800030090508700F0508F00705082DE9F04117
:103C900005460C460026606800B100BF134800F0DE
:103CA00049F80746124800F045F80743114800F06C
:103CB00041F80743AFB9606860B1D4E90001084337
:103CC000A1680843E168084369680B4A114008434A
:103CD000686007E068680849084021680843686030
:103CE00000E001263046BDE8F081000000200140E0
:103CF0000021014000220140E010FCFF70B50446A5
:103D00000D460026204600F015F870B9A96828680D
:103D100008436168064A114008436060A06820F4C7
:103D2000006069680843A06000E00126304670BD6D
:103D3000FFFEFFFC0146886800F0010070470000AC
:103D400070B504460D460026686800B100BF2046E5
:103D5000FFF7F0FF00BB686830B1606820F468408E
:103D6000A9680843606003E0606820F46840606010
:103D7000286800F07060E968084329690843A16871
:103D8000074A11400843A0606868E16A21F47001A5
:103D90000143E16200BF00E00126304670BD000033
:103DA000FDFCFFC04FF4407C9CFAACFC01F4407376
:103DB000BCFA8CFC23FA0CF300EB8300C36A01F01D
:103DC0001F014FF01F0C0CFA01FC02F01F0223EA46
:103DD0000C0302FA01F11943C162704730B44FF08D
:103DE000007C9CFAACFC01F00073BCFA8CFC23FA5A
:103DF0000CF300EB8300D0F80CC04FF0F87393FA8B
:103E0000A3F401F0F871B4FA84F421FA04F407255C
:103E100005FA04F493FAA3F3B3FA83F3D9402CEA36
:103E2000040C02FA01F14CEA0101C16030BC704798
:103E3000024909680143014A116070472038024075
:103E4000024909688143014A1160704720380240E5
:103E5000024909680143014A116070472438024051
:103E6000024909688143014A1160704724380240C1
:103E700030B500F10804C1F3034504EB85031C6869
:103E80006FF30B0414431C6030BD10B5026801F0E1
:103E900010040123A3401A43026010BDF0B503468D
:103EA0000024506800B100BF08461D6800F01007EC
:103EB0000126BE40354000F010070126BE40B54245
:103EC00001D1012500E0002525BB506898B1186894
:103ED00001F0100640F6FA75B540A843D2E9005645
:103EE000354396683543D668354301F01006B54032
:103EF000284318600FE0186801F01006FA25B54055
:103F0000A843D6681568354301F01006B54028432C
:103F1000186000E001242046F0BD0000044A525C15
:103F2000825842F01002024B5B5CC25070470000A6
:103F3000F6020508044A525C825842F01002024B15
:103F40005B5CC2507047000021030508044A525CC4
:103F5000825842F00402024B5B5CC2507047000082
:103F6000F6020508044A525C825842F00402024BF1
:103F70005B5CC2507047000021030508044A525C94
:103F8000825842F00102024B5B5CC2507047000055
:103F9000F6020508044A525C825842F00102024BC4
:103FA0005B5CC250704700002103050810B5064B4A
:103FB0005B5C03445B686FF30F031343024C645C68
:103FC0000444636010BD0000F602050810B5064BFE
:103FD0005B5C03445B686FF30F031343024C645C48
:103FE0000444636010BD000021030508024B5B5CC4
:103FF0000344DA6070470000F6020508024B5B5C80
:104000000344DA607047000021030508024B5B5C43
:1040100003449A6070470000F6020508024B5B5C9F
:1040200003449A607047000021030508F0B502467A
:104030000B4600240021186890FAA0F0B0FA80F432
:104040008AE00125A540186800EA050100297DD015
:104050005868012802D0586802281CD198689568D1
:1040600091FAA1F6B6FA86F677000326BE40B5436C
:1040700091FAA1F6B6FA86F6760000FA06F635430E
:10408000956000BFD86855688D4301FB00F6354345
:10409000556000BF00BF1869D56891FAA1F6B6FA5D
:1040A00086F677000326BE40B54391FAA1F6B6FA2C
:1040B00086F6760000FA06F63543D56000BF5868EC
:1040C000022831D191FAA1F0B0FA80F0082814D278
:1040D0005869156A91FAA1F6B6FA86F6B7000F2666
:1040E000BE40B54391FAA1F6B6FA86F6B60000FADC
:1040F00006F63543156200BF16E05869556A0E0A88
:1041000096FAA6F6B6FA86F6B7000F26BE40B54375
:104110000E0A96FAA6F6B6FA86F6B60000FA06F683
:104120003543556200BF00BF5868156891FAA1F683
:10413000B6FA86F677000326BE40B54391FAA1F69B
:10414000B6FA86F6760000FA06F600E003E035439C
:10415000156000BF00BF641C1868E04000287FF4B1
:1041600070AFF0BD024610690840884201D10120BD
:1041700070470020FCE70A04826170478161704744
:1041800010B5044604F0ECFA2060206804F0B4FA9C
:104190006060606804F0C0FAA060606804F0CEFA65
:1041A000E06010BD02480068C0F38810704700004E
:1041B0000438024010B500F1500303EB81031A608C
:1041C00010BD0000F0B5059C04F0F006360404F0C4
:1041D0000F0746EA074646EA413603F0F0073F027A
:1041E00003F00F0C47EA0C273E4302F0F00702F001
:1041F0000F0C47EA0C0746EA07054668024F3E40A7
:104200002E434660F0BD0000C00000FF2DE9F84FCE
:1042100006460D46144601274DB9607800F010009F
:10422000102804D1607800F0EF000A30607005B902
:1042300000E000BF304600F058F8304600F05DF86E
:10424000012848D045B1E07800906378A2782178C1
:104250003046FFF7B7FF31E0E0780A21B0FBF1F21A
:1042600001FB1200E1780A22B1FBF2F140EA0110F1
:1042700000F0FF0860781146B0FBF1F201FB12007C
:1042800061780A22B1FBF2F140EA011000F0FF0967
:10429000A0781146B0FBF1F201FB1200A1780A22CE
:1042A000B1FBF2F140EA011000F0FF0ACDF8008006
:1042B00021784B4652463046FFF784FF304600F0E7
:1042C00010F8304600F07BF820B9304600F00EF9C7
:1042D000074600E00027304600F00CF83846BDE8FD
:1042E000F88F6FF08001C1607047CA21416253218D
:1042F00041627047FF2141627047F8B504464FF4B0
:104300007A70009000250026204600F04EF8D0B9C3
:1043100000BF681EE06000BF204600F046F8064679
:104320000DE000F04DF9012802D10098401E0090E8
:10433000204600F03AF80646009800B9012500989A
:1043400008B1012EEDD12846F8BD0146886800F07D
:104350004000704770B504460D4601262046FFF721
:10436000C4FF2046FFF7C9FF012819D02868A168BB
:1043700021F040010143A16000BFA86821696FF3EB
:104380000E010143216100BF6868216921F4FE012B
:1043900041EA0041216100BF2046FFF7A2FF00264D
:1043A0002046FFF7A7FF304670BD0146C868C0F33E
:1043B000801070470146C868C0F34010704701463E
:1043C0008868C0F340107047F0B5059C02F0F00615
:1043D000360402F00F0746EA07460E4303F0F007E3
:1043E0003F0203F00F0C47EA0C273E4304F0F007AE
:1043F00004F00F0C47EA0C0746EA07050668024F6F
:104400003E402E430660F0BD808080FF2DE9F84FCE
:1044100006460D461446012745B93046FFF795FF7D
:1044200000B102E00020206000BF08E03046FFF746
:104430008CFF00B102E00020206000BF00BF3046CA
:10444000FFF753FF3046FFF758FF012848D045B12A
:10445000A07900906379227930462168FFF7B4FF94
:1044600031E0A0790A21B0FBF1F201FB1200A17941
:104470000A22B1FBF2F140EA011000F0FF08607976
:104480001146B0FBF1F201FB120061790A22B1FB87
:10449000F2F140EA011000F0FF0920791146B0FB6B
:1044A000F1F201FB120021790A22B1FBF2F140EA9C
:1044B000011000F0FF0ACDF800804B46524630460E
:1044C0002168FFF781FF3046FFF70BFF3046FFF70B
:1044D00076FF20B9304600F009F8074600E00027D3
:1044E0003046FFF707FF3846BDE8F88FF8B50446B9
:1044F0004FF47A7000900025002600BFE06800F0BD
:10450000800060F0A000E06000BF2046FFF752FF8F
:1045100006460DE000F054F8012802D10098401E34
:1045200000902046FFF746FF0646009800B9012597
:10453000009808B1012EEDD12846F8BD30B50246ED
:10454000012300BF1068C0F3801038BBD1E900041C
:1045500020438C682043CC6820430C6920434C697D
:1045600020438C692043CC6920430C6A20431468A3
:104570004FF6BF75AC4320431060506820F0040034
:104580004C6940EA14405060086AB0F5005F04D1FD
:10459000486A84B2146100BF00BF0023D06920F4D0
:1045A0000060D061184630BD0146886800F0010007
:1045B000704701468868C0F3400070470173704738
:1045C0004FF0E0200069C0F30040704701490860E7
:1045D000704700005C030020026A0A4302627047D1
:1045E000016841F0010101607047016841F001017B
:1045F00001607047C16841F00101C160704700006F
:1046000010B5024613682C4882420ED0B2F1804F9A
:104610000BD02A48824208D02948824205D0294836
:10462000824202D02848824204D123F070004C68B4
:1046300040EA04032048824220D0B2F1804F1DD0CE
:104640001E4882421AD01E48824217D01D4882421C
:1046500014D01D48824211D01C4882420ED01C4802
:1046600082420BD01B48824208D01B48824205D0B0
:104670001A48824202D01A48824204D123F4407080
:10468000CC6840EA040313608868D06200BF0888E1
:10469000906200BF0848824202D00B48824203D198
:1046A0000869106300BF00BF00BF506940F00100FF
:1046B000506100BF002010BD000001400004004018
:1046C00000080040000C0040000401400040014090
:1046D000004401400048014000180040001C004018
:1046E0000020004001291AD004291AD010291AD01C
:1046F00040291AD0B1F5807F19D0B1F5806F18D05C
:1047000006210D4A1830525C104402680B4B595C6C
:10471000042303FA01F122EA01010160704700213C
:10472000EFE70121EDE70221EBE70321E9E70421AF
:10473000E7E70521E5E70000FC110508031205087D
:10474000012919D0042919D0102919D0402919D0CC
:10475000B1F5807F18D0B1F5806F17D006210C4AD3
:104760001830525C104402680A4B595C082303FA63
:1047700001F11143016070470021F0E70121EEE7EC
:104780000221ECE70321EAE70421E8E70521E6E757
:10479000FC110508031205082DE9F04106460C46F8
:1047A00015460127012C08D0102C0CD0B4F5807FC1
:1047B0000FD0B4F5805F18D111E02946304601F0E2
:1047C00023FB074612E02946304601F05DFB074611
:1047D0000CE02946304601F09DFB074606E02946DD
:1047E000304601F0D7FB074600E000BF00BF384667
:1047F000BDE8F0814163704781637047C1637047D2
:104800004162704770B5044600252348844206D1B2
:104810001020FFF71DFB1020FFF722FB3AE01F4896
:10482000844208D14FF40030FFF702FB4FF4003010
:10483000FFF706FB2EE01A48844208D14FF480208F
:10484000FFF7F6FA4FF48020FFF7FAFA22E0154856
:10485000844206D12020FFF7FBFA2020FFF700FB5F
:1048600018E01148844208D14FF40020FFF7E0FA25
:104870004FF40020FFF7E4FA0CE00C48844208D122
:104880004FF48010FFF7D4FA4FF48010FFF7D8FAF6
:1048900000E00125284670BD0010014000440040A2
:1048A0000048004000140140004C0040005000400F
:1048B00000BF00BF00F10C0252E8002F22F02001DF
:1048C00000F10C0242E80013002BF3D100BF704747
:1048D00000BF00BF00F10C0252E8002F22F080015F
:1048E00000F10C0242E80013002BF3D100BF704727
:1048F00000BF00BF00F10C0252E8002F42F020017F
:1049000000F10C0242E80013002BF3D100BF704706
:104910002DE9FF4104460D4601270026204600F000
:1049200059F8002845D1E9686868084329690843AF
:10493000A9690843E16849F20C6291430843E060C9
:10494000A868216921F440510143216100BF6869D1
:10495000616921F440710143616100BF6846FFF75E
:104960000FFC1648844201D1039E17E0144884428C
:1049700001D1029E12E01348844201D1029E0DE053
:104980001148844201D1039E08E01048844201D1BD
:10499000029E03E00E48844200D1029E4EB1286878
:1049A00038B10027314620462B68AA6900F017F875
:1049B00000BF384604B0BDE8F0810000001001409F
:1049C000004400400048004000140140004C0040FA
:1049D000005000400146C868C0F3403070472DE9E0
:1049E000FC5F06460C4691461D46B9F5004F68D15E
:1049F0000220A0FB057003461920A4FB00A001467D
:104A00003A465046FBF7B4FC6421B0FBF1F04FEAA4
:104A1000001A0220A0FB05710B461920A4FB00B16F
:104A20003A465846FBF7A4FC83460220A0FB0570DB
:104A300003461920A4FB00013A46CDE90001FBF72B
:104A400097FC6421B0FBF1F000EBC00101EB00101A
:104A5000ABEB8000322101EBC0006421B0FBF1F030
:104A600000F0F8000AEB400A0220A0FB05700346A4
:104A70001920A4FB00B13A465846FBF779FC83465F
:104A80000220A0FB057003461920A4FB00013A4652
:104A9000CDE90001FBF76CFC6421B0FBF1F000EB09
:104AA000C00101EB0010ABEB8000322101EBC00034
:104AB0006421B0FBF1F000F00700504480B2B06018
:104AC00067E00420A0FB057003461920A4FB00A0AA
:104AD00001463A465046FBF74BFC82460420A0FBB9
:104AE00005711920A4FB00B084463A460B4658468F
:104AF0006146FBF73DFC6421B0FBF1F000EBC00127
:104B000001EB0010AAEB8000322101EB00106421C0
:104B1000B0FBF1F000F0F00A0420A0FB05700346A2
:104B20001920A4FB00B001463A465846FBF720FC8A
:104B30006421B0FBF1F00AEB001A0420A0FB057021
:104B400003461920A4FB00B13A465846FBF710FC77
:104B500083460420A0FB057003461920A4FB000136
:104B60003A46CDE90001FBF703FC6421B0FBF1F00C
:104B700000EBC00101EB0010ABEB8000322101EB38
:104B800000106421B0FBF1F000F00F00504480B23F
:104B9000B060BDE8FC9F000070B594B00024119493
:104BA000129413940C940D940E940F9410940894F2
:104BB00009940A940B9404940594069407947348FA
:104BC000016841F480710160006800F48070019018
:104BD0006F48016841F001010160016801F00101C5
:104BE0000191016841F002010160006800F00200DB
:104BF0000190832002900325039502A96548FFF7E1
:104C000015FA022602960395069402A96248FFF758
:104C10000DFA6249624802788A58037822F060628D
:104C2000CA5002788A58037822F0C002CA5002782B
:104C30008A58037822F44032CA5002788A5803789E
:104C400022F4907242F48072CA5002788A58037833
:104C500022F40072CA5002788A58037842F48062C3
:104C6000CA5002788A58037822F4C05242F4006293
:104C7000CA5002788A58037822F4C04242F40052A3
:104C8000CA50027847495258007822F00402425034
:104C90001194129488151390434D11A92846FFF7DB
:104CA0002DF80C944FF4A0000D900E940F964FF435
:104CB000407010900CA92846FFF742F8A86820F42D
:104CC0008060A8604FF4403008900994374C08A9E0
:104CD0002046FEF7DBFF320611142846FFF762F884
:104CE000072231062846FFF779F8314E40F20521B8
:104CF00032462846FFF756F8072231462846FFF786
:104D00006DF82C4E40F20A2132462846FFF74AF849
:104D1000072231462846FFF761F8274E40F20F215F
:104D200032462846FFF73EF8072231462846FFF76D
:104D300055F8224E4FF4057132462846FFF732F8F7
:104D4000072231462846FFF749F8606820F4400002
:104D500040F4000060601A4E40F2192132462846A5
:104D6000FFF720F8072231462846FFF737F860683A
:104D700020F4400040F480006060D5F8040340F463
:104D80004000C5F8040314B070BD00004438024070
:104D9000303802400000024000040240006402403B
:104DA000F411050814640240002001400023014072
:104DB00001003002070050030900B00310002081F9
:104DC0001200808110B58CB00024089409940A94D4
:104DD0000B9404940594069407941648016841F0D6
:104DE00000510160006800F0005001901248016815
:104DF00041F001010160006800F0010001903020E5
:104E000002900320039002A90C48FFF70FF9382005
:104E10000890099402200B900A4C08AA08492046E1
:104E2000FFF73CF808AA08492046FFF737F80CB00E
:104E300010BD0000403802403038024000000240FF
:104E400001001002007400401200431538B52D48CF
:104E5000016841F480010160016801F48001009162
:104E6000016841F400110160006800F40010009036
:104E7000254C2068C0F302200022052100F0A8FF85
:104E8000224900010870224D4FF4805028602068AC
:104E9000C0F302200022052100F09AFF1D49000105
:104EA00081F800044FF4804028602068C0F302209D
:104EB0000022052100F08CFF1749000181F8000451
:104EC0002D1D4FF0807028602068C0F30220002262
:104ED000052100F07DFF1149000181F800044FF029
:104EE000007028602068C0F302200022052100F035
:104EF0006FFF0B49000181F800040A492020C1F826
:104F0000000138BD303802400CED00E00CE400E058
:104F100000E100E00EE000E038E000E039E000E011
:104F200045E000E008E000E010B52A4807F053F83B
:104F3000294C2062294807F04EF860620121284A76
:104F4000084607F0FFF8A0620121264A084607F04C
:104F5000F9F8E0620121244A084607F0F3F82063DB
:104F60000121224A084607F0EDF860630022204B39
:104F70001146204807F0B4FA606100221E4B11462A
:104F80001E4807F0ADFAA0611D4B002201211D480B
:104F900007F0A6FAE0611C4A00211C4807F043FA1A
:104FA00020601B4A00211B4807F03DFA60601A4A46
:104FB00000211A4807F037FAA060194A0021194861
:104FC00007F031FAE060184A0021184807F02BFA80
:104FD000206110BD9411050820030020A4110508CC
:104FE000B4110508C4110508D4110508E411050819
:104FF0006411050841860408741105084D3304083E
:1050000084110508098C0408B010050831930408C0
:10501000D4100508219E0408F81005082D85040801
:105020001C11050821A804084011050879970408F7
:105030002DE9F04788B00024049406940794604852
:10504000016841F010010160016801F01001019157
:10505000016841F004010160016801F0040101915F
:10506000016841F080010160016801F08001019157
:10507000016841F001010160016801F00101019145
:10508000016841F002010160016801F00201019133
:10509000016841F008010160006800F0080001901B
:1050A0003F21484EB16141F6FC01474FB9614FF4D1
:1050B0007E71DFF81881C8F818100807B0614FF04A
:1050C000E050C8F818004248B861DFF808910002C3
:1050D000C9F81800DFF800A14FF08070CAF8180076
:1050E0003720029001250395059502A93046FEF769
:1050F0009DFF48F2080002900395049405940694DD
:1051000002A93046FEF792FF4020029003940694D5
:1051100002A93046FEF78AFF6803029003940694C2
:1051200002A94846FEF782FFA80302900394069561
:1051300002A93046FEF77AFF4FF4E0500290039543
:1051400004940594069402A94046FEF76FFF4CF2C2
:105150001F400290039504940594069402A93846D2
:10516000FEF764FF4FF4C750029003950494059531
:10517000069402A93846FEF759FF4FF4407002909A
:10518000039504940594069402A94846FEF74EFF41
:1051900028020290039504940594069402A95046AF
:1051A000FEF744FF4FF47E7002900395049405953A
:1051B000069402A94046FEF739FF08B0BDE8F08723
:1051C0003038024000100240000C0240000402404F
:1051D000000003C400080240000002400C494CF6E5
:1051E000CC40086045F2555008600620486040F603
:1051F000FF708860C86810F0030F06D000200128F7
:10520000F8D14AF6AA20086070470120F7E70000AD
:105210000030004070B588B00024049405940694D2
:105220000294039401944548016801F44071B1F57A
:10523000807F47D000234FF08051DFF804C1DCF8B5
:105240000020914314D0002101290BD0DCF800107C
:1052500041F08051CCF80010DCF8001001F08051D2
:105260000091012337490A68C2F3002212B10AE013
:105270000121E9E70A6842F480720A600A68C2F311
:105280000022002AFAD0016841F4803101600168EF
:1052900021F480310160016841F001010160016881
:1052A000C1F340010029FAD0016821F4407141F4B2
:1052B00080710160012B05D1DCF8001021F08051D4
:1052C000CCF80010016841F40041016004947F2093
:1052D0000590FF2006901C4E04A935462846FFF78E
:1052E00039F8286940F4FE00286128696FF30E0040
:1052F00040F0FF002861154D2868A0F54851F239AB
:105300001AD08DF80C408DF80D408DF80E4002AA91
:1053100001213046FFF77AF801218DF804108DF84D
:1053200005108DF806108DF8074001AA3046FEF7EB
:105330006DFF43F2F220286008B070BD7038024063
:1053400040380240007000400028004050280040D3
:1053500010B592B00024089409940A940B940C940C
:105360000D940E940F9410941194059406941D4876
:10537000016841F480410160006800F480400190C0
:105380001948016841F002010160006800F0020064
:1053900001904FF46040029002200390032004909B
:1053A0000520079002A91148FEF740FE08944FF42B
:1053B000827009900A940B9401200C9040020D9089
:1053C00010200E900F9410940A201190084C08A9F8
:1053D0002046FFF7B3F8616821F01001616012B058
:1053E00010BD000040380240303802400004024046
:1053F0000038004030B593B00024089409940A9412
:105400000B940C940D940E940F9410941194059495
:1054100006941D48016841F400410160006800F4F1
:10542000004001901948016841F0040101600068E2
:1054300000F0040001904FF4E05002900225039523
:10544000032004900620079002A91148FEF7EEFD04
:1054500008944FF4827009900A940B9501200C90E7
:1054600040020D9018200E900F9410940A20119075
:10547000084C08A92046FFF761F8616821F0100187
:10548000616013B030BD0000403802403038024047
:1054900000080240003C004010B586B0002001909A
:1054A00002900390049005901B48016841F480210C
:1054B0000160006800F48020009018480068C0F384
:1054C0000220C0F10701042900D90421021D072A86
:1054D00001D2002000E0C01E012202FA01F1491EA3
:1054E00001F0050101FA00F00D49000108704FF0CC
:1054F000E0219006C1F80001A720ADF80400322099
:105500000390084C01A92046FFF77AF8216821F0A2
:105510008001216006B010BD443802400CED00E06F
:105520001AE400E00048014030B595B00024109422
:10553000119413941494089409940A940B940C9461
:105540000D940E940F94029403940494059406947D
:1055500007942548016841F001010160006800F0EE
:1055600001000190ADF84040601E129010A94FF06C
:105570008040FFF745F84FF08045286820F0800014
:10558000286001218807FFF7DBF860200890099464
:105590000A940B940C94012108AA8807FFF7FCF8E1
:1055A00001218807FFF79EF8686820F070006860A6
:1055B000A86820F08000A8600C48016841F0010153
:1055C0000160006800F001000190E81302900220E1
:1055D00003900494059406940120079002A90448BE
:1055E000FEF724FD15B030BD40380240303802408F
:1055F0000000024030B595B000241094119413942B
:105600001494089409940A940B940C940D940E9499
:105610000F940294039404940594069407943548D7
:10562000016841F002010160006800F00200019091
:10563000ADF840404EF6602012902F4D10A928463C
:10564000FEF7DEFF286820F0800028600121284650
:10565000FFF776F86020089009940A9447F23050DA
:105660000B900C9408AA01212846FFF795F8012118
:105670002846FFF737F8A9152846FFF761F808AA6A
:10568000A9152846FFF788F8A9152846FFF72AF834
:10569000686820F070006860A86820F08000A8604A
:1056A0001648016841F001010160016801F0010143
:1056B0000191016841F002010160006800F0020000
:1056C00001904020029002250395049405940694CD
:1056D000079502A90A48FEF7A9FC0120029003954C
:1056E000049405940694079502A90648FEF79EFCCB
:1056F00015B030BD40380240000400403038024050
:10570000000002400004024030B595B0002410941F
:10571000119413941494089409940A940B940C947F
:105720000D940E940F94029403940494059406949B
:1057300007942748016841F004010160006800F007
:10574000040001904520ADF8400043F698201290E7
:10575000204D10A92846FEF753FF286820F080004E
:10576000286010212846FEF7EBFF6020089009947E
:105770000A940B940C9408AA10212846FFF70CF801
:1057800010212846FEF7AEFF686820F070006860C0
:10579000A86820F08000A860286840F00100286018
:1057A0000D48016841F008010160006800F0080040
:1057B00001906814029002200390049405940694CA
:1057C000079002A90548FEF731FC15B030BD000076
:1057D000403802400008004030380240000C0240CF
:1057E00010B586B0002001900290049005901148F9
:1057F000016841F010010160006800F010000090A5
:10580000A820ADF804004FF47A7003900A4C01A967
:105810002046FEF7F5FE206820F0800020606068DA
:1058200020F070006060A06820F08000A06006B0EA
:1058300010BD0000403802400010004010B586B096
:105840000020019002900390049005901F490A687F
:1058500042F020020A60096801F0200100911C4911
:105860000968C1F30221C1F10702042A00D9042208
:105870000B1D072B01D2002100E0C91E012303FAF2
:1058800002F2521E02F0050202FA01F1114A090168
:1058900011701149DA05C1F80021ADF804004FF686
:1058A000FF7003900D4C01A92046FEF7A9FE206869
:1058B00020F080002060606820F070006060A068C8
:1058C00020F08000A06006B010BD0000403802400B
:1058D0000CED00E037E400E004E000E000140040DC
:1058E00010B590B00024089409940A940B940C9479
:1058F0000D940E94059406942C48016841F0100113
:105900000160006800F0100001902948016841F032
:1059100001010160006800F0010001904FF4C060D7
:10592000029002200390032004900720079002A910
:105930002048FEF77BFB20480068C0F30220C0F13E
:105940000701042900D90421021D072A01D20020E1
:1059500000E0C01E012202FA01F1491E01F005011A
:1059600001FA00F015490001087015492020C1F81E
:1059700000014FF4E130089009940A940B940C2034
:105980000C900D940E940F4C08A92046FEF7C0FF12
:10599000206920F490402061606920F02A00606155
:1059A000E06840F40050E06010B010BD44380240A0
:1059B00030380240000002400CED00E025E400E039
:1059C00004E000E00010014010B590B000240894FD
:1059D00009940A940B940C940D940E9405940694D7
:1059E0007048016841F480210160006800F4802063
:1059F00001906D48016841F008010160006800F005
:105A0000080001904FF440700290022003900320A0
:105A100004900720079002A96448FEF707FB644939
:105A2000644842788A58437822F0606242F000620B
:105A3000CA5042788A58437822F0C002CA5042784D
:105A40008A58437822F44032CA5042788A584378C0
:105A500022F49072CA5042788A58437822F4007235
:105A6000CA5042788A58437842F48062CA504278D9
:105A70008A58437822F4C052CA5042788A584378F0
:105A800022F4C042CA5043784B4A9B5890F801C058
:105A900023F004034CF80230C378CB5890F803C0CD
:105AA00023F0606343F0006341F80C30C378CB58B7
:105AB00090F803C023F0C00343F0400341F80C30DA
:105AC000C378CB5890F803C023F4403341F80C302E
:105AD000C378CB5890F803C023F4907341F80C308E
