:020000040804EE
:1000000068AE0020310304082FA90408C77704084C
:100010000DA90408B1280408616B05080000000060
:100020000000000000000000000000007102040851
:10003000D148040800000000CD020408F55D050861
:100040004B03040825B104084B0304084B030408C0
:100050004B0304084B0304084B0304084B03040838
:100060004B0304084B0304084B0304084B03040828
:100070008D4404084B030408FD4404084B030408A2
:100080004B0304084B0304084B0304084B03040808
:100090004B0304084B0304084B0304084B030408F8
:1000A0004B0304084B030408395F05084B0304089D
:1000B0004B0304084B0304084B0304084B030408D8
:1000C0004B0304084B0304084B0304084B030408C8
:1000D0004B030408656805084B03040845690508D7
:1000E0004B03040821E204084B0304084B030408F3
:1000F0004B030408455F05084B0304084B03040841
:100100004B0304084B0304084B0304084B03040887
:100110004B0304084B0304083D5F0508415F0508D5
:100120007D450408C14604084B0304084B0304083A
:100130004B0304084B0304084B0304084B03040857
:100140004B0304084B0304084B0304084B03040847
:100150004B030408314704084B0304082D6A0508C3
:100160004B0304084B0304084B0304084B03040827
:100170004B0304084B0304084B0304080000000071
:100180004B0304084B03040800F002F800F061F888
:100190000AA090E8000C82448344AAF10107DA45E2
:1001A00001D100F056F8AFF2090EBAE80F0013F0D3
:1001B000010F18BFFB1A43F001031847E4F40100D4
:1001C00004F501000A444FF0000C10F8013B13F055
:1001D000070408BF10F8014B1D1108BF10F8015BA0
:1001E000641E05D010F8016B641E01F8016BF9D193
:1001F00013F0080F1EBF10F8014BAD1C0C1B09D1EA
:100200006D1E58BF01F801CBFAD505E014F8016B5B
:1002100001F8016B6D1EF9D59142D6D370470000ED
:100220000023002400250026103A28BF78C1FBD8FF
:10023000520728BF30C148BF0B607047642900F0E7
:100240005981002070471FB51EF083F81FBD10B5FF
:1002500010BD00F0E1FA1146FFF7F5FF19F038FB89
:1002600000F0FFFA03B4FFF7F2FF03BC17F018FF2A
:100270002C4B19680868B0E8F04F80F30988BFF389
:100280006F8F4FF0000080F311887047000000006E
:1002900008480068006880F308884FF0000080F389
:1002A000148862B661B6BFF34F8FBFF36F8F00DF64
:1002B00000BF00BF08ED00E0DFF80C00016841F46A
:1002C00070010160704700BF88ED00E0EFF3098026
:1002D000BFF36F8F134B1A681EF0100F08BF20ED8D
:1002E000108A20E9F04F106009B44FF0500080F3FD
:1002F0001188BFF34F8FBFF36F8F1BF0E7F94FF0FB
:10030000000080F3118809BC19680868B0E8F04F54
:100310001EF0100F08BFB0EC108A80F30988BFF3FD
:100320006F8F704700000020EFF3058070470000DA
:100330000948804709480047FEE7FEE7FEE7FEE779
:10034000FEE7FEE7FEE7FEE7FEE7FEE704480549B5
:10035000054A064B70470000195F0508890104082B
:100360006886002068AE002068A6002068A60020ED
:1003700053EA020C00F069802DE9F04B4FF00006C3
:10038000002B1FBFB3FA83F503FA05F424FA05F630
:100390005E4012BF1643B2FA82F502FA05F4C5F1C7
:1003A00020051EBF22FA05FC44EA0C04203556EA5B
:1003B000044C4FEA144418BF641C4FF000084FF07F
:1003C0000009904271EB030C39D3002919BFB1FA2F
:1003D00081F701FA07F6B0FA80F700FA07F6C7F1DD
:1003E00020071EBF20FA07FC46EA0C062037B6FBA2
:1003F000F4FCA7EB0507103F07F01F0BCBF120061D
:100400000CFA0BFB2CFA06F644BFB3460026202F4D
:10041000A4BF5E464FF0000B5BEA060C08BF4FF02E
:10042000010B19EB0B09ABFB027C48EB0608C01B68
:1004300006FB02CC0BFB03CC71EB0C01C1E70B46B6
:10044000024641464846BDE8F08B13B54FF0000028
:100450004FF00001AFF30080BDE81C407047000082
:100460000FB41CB5084B06AA7B446946009005985A
:1004700000F08FF904460020694600F09DF92046FF
:100480001CBC5DF814FB00004D0300002DE9F04199
:100490000E460446002020622046E168884730B3BB
:1004A000252805D0D4E901219047206A401CF2E7B5
:1004B000E168204600278847050018D0A5F14100D3
:1004C000192802D820354FF40067324629462046C5
:1004D0002760FFF7B3FE40B1012804D0F61D26F0D7
:1004E00007060836D8E7361DD6E72846DAE7206A39
:1004F000BDE8F0812DE9F041064600241068752919
:10050000314616A510D0AFF30080002802DA404231
:1005100013A507E031688A0701D512A502E0490753
:1005200004D511A5012401E0AFF3008000210A22C7
:1005300006F1240709E0B0FBF2FCB0FBF2F302FB8A
:100540001C00303078541846491C0028F3D123464B
:100550002A463046BDE8F04100F0BCB8000000007B
:100560002D0000002B00000020000000032A40F2B4
:10057000308010F0030C00F0158011F8013BBCF145
:10058000020F624498BF11F801CB00F8013B38BF5D
:1005900011F8013BA2F1040298BF00F801CB38BF6B
:1005A00000F8013B11F0030300F02580083AC0F089
:1005B000088051F8043B083A51F804CBA0E8081031
:1005C000F5E7121D5CBF51F8043B40F8043BAFF364
:1005D0000080D20724BF11F8013B11F801CB48BFBE
:1005E00011F8012B24BF00F8013B00F801CB48BFF4
:1005F00000F8012B704710B5203AC0F00B80B1E82D
:100600001850203AA0E81850B1E81850A0E8185047
:10061000BFF4F5AF5FEA027C24BFB1E81850A0E850
:10062000185044BF18C918C0BDE810405FEA827C6A
:1006300024BF51F8043B40F8043B08BF7047D20781
:1006400028BF31F8023B48BF11F8012B28BF20F822
:10065000023B48BF00F8012B704702F0FF0343EA5A
:10066000032242EA024200F0AEB84FF0000200B5A9
:10067000134694469646203922BFA0E80C50A0E8C5
:100680000C50B1F12001BFF4F7AF090728BFA0E873
:100690000C5048BF0CC05DF804EB890028BF40F83F
:1006A000042B08BF704748BF20F8022B11F0804F81
:1006B00018BF00F8012B704770477047704710B59E
:1006C00000F0A2F8006810BD10B5044600F09CF8D8
:1006D000046010BD2DE9F0470D4699469246044648
:1006E00000F124080168880604D5E06921F01001B2
:1006F000216000E00120A84201DD471B00E0002747
:10070000A1697A1902EB0900081AA0612078C006D5
:1007100002D42046AFF30080002608E0D4E901218E
:100720001AF806009047206A401C761C20624E454D
:10073000F4DB2078C0060AD52046AFF3008006E03F
:10074000D4E9012130209047206A401C2062381EE5
:10075000A7F10107F4DC07E0D4E9012118F805004E
:100760009047206A401C2062281EA5F10105F3DC99
:100770002046AFF300802078000602D50220BDE8B5
:10078000F0870120FBE7000001694A1C026108783C
:10079000704700B58FB0CDE90131002105910549C1
:1007A0007944CDE9031011466846FFF76FFE0FB09C
:1007B00000BD0000E5FFFFFF0A6802F8010B0A60B8
:1007C00070474FF000020429C0F0128010F0030CB3
:1007D0003FF44DAFCCF1040CBCF1020F18BF00F890
:1007E000012BA8BF20F8022BA1EB0C01FFF73FBFA4
:1007F0005FEAC17C24BF00F8012B00F8012B48BF41
:1008000000F8012B70470000004870470486002064
:1008100000487047048600207546FFF7F9FFAE4692
:1008200005006946534620F00700854618B020B5FC
:10083000FFF78CFDBDE820404FF000064FF00007A9
:100840004FF000084FF0000B21F00701AC46ACE878
:10085000C009ACE8C009ACE8C009ACE8C0098D46E5
:1008600070470446AFF300802046FFF7FBFC000012
:1008700030B14FF480510A04054B9A6100BF05E086
:100880004FF48051024A916100BF00BF70470000E1
:100890000004024008B500200090B12000906A4694
:1008A0000121002000F00DF9002000906A4601218E
:1008B00000F042F800200090C42000906A46012118
:1008C000084600F0FEF8002000906A460121084624
:1008D00000F032F800200090202000906A460121AC
:1008E000022000F0EEF8002000906A46012102206C
:1008F00000F022F800F0D0F808BD10B50120FFF795
:10090000B7FF102000F082F8FF2000F037F804460F
:10091000FF2000F033F840EA0424FF2000F02EF816
:1009200040EA042404F4000008B144F07F440020AD
:10093000FFF79EFF204610BD2DE9F04106460C460C
:1009400015460120FFF794FF0C2101EA8601621E83
:1009500002F00302114341F0200000F00FF80027DD
:1009600004E0FF2000F00AF801C57F1CA742F8DB75
:100970000020FFF77DFFBDE8F081000010B50446C0
:1009800000201E4908800CE01C480088401C1B49C0
:1009900008800846008844F62061884201DD002076
:1009A00010BD174808F01FFA0028EDD01348008842
:1009B000144908802146124808F01AFA00200F490D
:1009C00008800CE00D480088401C0C49088008464F
:1009D000008844F62061884201DD0020E0E70848F5
:1009E00008F0FCF90028EDD004480088064908808A
:1009F00000BF0348007B00BFD2E70000FC020020DC
:100A000000380040020300200403002010B5044613
:100A100000201D4908800BE01B480088401C1A4933
:100A200008800846008844F62061884200DD10BD39
:100A3000164808F0D8F90028EED013480088144969
:100A400008802146114808F0D3F900200E4908809B
:100A50000BE00D480088401C0B49088008460088C0
:100A600044F62061884200DDE1E7084808F0B6F965
:100A70000028EED0044800880649088000BF0348DB
:100A8000007B00BFD3E70000FC02002000380040DC
:100A9000FE0200200003002010B50120FFF7E8FE51
:100AA0000820FFF7B3FF0020FFF7E2FE10BD38B5C6
:100AB000044600946A460121002000F002F800205C
:100AC00038BD2DE9F04106460C4615460120FFF7DA
:100AD000CFFE0C2101EA8601621E02F003021143DF
:100AE00041F04000FFF792FF002704E015F8040BE7
:100AF000FFF78CFF7F1CA742F8DB0020FFF7B8FE52
:100B0000BDE8F0812DE9FC4707460C4615461E4618
:100B10004FF00009094830F814A053461A22214624
:100B20003846CDE9005615F0FEFD8146214648467F
:100B300004F0B6FA80464046BDE8FC87C0E50508EB
:100B40002DE9FC5F81460E46174698464FF0000A95
:100B5000104830F81650B5F57A7F01DCC82D00DA60
:100B6000C8253146484604F02BFE044644B12B46C6
:100B7000022231464846CDE90078A047824601E08E
:100B80004FF0090A3146504604F08AFA8346584627
:100B9000BDE8FC9FC0E505087047000010B5094896
:100BA00007F0A5FF074807F0F3FE00BF054880687F
:100BB00020F480500349886000BF084607F0A6FF74
:100BC00010BD00000028004010B5064807F08FFF58
:100BD000044807F0E2FE034807F093FF014807F0DE
:100BE00095FF10BD0028004000B591B000200F9087
:100BF0000E9001F046BE03F045FA14F0E5FFFE4802
:100C00000068B0F82A0102280FD1FB480068B0F84C
:100C10002C01C0EB001080004FF47A71484301466C
:100C20000890F648006819F035FA83E2F448007835
:100C3000F1490968A1F8EA00142018F0C1FE03F098
:100C400021FA0120EF49096848850003EA4909684B
:100C50004864E9480068406C08900AF061F94FF474
:100C6000FA7018F0ADFE4FF65030E3490968A1F86C
:100C70005C00FA20E0490968A1F8720014F0A4FFB2
:100C80004FF4967018F09CFEDB480068B0F87200D4
:100C900000EE100AF8EE400AB2EE041A80EE810A65
:100CA0008DED080AD4480068B0F95C0007909DED0E
:100CB000080A14F039FD4FF4FA7018F081FE02E0D2
:100CC000642018F07DFED04800780028F8D000207D
:100CD000CD4908704FF4FA7018F072FE4FF480504E
:100CE000C54909684864C4480068406C089003F02E
:100CF00023FB4FF4FA7018F063FE4FF47A70BE498C
:100D00000968A1F85C009620BB490968A1F8720047
:100D100014F05AFF4FF4967018F052FEB64800686F
:100D2000B0F8720000EE100AF8EE400AB2EE041AB3
:100D300080EE810A8DED080AAF480068B0F95C00CA
:100D400007909DED080A14F0EFFC4FF4FA7018F0CC
:100D500037FE02E0642018F033FEAB48007800282C
:100D6000F8D00020A84908700820A3490968486401
:100D7000A1480068406C40F480709F49096848644D
:100D80009D480068406C40F400719B4800684164D5
:100D900099480068406C08900AF0C2F84FF4FA7065
:100DA00018F00EFE4FF47A7093490968A1F85C00C0
:100DB000962091490968A1F8720014F005FF4FF4DC
:100DC000967018F0FDFD8C480068B0F8720000EED7
:100DD000100AF8EE400AB2EE041A80EE810A8DED98
:100DE000080A85480068B0F95C0007909DED080A84
:100DF00014F09AFC4FF4FA7018F0E2FD02E064205F
:100E000018F0DEFD804800780028F8D000207E49E8
:100E10000870082078490968486477480068406C81
:100E200040F4807074490968486473480068406CF5
:100E300040F400707049096848646F480068406C6D
:100E4000089003F079FA4FF4FA7018F0B9FD6F4882
:100E50000078012811D1684909684864664800682B
:100E6000406C40F480516448006841646248006806
:100E7000406C08900AF054F80AE04FF480505E4944
:100E8000096848645C480068406C08900AF048F8BB
:100E90004FF4967018F094FD4FF65030564909689B
:100EA000A1F85C00962054490968A1F8720014F07A
:100EB0008BFE4FF4967018F083FD4F480068B0F831
:100EC000720000EE100AF8EE400AB2EE041A80EE4C
:100ED000810A8DED080A48480068B0F95C00079067
:100EE0009DED080A14F020FC4FF4FA7018F068FD2C
:100EF00002E0642018F064FD434800780028F8D030
:100F000000204149087001213B48006841643A488B
:100F10000068406C40F480513748006841643648AE
:100F20000068406C089003F007FA4FF4FA7018F06C
:100F300047FDF5E008203049096848642E480068FC
:100F4000406C40F480702C49096848642A48006865
:100F5000406C40F4007028490968486426480068DD
:100F6000406C089009F0DCFF4FF4FA7018F028FD8F
:100F70004FF47A7120480068A0F85C1096201E4952
:100F80000968A1F8720014F01FFE4FF4967018F073
:100F900017FD19480068B0F8720000EE100AF8EE6C
:100FA000400AB2EE041A80EE810A8DED080A12485A
:100FB0000068B0F95C0007909DED080A14F0B4FBDE
:100FC0004FF4FA7018F0FCFC02E0642018F0F8FC12
:100FD0000D4800780028F8D000200B490870082040
:100FE00005490968486404480068406C40F4807012
:100FF0000149096848640BE078020020540400208D
:10100000500300207C0200208002002051030020B9
:10101000FE480068406C40F40071FC480068416480
:10102000FA480068406C089003F086F94FF4FA70B3
:1010300018F0C6FCF6480078012811D1F349096878
:101040004864F2480068406C40F48050EF490968F9
:101050004864EE480068406C089009F061FF0AE0BF
:101060004FF48050E94909684864E8480068406CDA
:10107000089009F055FF4FF4967018F0A1FC4FF658
:101080005030E2490968A1F85C00FA21DF480068A5
:10109000A0F8721014F098FD4FF4967018F090FCC0
:1010A000DA480068B0F8720000EE100AF8EE400A64
:1010B000B2EE041A80EE810A8DED080AD34800686A
:1010C000B0F95C0007909DED080A14F02DFB4FF479
:1010D000FA7018F075FC02E0642018F071FCCD483D
:1010E00000780028F8D00020CA4908700120C749BC
:1010F00009684864C5480068406C40F48050C349A2
:1011000009684864C1480068406C089003F014F90D
:101110004FF4FA7018F054FC0F98401CC0B20F90B6
:101120000F980328FFF606AF00200F900220BA495F
:10113000087004E0B848007801283FF477AD00BF9C
:10114000AEE1B5480078B1490968A1F8EA00142079
:1011500018F036FC4FF6E040AC490968A1F85C0095
:101160009620AA490968A1F8720014F02DFD4FF4E9
:10117000967018F025FCA5480068B0F8720000EEE3
:10118000100AF8EE400AB2EE041A80EE810A8DEDE4
:10119000080A9E480068B0F95C0007909DED080AB7
:1011A00014F0C2FA4FF4FA7018F00AFC02E064205E
:1011B00018F006FC974800780028F8D000209549E0
:1011C0000870012191480068416490480068406CB3
:1011D00040F480508D49096848648C480068406C30
:1011E000089009F09DFE4FF4FA7018F0E9FB4FF6F5
:1011F000E04186480068A0F85C10962183480068AA
:10120000A0F8721014F0E0FC4FF4967018F0D8FBC0
:101210007E480068B0F8720000EE100AF8EE400A4E
:10122000B2EE041A80EE810A8DED080A7748006854
:10123000B0F95C0007909DED080A14F075FA4FF4C0
:10124000FA7018F0BDFB02E0642018F0B9FB714899
:1012500000780028F8D000216E48017001206B4909
:101260000968486469480068406C40F480506749E8
:101270000968486465480068406C089003F05CF8B1
:101280004FF4FA7018F09CFB60480068B0F8D80082
:1012900008282DD05D480068B0F8D800132827D062
:1012A0005A480068B0F8D800152821D0574800687F
:1012B000B0F8D80018281BD054480068B0F8D800FF
:1012C0001D2815D051480068B0F8D8001F280FD04D
:1012D0004E480068B0F8D800212809D04B48006873
:1012E000B0F8D8002A2803D004214B480170DCE074
:1012F000CCE0102145480068416444480068406CD7
:10130000089009F00DFE4FF4FA7018F059FB4FF4F5
:101310007A703E490968A1F85C004FF496713B4829
:101320000068A0F8721014F04FFC4FF4967018F09B
:1013300047FB36480068B0F8720000EE100AF8EE7D
:10134000400AB2EE041A80EE810A8DED080A2F4899
:101350000068B0F95C0007909DED080A14F0E4F90C
:101360004FF4FA7018F02CFB02E0642018F028FB10
:10137000284800780028F8D00020264908704FF44B
:10138000FA7018F01DFB10202049096848641F48B6
:101390000068406C089002F0CFFF4FF4FA7018F02C
:1013A0000FFB012019490968486418480068406C1F
:1013B00040F4805015490968486414480068406C3E
:1013C000089009F0ADFD4FF4FA7018F0F9FA4FF6F5
:1013D00050300E490968A1F85C004FF4C8700B4901
:1013E0000968A1F8720014F0EFFB4FF4967018F042
:1013F000E7FA06480068B0F8720000EE100AF8EE4E
:10140000400AB2EE041A80EE810A07E0780200205A
:101410005103002080020020500300208DED080AB7
:10142000FE480068B0F95C0007909DED080A14F0D2
:101430007BF94FF4FA7018F0C3FA02E0642018F058
:10144000BFFAF74800780028F8D00020F449087067
:101450004FF4FA7018F0B4FA0121F04800684164C2
:10146000EE480068406C40F48050EC4909684864DC
:10147000EA480068406C089002F05EFF4FF4FA7092
:1014800018F09EFA0F98401CC0B20F900F980328D6
:10149000FFF62FAF00200F900320E249087004E010
:1014A000E048007802283FF44CAE00BF6DE1DD4813
:1014B0000078DA490968A1F8EA00142018F080FAE7
:1014C0004FF65030D5490968A1F85C009621D34801
:1014D0000068A0F8721014F077FB4FF4967018F0C3
:1014E0006FFACE480068B0F8720000EE100AF8EE0D
:1014F000400AB2EE041A80EE810A8DED080AC74850
:101500000068B0F95C0007909DED080A14F00CF932
:101510004FF4FA7018F054FA02E0642018F050FA10
:10152000BF4800780028F8D00021BD4801704FF472
:10153000FA7018F045FA0121B84800684164B748CC
:101540000068406C40F48050B44909684864B3486E
:101550000068406C089009F0E3FC4FF4FA7018F052
:101560002FFA4FF65030AD490968A1F85C0096207B
:10157000AA490968A1F8720014F026FB4FF496708E
:1015800018F01EFAA5480068B0F8720000EE100AC4
:10159000F8EE400AB2EE041A80EE810A8DED080AD8
:1015A0009E480068B0F95C0007909DED080A14F0B1
:1015B000BBF84FF4FA7018F003FA02E0642018F058
:1015C000FFF9974800780028F8D000209449087067
:1015D0004FF4FA7018F0F4F9012090490968486452
:1015E0008E480068406C40F480508C49096848641B
:1015F0008A480068406C089002F09EFE4FF4FA7032
:1016000018F0DEF93CE002F001F8874909688880AB
:1016100002E0642018F0D4F983480068808800282C
:10162000F7D181480068808B0D907F480068C08B9F
:101630000C900D98B0F5966F05DB0D98B0F5AF6F77
:1016400001DC012000E000200B900C98B0F5966FB3
:1016500005DB0C98B0F5AF6F01DC012000E0002045
:101660000A900B9810B10A9800B10AE00F98401C3C
:10167000C0B20F900F98052802DB032011B000BD07
:10168000C1E700BF00200F9064490D980968A1F8D8
:10169000DA0062490C980968A1F8DC000D981CF08A
:1016A0006DFB9FED620B53EC102BCDE904019DED1A
:1016B000040B51EC100B1CF0B1FBCDE906019DEDC4
:1016C000060B51EC100B1CF015FB54490968A1F8EE
:1016D000DE000C981CF052FB9FED540B53EC102BCA
:1016E000CDE904019DED040B51EC100B1CF096FBB1
:1016F000CDE906019DED060B51EC100B1CF0FAFA3A
:1017000046490968A1F8E0000D981CF037FB9FEDF1
:10171000490B53EC102BCDE904019DED040B51EC6A
:10172000100B1CF07BFBCDE906019DED060B51EC87
:10173000100B1CF0DFFA81B238480068A0F8E21004
:101740000C981CF01BFB9FED3B0B53EC102BCDE9D1
:1017500004019DED040B51EC100B1CF05FFBCDE977
:1017600006019DED060B51EC100B1CF0C3FA2B4942
:101770000968A1F8E40013F0C1FA042029490870AF
:101780004FF4FA7018F01CF904E02648007803289A
:101790003FF48DAE00BF82E0224800781F490968FF
:1017A000A1F8EA00142018F00BF94FF480401B490F
:1017B0000968486419480068406C089009F0B0FB5B
:1017C0004FF4FA7018F0FCF8322014490968A1F8B7
:1017D0006C009FED1A0A1148006880ED240A9FED05
:1017E000180A0E48006880ED250A9FED160A0B487E
:1017F000006880ED260A09480068B0F86E0000B263
:1018000008900648006890F86C0007900246002196
:101810000846089B0BF06AFB004815E078020020A0
:1018200080020020500300207C0200203333333339
:101830003333F33F000000000000E03F0000FA43B4
:101840009A99993E0000FA440068B0F8D80001283F
:101850000ED10920FD490968A1F8E800FB4800689D
:10186000B0F8E8004FF47A714843089018F0A8F8EF
:101870004FF48041F54800684164F4480068406CCA
:10188000089002F059FD4FF4FA7018F099F805200D
:10189000EF4908704FF4FA7018F092F804E0EC4841
:1018A000007804283FF478AF00BF04E1E8480078EE
:1018B000E6490968A1F8EA00142018F081F8E34825
:1018C0000068B0F80A01012804D0022805D00328D6
:1018D00009D105E00120099007E00020099004E00B
:1018E0000020099001E00120C8E600BFC82018F0E0
:1018F00067F8D6480068B0F8D80006285DD005DC47
:1019000071D2DFE800F0CD0C17222D4F15285FD0E3
:1019100017286BD0182868D0192864D1B5E00222A6
:101920004FF4C8714FF41670099B0BF0EBFDC949D9
:101930000870B7E00E224FF4C8714FF41670099B7F
:101940000BF0E0FDC3490870ACE005224FF4C8710C
:101950004FF41670099B0BF0D5FDBE490870A1E04D
:10196000BA480068B0F8FC010E280AD10E224FF4E4
:10197000C8714FF41670099B0BF0C4FDB54908708F
:101980000FE0B2480068B0F8FC01082809D108222D
:101990004FF4C8714FF41670099B0BF0B3FDAD49BD
:1019A00008707FE002224FF4C8714FF41670099B53
:1019B0000BF0A8FDA749087074E002224FF4C8712B
:1019C0004FF41670099B0BF09DFDA249087069E069
:1019D00005224FF4C8714FF41670099B0BF092FD6D
:1019E0009C4908705EE05BE000E043E097480068D7
:1019F000B0F8FC010E280AD10E224FF4C8714FF442
:101A00001670099B0BF07EFD9249087031E08F48FB
:101A10000068B0F8FC0108280AD108224FF4C87108
:101A20004FF41670099B0BF06DFD8A49087020E099
:101A300086480068B0F8FC0105280AD105224FF459
:101A4000C8714FF41670099B0BF05CFD814908705A
:101A50000FE07E480068B0F8FC01022809D102229C
:101A60004FF4C8714FF41670099B0BF04BFD794988
:101A7000087017E005224FF4C8714FF41670099BE7
:101A80000BF040FD734908700CE008224FF4C87158
:101A90004FF41670099B0BF035FD6E49087001E09C
:101AA0000220EBE500BF0620694908704FF4FA7088
:101AB00017F086FF04E06648007805283FF4F6AE8C
:101AC00000BF31E06248007860490968A1F8EA0087
:101AD000142017F075FF002303224FF4C8714FF450
:101AE00016700BF00FFD5B4908700846007810B1C6
:101AF00008460078C2E555480068B0F82401401E49
:101B000052490968A1F8240150480068B0F824013E
:101B1000322801DC0620B1E507204D4908704FF45A
:101B2000FA7017F04DFF03E0494800780628C9D045
:101B300000BFA6E04648007844490968A1F8EA00D9
:101B4000142017F03DFF09F011F978203F4909688A
:101B5000A1F86C0005203D490968A1F86E009FEDD1
:101B60003E0A3A48006880ED240AB2EE000A37487F
:101B7000006880ED250A9FED390A3448006880ED41
:101B8000260A32480068B0F86E0000B208902F486C
:101B9000006890F86C000790024600210846089BF8
:101BA0000BF088F94FF47A7017F00AFF1EE027480F
:101BB0000068D0ED210A25480068B0F86C00401E8E
:101BC00000EE100AB8EEC00AF4EEC00AF1EE10FA08
:101BD00000DB0CE022480089012804D100212048C4
:101BE000018109204AE5C82017F0EAFEDFE700BFBF
:101BF000002014F015F802F0D3FA01210B2014F0A4
:101C0000B1FF22E01148006890ED210ADFED150ACE
:101C1000B4EEE00AF1EE10FA00D825E0002013F04F
:101C2000FFFF642017F0CCFE08480068406C40F4C9
:101C3000806006490968486404480068406C089060
:101C400009F06EF9642017F0BBFEDBE77802002094
:101C5000500300205C030020000061450000484460
:101C6000F87C00200000484200BF00210B2014F047
:101C700079FF0820F84908704FF4FA7017F0A0FEB9
:101C800004E0F548007807283FF454AF00BF26E091
:101C9000F1480078F1490968A1F8EA00142017F02A
:101CA0008FFE099808B9012000E0002003460522B4
:101CB0004FF4C87108904FF416700BF023FCE849FC
:101CC00008700846007810B108460078D6E409206C
:101CD000E14908704FF4FA7017F072FE03E0DE4835
:101CE00000780828D4D000BF32E0DB480178DB4818
:101CF0000068A0F8EA10142017F062FE0023062204
:101D00004FF4C8714FF416700BF0FCFBD449087007
:101D10000846007810B108460078AFE4CF48006864
:101D2000B0F82601401E81B2CC480068A0F8261108
:101D3000CA480068B0F82601322801DC07209DE47B
:101D40000A20C54908704FF4FA7017F039FE03E015
:101D5000C14800780928C8D000BF10E0BE4800780C
:101D6000BE490968A1F8EA00142017F029FE0B20EB
:101D7000B94908704FF4FA7017F022FE03E0B64834
:101D800000780A28EAD000BF36E0B3480078B349AB
:101D90000968A1F8EA00142017F012FE00230722B8
:101DA0004FF4C8714FF416700BF0ACFBAC490870DF
:101DB0000846007810B1084600785FE4A74800683C
:101DC000B0F82801401EA5490968A1F82801A348D8
:101DD0000068B0F82801322801DC08204EE4FA211E
:101DE00040F2DC500BF022FB0C209B4908704FF4B2
:101DF000FA7017F0E5FD03E0974800780B28C4D08F
:101E000000BF9FE09448007894490968A1F8EA006F
:101E1000142017F0D5FD002013F002FF4FF47A7064
:101E200017F0CEFD32218D480068A0F86C109FEDB0
:101E30008D0A8A48006880ED240AB1EE080A8748B6
:101E4000006880ED250A1FED7B0A8448006880ED5C
:101E5000260A82480068B0F86E0000B208907F48F9
:101E6000006890F86C000790024600210846089B25
:101E70000BF03CF84FF4FA7017F0A2FD77480068B9
:101E8000B0F86E0000B208907448006890F86C00DA
:101E90000790024600210846089B0BF027F818E03F
:101EA0006E480068D0F8840005901CF0E1F99FEDC1
:101EB0006E0B53EC102BCDE906019DED060B51EC9A
:101EC000100B1CF0A9F800D804E04FF4FA7017F0DA
:101ED00077FDE5E700BF002013F0A2FE4FF4FA7093
:101EE00017F06EFD01210B2014F03CFE4FF4FA7048
:101EF00017F066FD18E059480068D0F88400059096
:101F00001CF0B6F99FED580B53EC102BCDE90601F0
:101F10009DED060B51EC100B1BF044FF00D804E0C4
:101F20004FF4FA7017F04CFDE5E700BF00210B20DD
:101F300014F018FE0D20484908704FF4FA7017F09D
:101F40003FFD04E0444800780C283FF45BAF00BF3D
:101F500043E04148017841480068A0F8EA101420A5
:101F600017F02EFD9FED420A8DED080A9FED400A05
:101F70008DED070A0020069013E03E480068408B74
:101F800000EE100AF8EE400A9DED080A30EE800AD5
:101F90008DED080AC82017F013FD0698401CC0B24A
:101FA000069006980A28E8DB9DED080AF2EE040A7E
:101FB00080EE201A8DED071A9DED070ABCEEC00ACF
:101FC00010EE100A2B49096808860E202249087075
:101FD0004FF4FA7017F0F4FC03E01F4800780D2866
:101FE000B7D000BF7FE01C4800781C490968A1F801
:101FF000EA00142017F0E4FC0EE0FA214FF44870D8
:102000000BF040FD0122FA214FF496600BF0A6FD83
:102010000F98401CC0B20F900F980328EDDB0020F2
:102020000F9041E0C82188000BF0AAF9FA214FF483
:1020300048700BF0FBF9C82188000BF0A1F9FA21D8
:102040004FF448700BF0F2F9FA2140F2DC500BF03B
:10205000EDF90020089020E05003002078020020D5
:102060005C03002000806D450000000000C0484077
:10207000000000007C020020FA214FF448700BF0B1
:1020800001FD0122FA2188000BF068FD0F98401C29
:10209000C0B20F900898401C089008980328EBDB0A
:1020A0000F98401CC0B20F900F980228BADB002096
:1020B0000F90C82188000BF063F9FA214FF44870A3
:1020C0000BF0B4F9C82188000BF05AF9FA214FF44B
:1020D00048700BF0ABF90F20FE4908704FF4FA700E
:1020E00017F06EFC04E0FB4800780E283FF47BAF4D
:1020F00000BFB4E0F7480078F7490968A1F8EA00A2
:10210000142017F05DFC002013F08AFD4FF47A7064
:1021100017F056FC3220F0490968A1F86C001FED59
:102120002F0AED48006880ED240AB1EE080AEA485B
:10213000006880ED250A9FEDE90AE748006880ED18
:10214000260AE5480068B0F86E0000B20890E24840
:10215000006890F86C000790024600210846089B32
:102160000AF0C4FE4FF4FA7017F02AFCDA4800684F
:10217000B0F86E0000B20890D748006890F86C0084
:102180000790024600210846089B0AF0AFFE18E0BF
:10219000D1480068D0F8840005901CF069F89FEDE4
:1021A000D00B53EC102BCDE906019DED060B51EC45
:1021B000100B1BF031FF00D804E04FF4FA7017F059
:1021C000FFFBE5E700BF002013F02AFD642017F0B5
:1021D000F7FB002013F024FD01210B2014F0C2FCBA
:1021E0004FF4FA7017F0ECFB2BE0BB480068D0F816
:1021F000840005901CF03CF89FEDB90B53EC102BBC
:10220000CDE906019DED060B51EC100B1BF0CAFD4C
:1022100000D817E0002013F003FD642017F0D0FB76
:10222000AD480068406C40F48060AB490968486480
:10223000A9480068406C089008F072FE642017F00E
:10224000BFFBD2E700BF00210B2014F08BFC102055
:10225000A04908704FF4FA7017F0B2FB04E09D48F3
:1022600000780F283FF446AF00BF68E09948007837
:1022700099490968A1F8EA00142017F0A1FB1AE0B7
:1022800095480068D0F8840003901BF0F1FF1FED23
:102290008A0B53EC102BCDE904019DED040B51EC9E
:1022A000100B1BF07FFD00D806E0642017F088FBC0
:1022B000002013F0B5FCE3E700BF0A200AF02EF976
:1022C0004FF4FA7017F07CFB1FED970A8DED080AAA
:1022D0001FED990A8DED070A0020069013E0824851
:1022E0000068408B00EE100AF8EE400A9DED080AE7
:1022F00030EE800A8DED080AC82017F061FB0698C1
:10230000401CC0B2069006980A28E8DB9DED080A3A
:10231000F2EE040A80EE201A8DED071A9DED070AF1
:10232000BCEEC00A10EE100A6F49096848861120F9
:10233000684908704FF4FA7017F042FB03E06548F3
:102340000078102892D000BF43E0624800786249CC
:102350000968A1F8EA00142017F032FB1FEDBC0A4F
:102360008DED080A60480068408E07905E4800685E
:10237000008E06909DED070AF8EE400A9DED060AD4
:10238000B8EE401A80EE810A8DED010A01981BF02B
:102390006FFFCDE902019DED020B15F039FD8DEDCA
:1023A000040B9DED040B51EC100B1BF029FA089067
:1023B000C82017F005FB9DED080A4748006880ED2E
:1023C000430A1220434908704FF4967017F0F8FA48
:1023D00003E0404800781128B7D000BF17E03D481F
:1023E00001783D480068A0F8EA10142017F0E8FAD8
:1023F00001F048FE13F0E8FB002013F011FC13205D
:10240000344908704FF4FA7017F0DAFA03E03148F3
:1024100000781228E3D000BFC8E12E4801782E488A
:102420000068A0F8EA10142017F0CAFA2A480068D9
:10243000B0F8D800152877D027480068B0F8D80041
:10244000182871D024480068B0F8D80019286BD03B
:1024500021480068B0F8D800132865D01E480068ED
:10246000B0F81A01012834D11B480068B0F81C01EB
:1024700001282ED19FED1D0A8DED080A164800682F
:1024800090ED440A8DED070A1348006890ED450A67
:102490008DED060A1048006890ED430A8DED050A9F
:1024A0009DED060ADDED070A9DED051A00EE810A95
:1024B0008DED080A9DED080A0748006880ED480A7E
:1024C000642017F07DFA012103480068A0F81E116E
:1024D00000BF0DE0500300207802002000004844B7
:1024E0006666666666E648407C02002000000000E2
:1024F000E9480068B0F81E0101286ED10021E648C5
:102500000068A0F81E110121E3480068A0F8181126
:10251000642017F055FA1421E04801704FF4FA7066
:1025200017F04EFA47E1FFE7DB480068B0F8D80043
:1025300018280BD0D8480068B0F8D800152805D066
:10254000D5480068B0F8D800132847D1D2480068B1
:1025500090ED430AD24880ED000A0120CE49096877
:10256000A1F81A01CC480068B0F8D80015280DD1A0
:102570000120C9490968A1F800021921C64800686C
:10258000A0F8D8100121C548017020E0C2480068B9
:10259000B0F8D80013280DD10221BF480068A0F878
:1025A00000121921BC480068A0F8D8100121BB48CE
:1025B00001700CE0B8480068B0F8D800182806D1BF
:1025C0000021B5480068A0F8D810B4480170642014
:1025D00017F0F6F912F092FBEDE0E7E0AE48006884
:1025E000B0F8D80019280ED1AB48006890ED430A26
:1025F000AC4880ED000A0121A7480068A0F81C1132
:10260000642017F0DDF9A4480068B0F81A01012829
:1026100073D1A1480068B0F81C0101286DD11FEDED
:102620004D0A8DED080A1FED4F0A8DED070A1FEDCB
:10263000510A8DED060A98480068B0F80A01012891
:1026400004D0022807D003280FD109E0B0EE000A19
:102650008DED060A0CE0B2EE000A8DED060A07E0E9
:10266000B2EE040A8DED060A02E00A20FFF706B872
:1026700000BF8C4890ED000A8948D0ED000A70EE4A
:10268000600A9DED060A80EE201A8DED081AD0ED45
:10269000000A9DED080A20EEC00A8DED070A6420AD
:1026A00017F08EF99DED080A7B48006880ED440A1A
:1026B0009DED070A7848006880ED450A642017F010
:1026C0007FF975480068B0F80A01012804D0022893
:1026D00014D0032834D122E06F48006890ED440AFA
:1026E0007148006880ED210A6B48006890ED450A4A
:1026F0006D48006880ED220A2BE056E066480068CD
:1027000090ED440A6848006880ED350A6248006828
:1027100090ED450A6448006880ED360A19E05E488D
:10272000006890ED440A6048006880ED490A5A4804
:10273000006890ED450A5C48006880ED4A0A08E0B0
:10274000372155480068A0F80A1101F0BBF80120B4
:102750008CE700BF50480068B0F80002012808D19B
:1027600001214D480068A0F8D81001204B4908709D
:1027700015E049480068B0F80002022808D1172087
:1027800045490968A1F8D80001204449087006E0CD
:10279000002141480068A0F8D8104048017064202A
:1027A00017F00EF912F0AAFA05E000BF3B480078D6
:1027B00013283FF432AE00BF51E038480078364964
:1027C0000968A1F8EA00142017F0FAF801F05AFCA1
:1027D00013F0FAF9002013F023FA2F480068B0F83C
:1027E0002A01062835D2DFE800F034030C17232B2A
:1027F000642017F0E5F801202849087012F07EFAED
:1028000027E0642017F0DCF8002023490968A1F8CC
:10281000D800224908701CE02448006812F0F4FC3B
:1028200000211D480068A0F8D8101C48017010E075
:10283000002119480068A0F8D8101848017008E075
:10284000002015490968A1F8D8000021134801703B
:1028500000BF00BF4FF4FA7017F0B2F803E00F4862
:1028600000781428A9D000BF0C48007848B90B485C
:10287000017809480068A0F8EA10142017F0A0F8C1
:1028800005E009480068C08801283EF4B4A900BFEB
:1028900012F034FA0020E9E678020020500300200C
:1028A00054030020580300207C0200206C0200200A
:1028B000FEE7000010B50446002C00DC6424012271
:1028C0001102064803F0ACF9204617F079F800220F
:1028D0004FF48071014803F0A3F910BD00080240D5
:1028E0002DE9F05F82460D4616461C46DDE90AB723
:1028F0004FF00008C14601F0C5FBCDE000F0FCF848
:1029000010B10120BDE8F09F504608F009FB4FF4DC
:10291000C87075490968A1F8720028B2724909683F
:10292000A1F85C0070480068A0F862406E4B1B681C
:10293000B3F862206C4B1B68B3F95C106A4B1B68E0
:10294000B3F8720016F096FE6849096888806748F7
:102950000068808888B301F095FB08F101001FFA38
:1029600080F8B8F1030FC8DB60480068408D093873
:10297000062823D2DFE800F003090F15221B0420EC
:1029800059490968A1F8EC001EE008205649096879
:10299000A1F8EC0018E00C2053490968A1F8EC00FC
:1029A00012E00E2050490968A1F8EC000CE010205C
:1029B0004D490968A1F8EC0006E008E004204A4906
:1029C0000968A1F8EC0000BF00BF01209AE71FB121
:1029D00039B264200BF0E2F9C82043490968A1F834
:1029E000720030B240490968A1F85C003E480068B6
:1029F000A0F862403C4B1B68B3F862203A4B1B685E
:102A0000B3F95C10384B1B68B3F8720001F062FF39
:102A100036490968888001F035FB344800688088B1
:102A200078B309F101001FFA80F9B9F1030F33DB24
:102A30002E480068408D0938062823D2DFE800F0D0
:102A400003090F15221B052027490968A1F8EC008E
:102A50001EE0092024490968A1F8EC0018E00D20C7
:102A600021490968A1F8EC0012E00F201E4909680D
:102A7000A1F8EC000CE011201B490968A1F8EC005A
:102A800006E008E0052018490968A1F8EC0000BF3D
:102A900000BF012036E700E030E700BF01F0F2FAA6
:102AA0004FF4427008F03CFA4FF4967110480BF066
:102AB00075F901F0E7FA64210E480BF06FF9012077
:102AC00008F02EFA08480068B0F8D60018B14FF4A4
:102AD000805008F025FA642106480BF05FF901F0F8
:102AE000D1FA00200EE70000780200207C020020CE
:102AF00050FBFFFF24FAFFFF10B52DED048B0024DF
:102B0000EDE0C4480068B0F8E2003230C24909681C
:102B1000898B884201DC012100E00021BD4800686A
:102B2000B0F8DE00323881427DDCBA480068B0F887
:102B3000E4003230B8490968C98B884201DC0121C0
:102B400000E00021B3480068B0F8E000323881426C
:102B500069DCB0480068B0F8EA00012804D1002020
:102B6000AC490968A1F8EA00AA480068B0F8DC009E
:102B7000B0F5FA6F71DDA7480068B0F8DA00B0F57B
:102B8000FA6F6ADDA4480068808BA2490968A1F841
:102B9000DA00A1480068C08B9E490968A1F8DC00F2
:102BA0009D490968888B1BF0E9F841EC190B9FEDF2
:102BB0009B0B53EC102B1BF031F941EC180B1BF065
:102BC00099F894490968A1F8DE0093490968C88B0F
:102BD0001BF0D4F841EC190B9FED900B53EC102B2C
:102BE0001BF01CF941EC180B1BF084F889490968AB
:102BF000A1F8E00088490968888B1BF0BFF841EC18
:102C0000190B9FED880B53EC102B1BF007F941ECCF
:102C1000180B1BF06FF87F490968A1F8E2007E49A4
:102C20000968C88B00E01CE01BF0A8F841EC190B08
:102C30009FED7C0B53EC102B1BF0F0F841EC180BC4
:102C40001BF058F873490968A1F8E40001207149A4
:102C50000968A1F8E60012F051F80020BDEC048BE1
:102C600010BD01206B490968A1F8EA00000308F0D3
:102C700057F9FA216D480BF091F84FF4805001F0AC
:102C80005BFB102008F04CF9C82140F214500BF007
:102C900085F8102001F050FB012008F041F95D4853
:102CA0000068B0F8D60018B14FF4805008F038F939
:102CB0004FF496715D480BF071F8012001F03CFB78
:102CC00054480068B0F8D60018B14FF4805001F0B5
:102CD00033FB2046611C8CB2052800DB00E010E7C6
:102CE00000BF002429E000F091FC4FF47A7016F048
:102CF00067FE49480068808BB0F5966F12DB464846
:102D00000068808BB0F5AF6F0CDC43480068C08B67
:102D1000B0F5966F06DB40480068C08BB0F5AF6F2A
:102D200000DC0BE02046611C8CB2032805DB01208F
:102D300038490968A1F8EC0090E7D4E700BF3648AD
:102D40000068808B33490968A1F8DA0032480068CE
:102D5000C08B30490968A1F8DC002F490968888BCD
:102D60001BF00CF841EC190B9FED2C0B53EC102BC6
:102D70001BF054F841EC180B1AF0BCFF2549096808
:102D8000A1F8DE0024490968C88B1AF0F7FF41EC6E
:102D9000190B9FED220B53EC102B1BF03FF841EC6D
:102DA000180B1AF0A7FF1B490968A1F8E0001A499F
:102DB0000968888B1AF0E2FF41EC190B9FED190BA3
:102DC00053EC102B1BF02AF841EC180B1AF092FF71
:102DD00010490968A1F8E2000F490968C88B1AF088
:102DE000CDFF41EC190B9FED0F0B53EC102B1BF09B
:102DF00015F841EC180B1AF07DFF06490968A1F897
:102E0000E400012003490968A1F8E60011F076FF0B
:102E1000002023E7780200207C0200203333333384
:102E20003333F33F000000000000E03F24FAFFFFCF
:102E30002DE9F04105460E4600240027A046082053
:102E4000CC49096848854FF4FA7016F0B9FD5FE186
:102E5000FFF752FE10B10120BDE8F08101F012F938
:102E6000C5480068B0F8D840092C15D0142C13D0F0
:102E7000162C11D0192C0FD01A2C0DD01B2C0BD0C6
:102E80001C2C09D01E2C07D0202C05D0232C03D0BD
:102E9000262C01D02B2C0CD1802008F041F8B6480C
:102EA0000068B0F8D400002873D0022008F038F889
:102EB0006FE0022C0DD0042C0BD0222C09D0252C35
:102EC00007D0272C05D0282C03D02C2C01D02D2C5A
:102ED00004D14FF4005008F023F85AE0012C07D039
:102EE000052C05D0062C03D0072C01D0292C03D1AA
:102EF000022008F015F84CE0032C0FD0082C0DD060
:102F0000132C0BD0152C09D0182C07D01F2C05D052
:102F1000212C03D0242C01D02A2C03D1102007F01F
:102F2000FFFF36E0172C31D193480068B0F87A00E3
:102F300030B1012810D0022813D0032819D114E091
:102F4000802007F0EDFF8C480068B0F8D40010B185
:102F5000022007F0E5FF18E04FF4005007F0E0FF13
:102F600013E0022007F0DCFF0FE0102007F0D8FF8D
:102F70000BE0802007F0D4FF7F480068B0F8D40051
:102F800010B1022007F0CCFF00BF02E0022007F0E2
:102F9000C7FF012E16D178480068B0F8F00028B1BC
:102FA00075480068B0F8F000012805D10220724988
:102FB0000968A1F8620015E001206F490968A1F8CD
:102FC00062000FE06C480068B0F8F00028B90220F9
:102FD00069490968A1F8620004E0012066490968AE
:102FE000A1F862004FF4C87063490968A1F8720043
:102FF0004FF4167060490968A1F85C005E4B1B68CD
:10300000B3F862205C4B1B68B3F95C105A4B1B6829
:10301000B3F8720016F02EFB5649096888805548AF
:103020000068808860B101F02DF8781C87B2032F0A
:103030006EDB032050490968A1F8EC0001200BE782
:10304000142164200AF0AAFE4FF4C8704A490968A6
:10305000A1F872006FF0270047490968A1F85C00E9
:10306000454B1B68B3F86220434B1B68B3F95C10F7
:10307000414B1B68B3F8720001F02CFC3D49096814
:103080008880FDB10A216FF063000AF087FEC82036
:1030900039490968A1F872001E2037490968A1F86A
:1030A0005C00354B1B68B3F86220334B1B68B3F9E7
:1030B0005C10314B1B68B3F8720001F0FDFC2D4928
:1030C0000968888000F0DEFF2A4800688088F0B137
:1030D000012007F025FF28480068B0F8D60018B195
:1030E0004FF4805007F01CFF4FF4967123480AF00C
:1030F00055FE08F101001FFA80F8B8F1030F07DB55
:1031000016201D490968A1F8EC000120A4E600E0A2
:103110009EE600BF00F0B6FF4FF4427007F000FFDC
:103120004FF4967116480AF039FE4FF4427001F0E0
:1031300003F9642112480AF031FE012007F0F0FE85
:103140000D480068B0F8D60018B14FF4805007F071
:10315000E7FE64210A480AF021FE00F093FF0548CB
:1031600000688088032803D100200249096888800C
:10317000002071E67C02002078020020E0FCFFFFC6
:1031800050FBFFFF2DE9F041064600240027A04632
:1031900000250820FB49096848854FF4FA7016F0AD
:1031A0000FFCF9480068B0F8FE00052804DD052092
:1031B000F5490968A1F8FE00F3480068B0F8F0008E
:1031C00001280AD1F0480068B0F8FE00012804DAAE
:1031D0000120ED490968A1F8FE000025DCE1D7E1F6
:1031E000FFF78AFC10B10120BDE8F08100F04AFF32
:1031F000E5480068B0F8D840092C15D0142C13D03D
:10320000162C11D0192C0FD01A2C0DD01B2C0BD032
:103210001C2C09D01E2C07D0202C05D0232C03D029
:10322000262C01D02B2C28D1D7480068B0F8F0000C
:1032300060B9802007F074FED3480068B0F8D4006D
:10324000002802D0022007F06BFEF0E0CE480068B4
:10325000B0F8FE00A8420CDD802007F061FECA48ED
:103260000068B0F8D4000028EFD0022007F058FE24
:10327000DDE0102007F054FED9E0022C0DD0042C24
:103280000BD0222C09D0252C07D0272C05D0282C98
:1032900003D02C2C01D02D2C18D1BB480068B0F8DD
:1032A000F00020B94FF4005007F03AFEBFE0B648F6
:1032B0000068B0F8FE00A84204DD4FF4005007F0AB
:1032C0002FFEB4E0102007F02BFEB0E0012C07D059
:1032D000052C05D0062C03D0072C01D0292C16D1A3
:1032E000A9480068B0F8F00018B9022007F018FEED
:1032F0009DE0A5480068B0F8FE00A84203DD02206A
:1033000007F00EFE93E0102007F00AFE8FE0032C7A
:103310000FD0082C0DD0132C0BD0152C09D0182C45
:1033200007D01F2C05D0212C03D0242C01D02A2C0F
:1033300003D1102007F0F4FD79E0172C74D19248E6
:103340000068B0F8F00088BB8F480068B0F87A00D9
:1033500030B1012810D0022813D0032819D114E06D
:10336000802007F0DDFD88480068B0F8D40010B177
:10337000022007F0D5FD18E04FF4005007F0D0FD13
:1033800013E0022007F0CCFD0FE0102007F0C8FD8D
:103390000BE0802007F0C4FD7B480068B0F8D40043
:1033A00010B1022007F0BCFD00BF40E0FFE7764807
:1033B0000068B0F8FE00A84232DD73480068B0F83B
:1033C0007A0030B1012810D0022813D0032819D177
:1033D00014E0802007F0A4FD6B480068B0F8D4002A
:1033E00010B1022007F09CFD18E04FF4005007F0E8
:1033F00097FD13E0022007F093FD0FE0102007F087
:103400008FFD0BE0802007F08BFD5F480068B0F86F
:10341000D40010B1022007F083FD00BF07E003E0F5
:10342000102007F07DFD02E0022007F079FD022068
:1034300055490968A1F862004FF4C87052490968FB
:10344000A1F872004FF496604F490968A1F85C003A
:103450004D4B1B68B3F862204B4B1B68B3F95C10F3
:10346000494B1B68B3F8720016F004F94549096826
:10347000888044480068808860B100F003FE781CB2
:1034800087B2032F7DDB03203F490968A1F8EC00D8
:103490000120A9E60A2164200AF080FC4FF4C870DC
:1034A00039490968A1F872006FF0270036490968A8
:1034B000A1F85C00344B1B68B3F86220324B1B68E8
:1034C000B3F95C10304B1B68B3F8720001F002FADC
:1034D0002C4909688880FEB10A216FF063000AF068
:1034E0005DFCC82028490968A1F872001E20264901
:1034F0000968A1F85C00244B1B68B3F86220224BDA
:103500001B68B3F95C10204B1B68B3F8720001F024
:10351000D3FA1C490968888000F0B4FD1948006896
:103520008088F0B1012007F0FBFC17480068B0F874
:10353000D60018B14FF4805007F0F2FC4FF49671AA
:1035400012480AF02BFC08F101001FFA80F8B8F1CC
:10355000030F1DDB16200C490968A1F8EC000120BF
:1035600042E600F08FFD4FF4427007F0D9FC4FF4B3
:10357000967106480AF012FC4FF4427000F0DCFE2F
:1035800007E005E07C0200207802002024FAFFFF1B
:1035900026E600BF681C85B2052DFFF620AE64212B
:1035A00010480AF0FBFB012007F0BAFC0E48006847
:1035B000B0F8D60018B14FF4805007F0B1FC642188
:1035C00008480AF0EBFB00F05DFD00F05BFD0748EA
:1035D00000688088032803D1002004490968888096
:1035E000002001E624FAFFFF780200207C02002080
:1035F00010B50246002003E012F8014B231898B2E0
:103600000B00A1F10104E1B2F6D110BD10B5002408
:103610000020A2490880A2490880A24890ED000A33
:1036200011F018FC6FE04FF4FA7016F0C9F99E48DB
:103630000068808B9949088008460088B0F5966F2D
:103640002EDA984890ED000ADFED980AB4EEE00A11
:10365000F1EE10FA01DD042010BD022C00D153E080
:10366000904890ED000ADFED920A30EE200A80EDDE
:10367000000AD0ED000AB2EE041AB6EE000A00EE1F
:10368000810ABCEEC00A10EE100A8A490968A1F846
:103690005200844890ED000A11F0DCFB012432E076
:1036A0007E480088B0F5AF6F2CDD7E4890ED000AB3
:1036B000B5EEC00AF1EE10FA01D20420CCE7012CDD
:1036C00000D121E0774890ED000ADFED790A30EE75
:1036D000600A80ED000AD0ED000AB2EE041AB6EEE0
:1036E000000A00EE810ABCEEC00A10EE100A714911
:1036F0000968A1F852006B4890ED000A11F0AAFB8E
:10370000022400E000E08EE700BF4FF4FA7016F0EC
:1037100057F965480068808B604908800846008832
:1037200065490880084600885F49096808845D4843
:10373000D0ED000AB2EE041AB6EE000A00EE810ADD
:10374000BCEEC00A10EE100A5A490968A1F85200EE
:103750005A4890ED000A11F0C9FB00246FE04FF4C5
:10376000FA7016F02DF950480068C08B4C4908805B
:1037700008460088B0F5966F2EDA504890ED000AA2
:10378000DFED4A0AB4EEE00AF1EE10FA01DD0520A1
:1037900062E7022C00D153E0484890ED000ADFEDCB
:1037A000440A30EE200A80ED000AD0ED000AB2EEA5
:1037B000041AB6EE000A00EE810ABCEEC00A10EE52
:1037C000100A3C490968A1F854003C4890ED000AF1
:1037D00011F08CFB012432E031480088B0F5AF6F66
:1037E0002CDD364890ED000AB5EEC00AF1EE10FA75
:1037F00001D2052030E7012C00D121E02F4890EDC7
:10380000000ADFED2B0A30EE600A80ED000AD0EDF1
:10381000000AB2EE041AB6EE000A00EE810ABCEE0F
:10382000C00A10EE100A23490968A1F85400234881
:1038300090ED000A11F05AFB022400E000E08EE750
:1038400000BF4FF4FA7016F0BBF817480068C08B41
:1038500013490880084600881949088010480088E4
:103860001149096848841548D0ED000AB2EE041ADF
:10387000B6EE000A00EE810ABCEEC00A10EE100A95
:103880000C490968A1F85400064890ED000A11F0AF
:10389000E1FA11F033FA0020DEE60000EA0300202E
:1038A000EC030020F40300207C020020000004420E
:1038B000CDCCCC3D78020020EE030020F8030020A0
:1038C000F003002010B517480068B0F8080101287F
:1038D00025D1002014490968C88000F0D3FB12F0FC
:1038E00073F9002012F09CF91048006816F0F0FB04
:1038F00000200C490968A1F808010A490968A1F8E3
:10390000D80008490968A1F8EA0009490870084682
:10391000007805490968A1F85600012010BD002073
:10392000FCE70000780200207C0200205404002004
:103930005C03002010B52DED028BFE480068C088A6
:1039400001287AD11520FC490968A1F8EA00FA4853
:10395000006890ED210ADFEDF90AB4EEE00AF1EE1D
:1039600010FA2EDBF4480068406C40F48060F249A5
:1039700009684864F0490968486C07F0D1FA0020EA
:1039800012F04EF90EE0EC48006890ED210ADFEDF0
:10399000EC0AB4EEE00AF1EE10FA00D803E0C82019
:1039A00016F00EF8EFE700BFE3480068406C40F403
:1039B0008060E14909684864DF490968486C00F0A3
:1039C000BBFC00F05FFB4FF48050DB4909684864A2
:1039D000D9490968486C07F0A3FA4FF4FA7015F05A
:1039E000EFFF4FF65030D4490968A1F85C00FA2087
:1039F000D1490968A1F8720012F0E6F84FF4967008
:103A000015F0DEFFCC480068B0F8720000EE100A36
:103A1000B8EE400AF2EE040A80EE201AB0EE418AB7
:103A2000C5490968B1F95C00B0EE480A11F07CFEA6
:103A30004FF4FA7015F0C4FF03E024E2642015F09F
:103A4000BFFFC04800780028F8D00020BD490870AA
:103A50004FF4FA7015F0B4FF4FF48050B64909687E
:103A60004864B5490968486C00F066FC4FF4FA7088
:103A700015F0A6FF4FF47A70AF490968A1F85C0011
:103A80009620AD490968A1F8720012F09DF84FF434
:103A9000967015F095FFA8480068B0F8720000EE27
:103AA000100AB8EE400AF2EE040A80EE201AB0EED8
:103AB000418AA1490968B1F95C00B0EE480A11F0E9
:103AC00033FE4FF4FA7015F07BFF02E0642015F02E
:103AD00077FF9C4800780028F8D0002099490870AA
:103AE000082095490968486493480068406C40F490
:103AF00080709149096848648F480068406C40F4C0
:103B000000708D49096848648B490968486C07F062
:103B100007FA4FF4FA7015F053FF4FF47A708649A4
:103B20000968A1F85C00962083490968A1F8720031
:103B300012F04AF84FF4967015F042FF7E48006884
:103B4000B0F8720000EE100AB8EE400AF2EE040A75
:103B500080EE201AB0EE418A77490968B1F95C001D
:103B6000B0EE480A11F0E0FD4FF4FA7015F028FFAE
:103B700002E0642015F024FF724800780028F8D095
:103B800000207049087008206B49096848646A4839
:103B90000068406C40F48070674909684864664872
:103BA0000068406C40F400706349096848646249E9
:103BB0000968486C00F0C0FB4FF4FA7015F000FF84
:103BC00061480078012810D15B49096848645A4867
:103BD0000068406C40F48050574909684864564971
:103BE0000968486C07F09CF909E04FF4805052498D
:103BF0000968486450490968486C07F091F94FF426
:103C0000967015F0DDFE4FF650304B490968A1F86B
:103C10005C00962048490968A1F8720011F0D4FFB1
:103C20004FF4967015F0CCFE43480068B0F872006F
:103C300000EE100AB8EE400AF2EE040A80EE201AF6
:103C4000B0EE418A3C490968B1F95C00B0EE480A1F
:103C500011F06AFD4FF4FA7015F0B2FE02E0642034
:103C600015F0AEFE374800780028F8D0002035491E
:103C7000087001203049096848642F480068406C8A
:103C800040F480502C49096848642B490968486C05
:103C900000F052FB4FF4FA7015F092FE0024EBE0B6
:103CA000082025490968486423480068406C40F4AE
:103CB00080702149096848641F480068406C40F4DE
:103CC00000701D49096848641B490968486C07F081
:103CD00027F94FF4FA7015F073FE4FF47A70164915
:103CE0000968A1F85C00962013490968A1F87200E0
:103CF00011F06AFF4FF4967015F062FE0E480068EE
:103D0000B0F8720000EE100AB8EE400AF2EE040AB3
:103D100080EE201AB0EE418A07490968B1F95C00CB
:103D2000B0EE480A11F000FD4FF4FA7015F048FEAD
:103D30000FE000007C020020780200200000A0427A
:103D4000000048428002002051030020642015F04A
:103D500037FE4E4800780028F8D000204B49087004
:103D600008204B490968486449480068406C40F4A1
:103D7000807047490968486445480068406C40F4D1
:103D8000007043490968486441490968486C00F07B
:103D9000D3FA4FF4FA7015F013FE3E48007801286C
:103DA00010D13B490968486439480068406C40F4C8
:103DB000805037490968486435490968486C07F0FC
:103DC000AFF809E04FF48050314909684864304940
:103DD0000968486C07F0A4F84FF4967015F0F0FDF0
:103DE0004FF650302A490968A1F85C00FA202849AA
:103DF0000968A1F8720011F0E7FE4FF4967015F013
:103E0000DFFD23480068B0F8720000EE100AB8EE3B
:103E1000400AF2EE040A80EE201AB0EE418A1C49F4
:103E20000968B1F95C00B0EE480A11F07DFC4FF46E
:103E3000FA7015F0C5FD02E0642015F0C1FD1348CD
:103E400000780028F8D0002010490870012010499F
:103E5000096848640E480068406C40F480500C4982
:103E6000096848640A490968486C00F065FA4FF42B
:103E7000FA7015F0A5FD641C032CFFF611AF0020AD
:103E800005490968C880BDEC028B10BD8002002086
:103E900078020020510300207C02002010B500248D
:103EA00000F0F0F850E0FEF727FE08B1012010BD49
:103EB000102007F035F84FF4FA7015F081FD4FF43B
:103EC000C87023490968A1F8720040F214502049D3
:103ED0000968A1F85C0002201D490968A1F8620088
:103EE0001B4B1B68B3F86220194B1B68B3F95C10BD
:103EF000174B1B68B3F8720015F0BCFB1549096835
:103F000088804FF4FA7015F05BFD124800688088D5
:103F100060B100F0B7F8601C84B2032C14DB1220EF
:103F20000B490968A1F8EC000120C0E700F0AAF8ED
:103F30004FF4427006F0F4FF4FF49671064809F012
:103F40002DFF00F09FF800E0ADE700BF0020AEE7D6
:103F5000780200207C02002024FAFFFF2DE9F041C6
:103F600080460C4615461E46002750E0FEF7C4FD6D
:103F700010B10120BDE8F081404606F0D1FF4FF4BA
:103F8000C87039490968A1F8720020B23649096839
:103F9000A1F85C0034480068A0F86250324B1B68FE
:103FA000B3F86220304B1B68B3F95C102E4B1B68D2
:103FB000B3F8720015F05EFB2C490968888000F0A8
:103FC00061F82A480068808800B3781C87B2032F04
:103FD0001DDB26480068408D092802D00A280CD134
:103FE00005E0062020490968A1F8EC000BE00A2052
:103FF0001D490968A1F8EC0005E006201A49096886
:10400000A1F8EC0000BF00BF0120B3E700E0ADE77E
:1040100000BF012006F084FF13480068B0F8D60006
:1040200018B14FF4805006F07BFF31B2104809F010
:10403000B5FE00F027F864210D4809F0AFFE01201D
:1040400006F06EFF08480068B0F8D60018B14FF4CB
:10405000805006F065FF6421054809F09FFE00F0DE
:1040600011F8002086E70000780200207C02002082
:1040700050FBFFFF9FED020A80ED0A0A7047000027
:104080000000000010B500202449096808602021C4
:10409000234804F060FC1021214804F05CFC082156
:1040A0001F4804F058FC04211D4804F054FC022170
:1040B0001B4804F050FC0121194804F04CFC4FF45B
:1040C0000071184804F047FC4FF48071154804F063
:1040D00042FC8021134804F03EFC4021114804F0CA
:1040E0003AFC20210F4804F036FC10210D4804F062
:1040F00032FC08210B4804F02EFC80210A4804F011
:104100002AFC4021084804F026FC2021064804F03F
:1041100022FC1021044804F01EFC10BD6C0200209B
:104120000010024000040240000C024010B50C4890
:104130000068B0F84000132805DC09480068B0F8B2
:104140004000012804DA102005490968A1F8400060
:104150000349096891F8400000F040F810BD0000E4
:104160007802002070B506460C462146304601F024
:1041700041FB0546002009490968A1F87000642C3C
:1041800003D1FFF77FFF012070BD0DB90020FBE7D1
:10419000284600F0D1F80120F6E700007802002060
:1041A0000020704710B50C480068B0F84200132892
:1041B00005DC09480068B0F84200012804DA122042
:1041C00005490968A1F842000349096891F84200CD
:1041D00000F004F810BD00007802002010B504467D
:1041E0002E2C6FD2DFE804F092171C21262B3035DD
:1041F0003B41464B50555A5F64696F74929292925C
:1042000092797D8185898D929292929292929292E8
:1042100092929292929120213E4804F09CFB76E08B
:1042200010213C4804F097FB71E00821394804F064
:1042300092FB6CE00421374804F08DFB67E002211B
:10424000344804F088FB62E00121324804F083FB2B
:104250005DE04FF40071304804F07DFB57E04FF40F
:1042600080712D4804F077FB51E080212A4804F04A
:1042700072FB4CE04021284804F06DFB47E0202110
:10428000254804F068FB42E01021234804F063FB5A
:104290003DE00821204804F05EFB38E080211F4803
:1042A00004F059FB33E040211C4804F054FB2EE09D
:1042B00020211A4804F04FFB29E01021174804F090
:1042C0004AFB24E022E00821144804F044FB1EE0ED
:1042D0000421124804F03FFB19E000201049087047
:1042E00015E000200F49087011E000200E49087009
:1042F0000DE000200D49087009E000200C4908700D
:1043000005E000200B49087001E000E000BF00BF9D
:1043100010BD00000010024000040240000C0240EA
:10432000D0020020D1020020D2020020D3020020BF
:10433000D4020020D502002070B5044601250A48A9
:1043400000680068A04308490968086008E004F0B4
:10435000010010B1E8B2FFF741FF6408681C85B2A4
:10436000202DF4DD70BD00006C02002020480068A4
:10437000C08801281DD11F480068B0F8D8001D4929
:104380000968A1F8060100201A490968A1F8180176
:1043900018490968A1F81E019FED170A1548006821
:1043A00080ED480A9FED140A1248006880ED430A28
:1043B0001CE000200F490968A1F806010D490968B1
:1043C000A1F8D8000B490968A1F818010949096842
:1043D000A1F81E019FED080A0648006880ED480A12
:1043E0009FED050A0348006880ED430A704700000E
:1043F0007C020020780200200000000020480068B5
:10440000C08801281DD11F480068B0F8D8001D4998
:104410000968A1F8060100201A490968A1F81801E5
:1044200018490968A1F81E019FED170A1548006890
:1044300080ED480A9FED140A1248006880ED430A97
:104440001CE000200F490968A1F806010D49096820
:10445000A1F8D8000B490968A1F8180109490968B1
:10446000A1F81E019FED080A0648006880ED480A81
:104470009FED050A0348006880ED430A704700007D
:104480007C020020780200200000000070B5184C6B
:104490002068C0F3C020174D002807D0E014A060AA
:1044A00068782058697840F0010060502068C0F3B7
:1044B000402000281BD0104E00224FF4805130467F
:1044C00001F0AEFB7015A06068782058697820F084
:1044D0000400605068782058697820F0010060502E
:1044E0003046BDE870400122110301F099BB70BD58
:1044F000006002400EF50508000C024070B51C4C2F
:104500002068C0F3C0601B4D00280ED04FF0006043
:10451000A060E8782058E97820F010006050E87832
:104520002058E97820F0010060502068C0F3406016
:1045300000281CD0104E00224FF48051304601F06C
:104540006FFB4FF00070A060E8782058E97820F009
:1045500004006050E8782058E97820F001006050AD
:104560003046BDE870400122110301F059BB70BD17
:10457000006002400EF50508000C024070B487B0E0
:1045800047480168C1F3401100297DD02021816096
:1045900044490978405800F40020434E00287CD05C
:1045A000424830604248D0F814C0C5688468036946
:1045B00002684168CDF814C00395029404930092F8
:1045C0000191C0F82CC04562046283628261C161BE
:1045D0000022336800F1180102EB4200D1F800C05C
:1045E00033F82040A444C1F800C003EB8000D1F8A8
:1045F00004C04488A444C1F804C08488D1F808C029
:10460000A444C1F808C0C488D1F80CC0A444C1F8BF
:104610000CC00489D1F810C0A444C1F810C040896E
:10462000D1F814C060444861501CC2B2202AD3D3D0
:10463000086800F1100CC1F800C0486800F11002D1
:104640004A60886800F110058D60C86800F11006A6
:10465000CE60086900F110030B61486910304861B1
:10466000144C4FEA5C112180520962806D09A580CB
:104670004FEA561CA4F806C05B09238140096081FB
:104680000D480068C18201E004E006E08282858373
:10469000A0F81EC007B070BC70470848306081E7C2
:1046A000006402400EF5050858040020CC7D00206F
:1046B0006C850020A87D00207C0200204C7F00201B
:1046C00070B5184C2068C0F3C020174D002807D0E3
:1046D000E014A06068782058697840F001006050CC
:1046E0002068C0F3402000281BD0104E00224FF459
:1046F0008051304601F094FA7015A0606878205817
:10470000697820F00400605068782058697820F0BB
:10471000010060503046BDE870400122110301F0F5
:104720007FBA70BD006402400EF50508000C02401F
:1047300070B51C4C6068C0F340501B4D00280ED073
:104740004FF40010E060A8792058A97920F01000FB
:104750006050A8792058A97920F001006050606865
:10476000C0F3C04000281CD0104E00224FF48051EE
:10477000304601F055FA4FF40020E060A879205847
:10478000A97920F004006050A8792058A97920F078
:10479000010060503046BDE870400122110301F075
:1047A0003FBA70BD006402400EF50508000C0240DF
:1047B00010B52DED068B84B004462068019060682A
:1047C0000290A0680390208900EE100AB8EE400A1B
:1047D000B0EE408A18EE100A19F04AFD41EC1A0BAF
:1047E0009FED330B53EC102B19F018FB41EC190B18
:1047F00019F006F808EE100A9FED2F0AC8EE000A1D
:10480000B0EE608A18EE100A19F032FD41EC1A0B76
:104810009FED2A0B53EC102B19F040FC41EC190BC7
:1048200018F0EEFF08EE100A18EE100A19F020FD3D
:1048300041EC1A0B9FED230B53EC102B19F0C6F82B
:1048400041EC190B18F0DCFF08EE100AB3EE090A70
:1048500038EE000AB0EE408A1C48006880ED1B8AE2
:104860006089400000EE100AB8EEC00AB0EE408A3F
:1048700018EE100A19F0FCFC41EC1A0B9FED0C0B22
:1048800053EC102B19F0CAFA41EC190B18F0B8FFD1
:1048900008EE100A9FED080AC8EE000AB0EE608A22
:1048A0000A48006880ED1A8A04B0BDEC068B10BD82
:1048B0006666666666660A4000F07F4552B81E85E9
:1048C000EB51E83F7B14AE47E17A643F7C02002065
:1048D000704700002DE9F0412DED028B05460E4694
:1048E000144662490E8000206149087061490880C1
:1048F0006149088061490860614908706149086040
:104900001E27601E84B224B95F4800885F49088072
:1049100004E001245E4800885C4908805D48006826
:10492000B0F856005949098848434FF47A7190FB12
:10493000F1F05949088057480068B0F858005349C9
:10494000098848434FF47A7190FBF1F0534908808D
:1049500050480068B0F85A004C49098848434FF461
:104960007A7190FBF1F04E4908804FF47A7015F09F
:1049700027F800BF0A2015F023F84A4800681C30C9
:1049800030F81400484908803C480068401C3B4906
:1049900008603B48007807283ED2DFE800F0041C9E
:1049A00038393A3B3C0000203349088000EE105A69
:1049B000B8EE400AF2EE040A80EE201AB0EE418A08
:1049C000B0EE480A2948008800B210F0ADFE012080
:1049D0002B49087021E03448008831490988884211
:1049E00005DC01202249087011F0EEF80EE02E4897
:1049F000008829490988884205DB2B480088274917
:104A00000988884202DD00201B49088005E004E097
:104A100003E002E001E000E000BF00BF22480088A0
:104A2000224908802248007818B9114800780028E7
:104A3000A0D01F48007870B111F0D8F81D48006868
:104A400015F046FB4FF4FA7014F0BAFF0220BDECEB
:104A5000028BBDE8F0810648007828B14FF4FA7067
:104A600014F0AEFF0020F2E70020F0E7A4020020DF
:104A70009D02002082020020840200209802002073
:104A800094020020A0020020EE03002088020020F3
:104A9000F003002078020020900200208E02002007
:104AA000920200207C0200208A0200208C0200205A
:104AB00080020020200400202DE9F0412DED028B22
:104AC00005460E46144665490E800020644908706C
:104AD0006449088064490880644908606449087032
:104AE000644908601E27601E84B224B962480088A9
:104AF0006249088004E00124614800885F49088019
:104B000060480068B0F856005C49098848434FF493
:104B10007A7190FBF1F05C4908805A480068B0F85F
:104B200058005649098848434FF47A7190FBF1F0D8
:104B30005649088053480068B0F85A004F49098820
:104B400048434FF47A7190FBF1F0514908804FF4DB
:104B50007A7014F035FF00BF0A2014F031FF4D4881
:104B600000681C3030F814004B4908803F4800684A
:104B7000401C3E4908603E480078072844D2DFE8E0
:104B800000F0041C3E3F40414200002036490880AE
:104B900000EE105AB8EE400AF2EE040A80EE201A37
:104BA000B0EE418AB0EE480A2C48008800B210F0FE
:104BB000BBFD01202E49087027E0374800883449A2
:104BC0000988884205DD34480088304909888842D0
:104BD00005DB01202249087010F0F6FF0EE02E4898
:104BE000008829490988884205DB2B480088274925
:104BF0000988884202DD00201B49088005E004E0A6
:104C000003E002E001E000E000BF00BF22480088AE
:104C1000224908802248007818B9114800780028F5
:104C20009AD01F48007870B110F0E0FF1D4800686E
:104C300015F04EFA4FF4FA7014F0C2FE0320BDECEA
:104C4000028BBDE8F0810648007828B14FF4FA7075
:104C500014F0B6FE0020F2E70020F0E7A4020020E6
:104C60009D02002082020020840200209802002081
:104C700094020020A0020020EE0300208802002001
:104C8000F003002078020020900200208E02002015
:104C9000920200207C0200208A0200208C02002068
:104CA00080020020200400202DE9F05F82468B4620
:104CB00014461E460A9F4FF01209E3480480002064
:104CC000E2490870E2490880E2490880E249086048
:104CD000E2490870E24908608FB100EE104AF8EE30
:104CE000400A9FEDE01A81EE200AF2EE040A80EEFF
:104CF000201ABCEEC10A10EE100A85B200E01E2593
:104D0000012E06D14FF00008D7480088D749088007
:104D100005E04FF00108D6480088D4490880D548FE
:104D20000068B0F85600D149098848434FF47A71B9
:104D300090FBF1F0D0490880CE480068B0F85800E8
:104D4000CA49098848434FF47A7190FBF1F0CB4986
:104D50000880C8480068B0F85A00C4490988484328
:104D60004FF47A7190FBF1F0C549088059465046DE
:104D700005F096FF4FF47A7014F022FE00BF0A206F
:104D800014F01EFEBF4800681C3030F81800BE4901
:104D90000880B1480068401CAF490860AF480078FF
:104DA000072871D2DFE800F004167999CBEBF80000
:104DB00009F0FF02A4480188012010F00FFD012036
:104DC000A64908700020A3490880B0490880A4497A
:104DD0000860FBE0AC480088A8490988884226DBC7
:104DE000AA480088002804DD0020A84908809C49C2
:104DF000086098480088401C9649088098480068D8
:104E0000A149098808449649086092480088A84248
:104E100042DB322014F0D4FD10F0D6FE1FB1062084
:104E20008E49087038E001208849087034E09648BF
:104E3000008891490988884227DC94480088401CF2
:104E40009249088083480088002804DD00208149B9
:104E5000088083490860824800688B4909880844B3
:104E60007F49086089480088A84215DB322014F089
:104E7000A7FD10F0A9FE1FB10620784908700BE0CD
:104E800001207249087007E09FE000207149088006
:104E90007E4908807249086098E040F2DC5014F0C6
:104EA0008FFD69480088642803DA0A206649088073
:104EB00006E0654800880A2190FBF1F0624908800D
:104EC00000206449088005225F480188002010F016
:104ED00085FC03206149087078E06B4800886849C8
:104EE0000988884205DC01205849087010F06CFEE2
:104EF00024E0654800886049098888421BDB6248D5
:104F000000885E490988884215DC52480088401CA8
:104F10005049088008460088A8420FDB10F054FE74
:104F20004FEA690900204A49088047480480002068
:104F30004A49087002E000204649088046E040F2F5
:104F4000DC5014F03DFD40480088642803DA0A2054
:104F50003D49088006E03C4800880A2190FBF1F0BA
:104F60003949088000203B490880052236480188DD
:104F7000002010F033FC05203849087026E0424834
:104F800000883F490988884204DD01202F490870C4
:104F900010F01AFE1AE0FFE72E4800883B49098806
:104FA00008442F49096891FBF0F03749088008460A
:104FB000008833490988884203DD022027490870A8
:104FC00002E004202549087000E000BF00BF2E4821
:104FD00000882F4908802F48007820B91B480078A6
:104FE00000283FF4CCAE2B480078E8B110F0FEFD6D
:104FF0002948006815F06CF84FF47A7014F0E0FC62
:1050000059465046FFF7AEF84FF4FA7014F0D8FC4A
:1050100012480078032805D1032E01D1BDE8F09F86
:105020000220FBE70120F9E70848007848B159461B
:105030005046FFF797F84FF4FA7014F0C1FC0020C7
:10504000ECE70720EAE70000A40200209D02002010
:105050008202002084020020980200209402002096
:10506000A002002000606A48EE03002088020020B1
:10507000F003002078020020900200208E02002021
:10508000920200207C0200208A020020860200207A
:105090008C020020800200202004002072B670479D
:1050A00002460C2A15D2DFE802F006080A0C0E149C
:1050B000141414141012002070470846FCE7032053
:1050C000FAE70420F8E70846F6E72620F4E7272069
:1050D000F2E70020F0E7000000BF0F48007838B189
:1050E000FEF728FC00200C490870642014F068FCCE
:1050F0004FF0FF310948006814F06AFD40B90849D3
:10510000096891F8560002F05DFB642014F058FC29
:10511000642014F055FCE0E7D80300205004002080
:105120007C02002072B6FEE762B6704710B500221E
:1051300001B909E0012901D10A0205E0022901D1E2
:105140000A0201E04FF440720E4B1B6823F44073D7
:105150000C4C236023461B681343236023461B68C3
:1051600023F0F803236023461B68022444EAC004AA
:105170002343044C236023461B6843F4803323609D
:1051800010BD0000103C02401C48006800F4007094
:10519000B0B11A48006820F400701849086000BFD8
:1051A0000846006840F4006008600846006820F483
:1051B0000060086000BF0846006840F400700860A6
:1051C0000E48006800F48060B0B10C48006820F41C
:1051D00080600A49086000BF0846006840F48050BB
:1051E00008600846006820F48050086000BF084648
:1051F000006840F48060086070470000003C024096
:105200000A4A126822F44072084B1A601A46126861
:1052100042F004021A601A4612684FF4803343EADF
:1052200000231A43014B1A6070470000103C0240F3
:10523000074A126822F44072054B1A601A46126837
:105240001A601A46126842F001021A600170704733
:10525000103C024010B50D49096821F440710B4C17
:1052600021602146096841F44071216021460968A6
:1052700041F001012160026000BF00BF00BFBFF329
:105280006F8F00BF00BF00BF436010BD103C0240E5
:10529000084A126822F44072064B1A601A461268D5
:1052A00042F480721A601A46126842F001021A60D3
:1052B00001807047103C0240084A126822F4407294
:1052C000064B1A601A46126842F400721A601A46B7
:1052D000126842F001021A6001607047103C0240FF
:1052E0002348006800F0100040B12248C06940F037
:1052F00010002049C86110201D4908601C48006842
:1053000000F0200040B11B48C06940F00800194976
:10531000C8612020164908601548006800F0400068
:1053200040B11448C06940F004001249C8614020EF
:105330000F4908600E48006800F0800040B10D4839
:10534000C06940F002000B49C8618020084908602C
:105350000748006800F0020040B10648C06940F00C
:1053600020000449C861022001490860704700001C
:105370000C3C0240E485002070B504460025002066
:105380001449C86100F052FC054609E0601C38B1C0
:1053900024B100F04BFC401BA04201D9032070BD9A
:1053A0000D48006800F480300028EFD10A480068FA
:1053B00000F0010010B101200749086006480068AC
:1053C00000F0F20018B1FFF78BFF0120E7E70020A3
:1053D000E5E70000E48500200C3C024070B50024A5
:1053E00000255D480068B0F8D840092C15D0142C71
:1053F00013D0162C11D0192C0FD01A2C0DD01B2C19
:105400000BD01C2C09D01E2C07D0202C05D0232C0F
:1054100003D0262C01D02B2C12D14F480068B0F8B5
:10542000F450002D0BD0802005F07AFD4A4800682A
:10543000B0F8D4000028F5D0022005F071FD83E01B
:10544000022C0DD0042C0BD0222C09D0252C07D0F7
:10545000272C05D0282C03D02C2C01D02D2C0AD1A0
:105460003D480068B0F8F450002D6DD04FF4005066
:1054700005F056FD68E0012C07D0052C05D0062C60
:1054800003D0072C01D0292C09D133480068B0F88B
:10549000F250002D58D0022005F042FD54E0032CBC
:1054A0000FD0082C0DD0132C0BD0152C09D0182C94
:1054B00007D01F2C05D0212C03D0242C01D02A2C5E
:1054C00001D1002540E0172C36D123480068B0F800
:1054D000F45085B320480068B0F87A0030B1012854
:1054E00010D0022813D0032819D114E0802005F031
:1054F00017FD19480068B0F8D40010B1022005F07B
:105500000FFD18E04FF4005005F00AFD13E00220F3
:1055100005F006FD0FE0102005F002FD0BE08020F5
:1055200005F0FEFC0C480068B0F8D40010B1022071
:1055300005F0F6FC00BF07E007480068B0F8F2503D
:1055400015B1022005F0ECFC1DB129B2034808F0AA
:1055500025FCFEF797FD70BD7802002024FAFFFFBE
:105560007CB505460024002001214FF496730322E8
:10557000CDE900101A21284611F0D5F80446002084
:1055800001214FF496730322CDE900101A21284619
:1055900011F0C9F804461CB90321284605F0B7FEEE
:1055A0003B212046FFF77CFD064630467CBD0000CF
:1055B0002DE9F84380460E4617461D46002415483F
:1055C00030F816903B464A46314640460095FFF774
:1055D0006BFB0446C4B109234FF4487203214046D3
:1055E0000FF0A0FB3B464A46314640460095FFF788
:1055F0005BFB0446022C01D0032C00D101241CB11A
:105600004FF4967014F0DCF931462046FFF748FD60
:10561000BDE8F883C0E5050820480068C088012877
:105620001DD11F480068B0F8D8001D490968A1F8CD
:10563000060100201A490968A1F8180118490968EB
:10564000A1F81E019FED170A1548006880ED480A71
:105650009FED140A1248006880ED430A1CE0002008
:105660000F490968A1F806010D490968A1F8D80099
:105670000B490968A1F8180109490968A1F81E0138
:105680009FED080A0648006880ED480A9FED050A6C
:105690000348006880ED430A704700007C02002048
:1056A00078020020000000007CB5054600243C2064
:1056B0001F490968C8800FF0C1FB4FF4FA7014F05D
:1056C0007FF905201A49096808810FF0C1FB4FF4E2
:1056D000FA7014F075F915B9FEF762FD01E005F0F6
:1056E00045FB4FF4FA7014F06BF910F0BDF840F67A
:1056F000B83014F065F968460AF04AFC0446002CFC
:105700000ADBBDF800000A4909684887BDF80200B5
:1057100007490968088705E0054909684C87044975
:1057200009680C874FF4FA7014F04AF97CBD000048
:105730007802002070B505460E461446642014F029
:105740003FF94FF4FA711B48006814F08FF980B9E3
:1057500000201949486088600846048015480068A0
:1057600014F00EFA50B115480068401C1349086047
:1057700004E012480068401C1049086002E0642000
:1057800014F01EF90C4800880028F8DC204604EBD1
:10579000D071094A526802EB6101B1FBF4F1298032
:1057A00004EBD071044A926802EB6101B1FBF4F1A1
:1057B000318070BD2C040020C07D002094030020A7
:1057C00030B502460B460A4850F8224000210BE053
:1057D00004EB01100088984204D104EB01108568A5
:1057E000284630BD481CC1B21429F1DB0020F8E77F
:1057F000CC84002030B502460B460A4850F82240BF
:1058000000210BE004EB01100088984204D104EB66
:1058100001104568284630BD481CC1B21429F1DB8F
:105820000020F8E7CC84002030B502460B460B4838
:1058300050F8224000210CE004EB0110008898424F
:1058400005D104EB0110808885B2284630BD481C84
:10585000C1B21429F0DB0020F8E70000CC8400205E
:1058600010B52DED068B04469FED590BB0EE408A26
:10587000F0EE608A24B1012C56D0022C7ED181E05A
:1058800055480068C08A00EE100AB8EE400A10EED3
:10589000101A084618F0ECFC41EC180B4E49096848
:1058A000C88A18F06BFA41EC190B4B490968C88A91
:1058B00018F064FA41EC1A0B53EC192B18F0AEFAFD
:1058C00041EC180B9FED450B53EC102B51EC180BD2
:1058D00018F0A4FA41EC180B3F490968C88A18F07F
:1058E0004DFA41EC1A0B9FED3F0B53EC102B18F0C7
:1058F00095FA41EC190B53EC182B17F0B3FF41EC60
:10590000180B9FED3A0B53EC102B51EC180B17F0C2
:10591000A9FF41EC180B51EC180B17F071FF35493A
:105920000968C1F8840048E02B490968888A18F0A2
:1059300025FA41EC190B9FED300B53EC102B18F0AE
:105940006DFA41EC180B9FED2E0B53EC102B51EC24
:10595000180B18F03BF841EC180B9FED2B0B53EC98
:10596000102B51EC180B18F031F841EC180B51ECDE
:10597000180B17F045FF1F49096800E00EE0C1F859
:1059800088001AE01448006890ED1B0A10EE101A07
:10599000084618F06DFC41EC180B0EE00E4800684C
:1059A000C08A00EE100AB8EE400A10EE101A08463F
:1059B00018F05EFC41EC180B00BF00BF51EC180B57
:1059C00017F01EFF00EE100ABDEC068B10BD0000A4
:1059D00000000000000000007C02002000000080A9
:1059E0005CEEB63EFA035C0E3FF1A73FD8F50B76AE
:1059F000C3B6C93F780200200000000000C8A940DB
:105A00000000000000FEAF40000000000000694000
:105A100010B5642013F0D4FF04480068007800F04B
:105A2000020008B1012010BD0020FCE76802002040
:105A300070B505460C462146284608F033FCE87848
:105A40000E490968A1F85C0068780C490968A1F85A
:105A50005E00A87809490968A1F860002079074923
:105A60000968A1F86200607904490968A1F8640036
:105A7000A07902490968A1F8660070BD7C02002087
:105A80002DE9F04104460E460127002500BF2548B8
:105A9000007E012802D10220BDE8F08101202149C9
:105AA000087600BF4CF25030FFF766FC0746002F27
:105AB00031D1401E3060206801280FD1207C616800
:105AC000FFF79EFB4CF25030FFF756FC0746164896
:105AD000006820F00400144908601AE0A56812E08C
